:020000040000FA
:0600000002011A02243285
:03002B00022B5451
:030053000224A8DC
:03006B00022B2243
:1000830002228FE5C754F84401F5C7790122000025
:100093000080FB120086B90003020104E479217891
:1000A30008B800028004F709D8FCE479297802B87B
:1000B30000028004F709D8FCE490028178D5791313
:1000C3008002F0A3D8FCD9FA781A90014A7A01BACF
:1000D30000028007E493A3F608DAF97A557B1590BA
:1000E300014B784B79058015E493A3AD82AE838AE7
:1000F300828B83F0A3AA82AB838D828E83D8E9D9C6
:10010300E77582A37583FF740212012C75829175C2
:100113008300740012012C75D00075813F7518811E
:10012300751902759F00020096C09FF59FE473D076
:100133009F22D083D082C09FE493C0E0740193C018
:10014300E0740293F59F2201FF0000B40000280031
:100153002800283075A000A000A000A0000008001F
:1001630008E001F000100010001000100010001053
:100173000050005000500010001000D00700000095
:100183000000000F0001000500307507001000019A
:100193000081FF00000000FFFFFFB107CF07B70793
:1001A300F307FF02020208025000A0000000E80368
:1001B300021182010000FC81021582010000B015CA
:1001C300021B82010000BF02021582010000B1156B
:1001D300021D82010000D502021582010000B21542
:1001E300021F82010000D702021582010000B3152D
:1001F300022182080000D802021582010000B41512
:10020300022382010000B515FF0100FF20021182C5
:10021300010000FF810215820100001916022582E8
:1002230000000000000219820300000603170053B8
:100233000E530E530E530E530E530E530E530E53B3
:100243000E530E530E530E530E111123110B1102A5
:1002530043505320666561747572652073757070C1
:100263006F7274000010435053206D656173757293
:10027300656D656E74207661726961626C650000FC
:1002830002054350532073656E736F72206C6F6366
:100293006174696F6E00002843505320636F6E745E
:1002A300726F6C20706F696E74000010435053209E
:1002B300766563746F72207661726961626C650042
:1002C3000002118201000002820215820100005C1B
:1002D3001602418201000048070217820100005DF7
:1002E300160215820100007216023F820000004CC4
:1002F300070219820300004D0702178201000073F1
:10030300160215820100008D16023D820100008E47
:10031300160217820100008F16021582010000A445
:1003230016023B820200004F0702198203000050AD
:1003330007021782010000A516021582010000B80A
:10034300160237820100005207021982030000508F
:1003530007021782010000B916020202020202021A
:100363000202010D000000100102118201000005CC
:1003730082021582010000661702338201000055D4
:100383000702158201000067170231820100002372
:10039300810215820100006817022F82010000F913
:1003A300800215820100006917022D82010000B747
:1003B300800215820100006A17022B82010000816E
:1003C300800215820100006B170253820100009323
:1003D300800215820100006C17022982010000A52A
:1003E300800215820100006D1702278201000007B9
:1003F300810215820100006E17020B820100006F5B
:100403001701E8030577100AFFFFFF0001307503AA
:1004130002010600000000000000000000000000D0
:10042300000000000000000000000000000000FFCA
:10043300FF0600800CE803140953696D706C654274
:100443004C455065726970686572616C05125000A5
:100453002003020A000201050302F0FF53696D70D5
:100463006C6520424C452050657269706865726105
:100473006C8B15000091150A4368617261637465A2
:100483007269737469632031000243686172616346
:10049300746572697374696320320008436861721A
:1004A3006163746572697374696320330010436810
:1004B30061726163746572697374696320340002E5
:1004C300436861726163746572697374696320352B
:1004D30000021182010000088202158201000084DB
:1004E30018024582030000471502178201000085A8
:1004F3001802158201000096180247820100004885
:10050300150217820100009718021582010000A846
:10051300180249820200004915021782010000A94E
:1005230018021582010000BA18024B820000004A2B
:10053300150219820300004B15021782010000BB4C
:1005430018021582010000CC18024D820400004DF0
:1005530015021782010000CD18104B6579205072E7
:100563006573732053746174650002118201000086
:10057300F981021582010000661902398200000028
:10058300521502198203000053150217820100005D
:100593006719120135939303120135A693031201D0
:1005A30035D593031201350D940312013556940387
:1005B300120135999403120135DF940312013512A8
:1005C300950312013539950312013568950312011C
:1005D300359F9503120135B895031201350796032C
:1005E3001201352096031201356896031201359CDA
:1005F30096031201354BB50212013549B6021201B9
:1006030035AFB602120135D2B602120135D4B602A5
:1006130012013512B70212013583B70212013543B5
:10062300B80212013565B80212013501B90212018F
:100633003538B9021201357DB9021201358AB90282
:10064300120135FAB90212013544BA0212013547D3
:10065300BA021201358DBA0212013590BA021201A3
:10066300359ABA021201350DBB0212013535BB02B0
:1006730012013568BB021201358CBB0212013589A8
:10068300BC021201352DBD0212013599BD021201C2
:1006930035D5BD021201353E880312013566880344
:1006A300120135938803120135CB880312013531CA
:1006B30089031201357B8903120135DF8903120196
:1006C30035278A03120135648A03120135928A039E
:1006D300120135278B03120135318B031201353E8D
:1006E3008B03120135718B031201357D8B031201CC
:1006F30035958B031201359F8B031201353FB203EE
:100703001201354DB20312013565B2031201357C76
:10071300B20312013514A801120135B7A801120161
:1007230035D0A90112013548AA011201356FAB0179
:10073300120135A8AB0112013540AC011201352D70
:10074300AD01120135D6AD011201355EAF011201C3
:100753003546B0011201353DB10112013573B101C6
:1007630012013515B2011201353BB20112013507F1
:10077300B4011201354DB4011201356FB4011201F8
:1007830035DBB401120135A6B50112013560B6019E
:100793001201356CB801120135B178001201358DA3
:1007A3007900120135377A00120135787A00120187
:1007B30035FF7A001201357A7B001201354D7C003A
:1007C300120135767C001201356A7D00120135A7CE
:1007D3007D001201358F7E00120135C07E001201AB
:1007E30035E67E0012013594A00312013513A103EF
:1007F3001201353EA1031201354EA2031201352D1C
:100803008C03120135438C03120135618C031201F1
:1008130035718D031201357B8D03120135A58E03CE
:10082300120135928F03120135FE8F031201351E1B
:10083300CE021201354BCF0212013582CF021201D3
:1008430035D9CF02120135D1D10212013563950199
:10085300120135EA95011201353E97011201354A1D
:100863009701120135C297011201359B98011201BC
:10087300359B9901120135979A01120135639B014A
:10088300120135BD9C01120135D39C01120135F4CF
:100893009C01120135869D01120135FC9D01120157
:1008A30035229E01120135CFA001120135D4A001DA
:1008B300120135F8A2011201353FA301120135A53A
:1008C300A301120135EBA301120135BBA4011201EF
:1008D3003570A501120135CCA501120135CFA50153
:1008E3001201351BA60112013557A60112013596D7
:1008F300A601120135B8A601120135ECA6011201B9
:10090300355AA70112013513D90212013521D90233
:1009130012013571D90212013590D902120135DA6B
:10092300D9021201351DDB02120135B5DB021201BA
:1009330035F9DB0212013523DC021201358EDC02AC
:10094300120135D2DC0212013555DD0212013504E4
:10095300DE02120135802B00120135902B001201AB
:10096300352A2C00120135862C00120135442D0046
:10097300120135672E00120135972E00120135C67C
:100983002E001201357C3000120135CF32001201E6
:10099300352E3500120135173600120135073700A1
:1009A300120135DA3800120135D23B00120135EF5E
:1009B3003C00120135E93E00120135F83F001201F7
:1009C30035874100120135734200120135C24200DE
:1009D3001201353243001201354E43001201359F97
:1009E30043001201353F4800120135464900120108
:1009F30035A84900120135D349001201358B4A004D
:100A03001201352DF90212013537F9021201357F32
:100A1300F90212013593F90212013524FA02120187
:100A2300355BFA0212013596FA02120135BFFA025A
:100A330012013513FB0212013528FB021201354A5C
:100A4300FB021201355FFB0212013573FB02120137
:100A53003588FB02120135C2FB02120135EEFB029F
:100A630012013537FC02120135ADFC02120135F0DB
:100A7300FC021201351AFD0212013545FD02120175
:100A83003562AC03120135F29702120135CB98029D
:100A93001201353A9902120135759902120135B0E6
:100AA3009A02120135629B021201350F9E02120156
:100AB30035BA9E021201359B9F0212013511A10224
:100AC30012013579A102120135BFE202120135028A
:100AD300E3021201356DE402120135ABE6021201A5
:100AE300359B9C03120135489D03120135419E033A
:100AF3001201357E9E0312013521A60312013580B2
:100B0300A6031201351DA70312013550A7031201D5
:100B1300357EA703120135B9A703120135D9A703FF
:100B230012013516DE021201359FDE021201355E17
:100B3300DF021201356CE0021201358CE202120170
:100B430035D6F301120135EBF301120135B6F40189
:100B530012013583F501120135F0F5011201352B30
:100B6300F601120135CCF601120135D5F701120158
:100B730035ADF80112013530F901120135B9F9012A
:100B830012013522FA01120135ACFA01120135F9CD
:100B9300FA0112013567FB0112013509FC0112014B
:100BA30035B7FC01120135D7FC011201351BFD01DC
:100BB30012013563FD011201357FFD011201359EDE
:100BC300FD0112013518FE0112013526FE01120145
:100BD30035B9FE0112013523FF01120135C9EB02BC
:100BE30012013545EC0212013583EC02120135671F
:100BF300ED02120135D6ED021201351AEE02120191
:100C0300355DEE021201358AEE02120135A8EE02BD
:100C1300120135E0EE021201351DEF021201353EDD
:100C2300EF02120135B4EF02120135FEEF02120199
:100C33003579B8011201350DBA011201354BBC01EA
:100C430012013593BC01120135BEBC01120135B44A
:100C5300BD01120135E4BD011201353BBE01120194
:100C6300354EBE011201358FBE01120135BCBE01E6
:100C730012013505BF0112013541BF01120135864D
:100C8300BF01120135D3BF011201353BC00112016F
:100C9300356DC20112013534C4011201356FC4012F
:100CA300120135EDC50112013531C601120135A41A
:100CB300C60112013505C7011201358DC7011201A5
:100CC30035ACC801120135BDC8011201351EA2029F
:100CD3001201358FA20212013558A80212013552B2
:100CE300A90212013514AB0212013592AB021201B3
:100CF30035F44A001201357B4B00120135A84B0035
:100D0300120135EA4B00120135E64C001201352B76
:100D13004D00120135A74E00120135244F00120178
:100D230035494F00120135BC4F001201357950008F
:100D3300120135355100120135B5510012013583C9
:100D43005200120135A952001201351B5300120142
:100D530035BF5300120135E45300120135505400DE
:100D6300120135B65400120135EC540012013590CE
:100D73005500120135295600120135AC56001201F7
:100D830035185700120135645700120135CA570050
:100D9300120135FB5700120135AF5800120135C55A
:100DA30059001201350E5A001201352B5A00120157
:100DB300350B6000120135536000120135406100AC
:100DC3001201356561001201357A6100120135E2C5
:100DD30061001201352262001201353563001201F0
:100DE30035E26300120135BBAB0212013506AC02DA
:100DF30012013512AC02120135DDAC02120135F3DA
:100E0300AC021201352FAD0212013568AD02120199
:100E130035A0AD02120135F6AD021201350CAE025A
:100E230012013548AE021201355BAE021201358262
:100E3300AE02120135B6AE021201358AAF021201BB
:100E43003519B10212013515B2021201351EB30272
:100E5300120135FBFF021201355CD70112013597F0
:100E6300D7011201359BDA01120135EDDB011201C5
:100E730035B2DC01120135ACDF0112013596E00118
:100E8300120135E1E001120135FBE00112013538B1
:100E9300E10112013543E10112013582E101120141
:100EA300358BE1011201354CE20112013509E301F1
:100EB3001201356CE301120135D0E3011201355102
:100EC300E401120135568201120135B28501120186
:100ED30035B88501120135F98C01120135D1910123
:100EE3001201350890031201359E9003120135B4A7
:100EF3009003120135FA90031201353E910312015A
:100F0300357891031201350A920312013579920360
:100F13001201358292031201358E9203120135A21A
:100F23009203120135C69203120135DB92031201BB
:100F3300353D930312013564930312013500800399
:100F43001201350D80031201352780031201355A32
:100F53008003120135978003120135FD80031201CE
:100F6300351281031201351D81031201352A8103D4
:100F73001201354181031201354F81031201355AA4
:100F83008103120135668103120135758103120154
:100F930035808103120135A681031201354A82038C
:100FA3001201355A820312013574820312013591FD
:100FB3008203120135AC8203120135D3820312017D
:100FC30035DE8203120135F38203120135078303F1
:100FD3001201356883031201356E830312013574E0
:100FE30083031201357A83031201359283031201BD
:100FF30035C5830312013505800212013593800242
:10100300120135288102120135048202120135389A
:1010130082021201354B8202120135C5820212018E
:10102300354D8402120135748402120135FB8402AA
:101033001201353A85021201354B8502120135C082
:101043008502120135DF8502120135F7850212018F
:10105300353B8702120135458902120135778B0230
:101063001201357D8C02120135C08C02120135C28A
:10107300C801120135D5C901120135BDCA011201DA
:1010830035C7CA01120135E9CA01120135F5CA0192
:1010930012013542CC011201356FCC01120135909A
:1010A300CD01120135D2CD0112013507CF01120155
:1010B30035D7CF0112013526D00112013587D00172
:1010C300120135BCD001120135F5D001120135A052
:1010D300D401120135B7D40112013535D5011201FE
:1010E3003543D5011201358CD5011201359AD5014D
:1010F3001201351BD6011201358AD601120135D6EC
:10110300D6011201350D8D021201352F8D02120108
:10111300350B8F02120135839202120135CD9302F2
:10112300120135AF9402120135E7A7031201350C02
:10113300A8031201357DA8031201359BC6021201D3
:1011430035A4C602120135ADC602120135D1C7025C
:10115300120135C2C902120135F0C9021201351B51
:10116300CA0212013549CA0212013574CA021201B8
:1011730035B2CA02120135DECA021201351BCB0297
:1011830012013546CB0212013592CB02120135E929
:10119300CB0212013529CC0212013578CC0212019F
:1011A30035A3CC02120135E9CC0212013517CD0269
:1011B30012013542CD021201356FCD021201359273
:1011C300CD0212013546FF0112013572FF011201F2
:1011D30035CBFF01120135D5FF01120135E5FF01C2
:1011E30012013557A40312013508A5031201353F37
:1011F300A5031201351CA60312013504970312013E
:10120300352B970312013556970312013577B30334
:101213001201351464001201357A6600120135316A
:1012230068001201358E68001201359B69001201B6
:1012330035236A00120135AA6A00120135CF6A000C
:10124300120135C46D00120135356E0012013524CB
:101253006F001201355E6F001201359E6F0012019F
:1012630035437100120135967100120135DF7100AB
:101273001201354D72001201357372001201358D62
:101283007200120135A37300120135B3730012010A
:10129300353975001201355975001201358F750006
:1012A3001201350F77001201354E77001201358C8C
:1012B300780012013548E702120135A0E702120156
:1012C30035E8E80212013557E90212013506EA0250
:1012D30012013525EA0212013579EA02120135B706
:1012E300EA02120135EFFF01120135C1B303120106
:1012F3003500B4031201359AB40312013560B1030A
:1013030012013570B10312013585B103120135396C
:10131300B20312013576AD03120135FAAD031201A2
:101323003562AE0312013536AB031201355DAB03F3
:10133300120135B3AB03120135C6AB0312013517E6
:10134300AC0312013556AC0312013559AC0312013B
:10135300353F8403120135538403120135CC8403D2
:10136300120135A18503120135738703120135D8A4
:1013730087031201352B8803120135F87F00120110
:10138300357DA203120135F3A30312013554A403DF
:101393001201356FB00312013598B003120135C144
:1013A300B003120135D9B0031201351BB103120189
:1013B30035BED302120135C8D30212013508D40257
:1013C30012013551D4021201358BD402120135E1D9
:1013D300D40212013500D50212013509D5021201DA
:1013E300355AD50212013583D50212013598D5023B
:1013F30012013508D60212013596D602120135DAEA
:10140300D60212013503D70212013582D702120127
:1014130035BFD702120135F6D70212013508D802BB
:1014230012013527D80212013530D802120135E7EF
:10143300D80212013598A903120135E9A903120153
:101443003572AA03120135D8AA03120135DA9903BA
:10145300120135049A03120135F99A031201352852
:101463009B03120135AF9B0312013578AF031201C1
:1014730035989E03120135CE9E03120135019F0359
:101483001201355AA003120135567F001201356C43
:101493007F00120135767F00120135CC7F001201E7
:1014A300350CB303120135FBBD02120135B8BE0280
:1014B300120135F3BE0212013524BF021201358B2E
:1014C300BF02120135E3BF0212013542C00212010D
:1014D3003534C10212013533C202120135C5C302CC
:1014E30012013579C402120135E2C402120135F545
:1014F300C402120135F0C5021201353DC6021201C4
:1015030035BDF402120135D3F40212013574F5022C
:10151300120135B3F502120135D0F502120135017E
:10152300F6021201354EF60212013582F60212015D
:1015330035BDF602120135BAF80212013520F9025F
:101543001201359BE50112013552E901120135E41F
:10155300EA011201353BEB011201355AEB0112018D
:1015630035D8EB011201356AED011201354EEE015A
:101573001201355FF20112013533F30112013545D2
:10158300F002120135A6F202120135D4F302120160
:101593003594F40212013572FD021201358FFD02FA
:1015A3001201355AFE02120135ADFE0212013580D9
:1015B300AE03120135E5AE031201350AB40312017D
:1015C3003550B4031201357CB403E066701008A3F0
:1015D300E066700A08A3E066700408A3E06622C30D
:1015E300E7960809E7960809E7960809E79622C3EC
:1015F300E09608A3E09608A3E09608A3E09622C02D
:1016030008C3E096F50808A3E096420808A3E0960D
:10161300420808A3E09645087001D3D008220808C1
:1016230008EAC0E0EBC0E086F0E7A4FA180986F008
:10163300E7A42AFA180986F0E7A42AFA180986F01B
:10164300E7A42AFA1986F0E7A4FBE5F02AFA1908B9
:1016530086F0E7A42BFBE5F03AFA190886F0E7A435
:101663002BFBE5F03AFA18180986F0E7A4C5F02B2E
:10167300FBE43AFA1908E7C5F0C6A426F6E5F03B01
:10168300FBE43AFA1886F0E7A4F6E5F00826F6E458
:101693003B08F6E43A08F6D0E0FBD0E0FA22E4CFC8
:1016A300C0E0E4CEC0E0E4CDC0E0E4CCC0E075F03F
:1016B30020E626F608E633F608E633F608E633F6C0
:1016C300181818EC33FCED33FDEE33FEEF33FFC394
:1016D300EC9709ED9709EE9709EF97191919400F40
:1016E300FFEC97FC09ED97FD09EE97FE191906D556
:1016F300F0BFECF709EDF709EEF709EFF719191940
:10170300D0E0FCD0E0FDD0E0FED0E0FF2260160880
:101713000808C6C313C618C613C618C613C618C608
:1017230013C6D5E0EA2270090808082260161818C3
:1017330018C6C333C608C633C608C633C608C6337D
:10174300C6D5E0EA22E627F60809E637F60809E6F1
:1017530037F60809E637F622E026F608A3E036F660
:1017630008A3E036F608A3E036F622E026F008A345
:10177300E036F008A3E036F008A3E036F022C3E633
:1017830097F60809E697F60809E697F60809E69733
:10179300F622C3E0C696F608A3E0C696F608A3E0D1
:1017A300C696F608A3E0C696F622C3E096F008A311
:1017B300E096F008A3E096F008A3E096F022E05646
:1017C300F608A3E056F608A3E056F608A3E056F69B
:1017D30022E056F008A3E056F008A3E056F008A371
:1017E300E056F022E0F608A3E0F608A3E0F608A32B
:1017F300E0F622E6F008A3E6F008A3E6F008A3E685
:10180300F022E0FAA3E0FBA3E0FCA3E0FD22E0FC6E
:10181300A3E0FDA3E0FEA3E0FF22ECF0A3EDF0A321
:10182300EEF0A3EFF022E0F8A3E0F9A3E0FAA3E0DF
:10183300FB22E8F0A3E9F0A3EAF0A3EBF022CAC08D
:10184300E0E6F0A308DAFAD0E0FA22CAC0E0E0A3A7
:10185300C582CCC582C583CDC583F0A3C582CCC563
:1018630082C583CDC583DAE6D0E0CA22C3E498F803
:10187300E499F91218B08026C3E49AFAE49BFBE9D1
:1018830020E7E91218B0E498F8E499F922C3E49840
:10189300F8E499F91218B0E498F8E499F9C3E49AD2
:1018A300FAE49BFB22EB20E7CFE920E7E0B9001045
:1018B300BB0008E88AF084F8AAF022E4FBC8FA2205
:1018C300EB70227B10C833C8C933C9335007C39A9E
:1018D300C3DBF280069A50012ADBEAC833F4C8C995
:1018E30033F4C9FA2275F008E4C833C8C933C933DD
:1018F300C99AC99B5004C92AC93BD5F0ECFBC8332C
:10190300F4C8E4C9FA22600D08C6A2E713C618C6D4
:1019130013C6D5E0F322600C08C6C313C618C6135A
:10192300C6D5E0F422700422600D18C6C333C6087E
:10193300C633C6D5E0F41822251810AF08F51840B1
:101943000C15198008F51840021519D2AF2200C0F2
:10195300D0251810AF08F518500C05198008F51894
:1019630050020519D2AFD0D0222518F58210AF0846
:10197300F518400C15198008F51840021519D2AF57
:10198300851983222518F582E43519F58322251854
:10199300F8E43519F9222518FAE43519FB2225183C
:1019A300FCE43519FD22E4732518C582C0E0E5196E
:1019B30034FFC583C0E0E518C3958224F810AF084F
:1019C3008583198582188008858319858218D2AF8B
:1019D300CEF0A3E520F0A37808E608F0A3DEFAEF43
:1019E300F0A3E58124FAF8E608F0A3E608F0A3E6FD
:1019F30008F0A30808E608F0A3E608F0A31581158C
:101A030081D0E0FED0E0F8158115811581E8C0E0B2
:101A1300EEC0E0222518C582C0E0E51934FFC58376
:101A2300C0E0E518C3958224F910AF0885831985B2
:101A330082188008858319858218D2AFCEF0A3E57A
:101A430020F0A37808E608F0A3DEFAEFF0A3E5811F
:101A530024FBF8E608F0A3E608F0A30808E608F07C
:101A6300A3E608F0A315811581D0E0FED0E0F815B8
:101A7300811581E8C0E0EEC0E022851983851882D4
:101A8300E0A3FEE0A3F5207808E0A3F608DFFAE080
:101A9300A3FFE0A3C0E0E0A3C0E0E0A3C0E0E0A3B5
:101AA300C0E0E0A3C0E010AF0885821885831980E9
:101AB30008858218858319D2AFD083D08202013280
:101AC300851983851882E0A3FEE0A3F5207808E05A
:101AD300A3F608DFFAE0A3FFE0A3C0E0E0A3C0E0C1
:101AE300E0A3C0E0E0A3C0E010AF088582188583BF
:101AF300198008858218858319D2AFD083D08222BA
:101B0300C0D02518C582C0E0E51934FFC583C0E005
:101B1300E518C3958224F310AF08858319858218CD
:101B23008008858319858218D2AFC8F0A3E9F0A392
:101B3300EAF0A3EBF0A37908E709F0A3D8FAECF0F5
:101B4300A3EDF0A3EEF0A3EFF0A3D0E0F0A3D0E079
:101B5300F0A3D0E0F0A3E520F0A3E5F0F0A3228505
:101B63001983851882E0C0E0A3E0F9A3E0FAA3E0BB
:101B7300FBA37808E0F608A3DFFAE0FCA3E0FDA3EB
:101B8300E0FEA3E0FFA3E0C0E0A3E0C0E0A3E0F534
:101B9300D0A3E0F520A3E0A3F5F010AF08858319E7
:101BA3008582188008858319858218D2AFD082D0A8
:101BB30083D0E0F8D0E032740480067402800274AB
:101BC30001C0E0F40412196CD0E01218412274042D
:101BD300800474028000CCC0E0EDC0E0E518C39C33
:101BE300CCAD1950011D10AF068C188D1980068CD1
:101BF300188D19D2AF12184ED0E0FDD0E0FC22D0E0
:101C030083D082E9C0E0E493A3C386F0C5F095F0E6
:101C1300F908E493A386F0C5F095F0700BE493A361
:101C2300C3994005E9048002A3E475F002A4258268
:101C3300F582E5F03583F583D0E0F9E493A3C0E0C2
:101C4300E493C0E022D083D082ECC0E0EDC0E0E4B6
:101C530093A3FCE493A3FDED4C600D121C94EC24C0
:101C6300FFFCED34FFFD80EFE493A3FCE493A3FDBD
:101C7300ED4C600D121CD3EC24FFFCED34FFFD8012
:101C8300EFD0E0FDD0E0FCE493A3C0E0E493C0E038
:101C930022C0E0C3E49396087401939618400FE4BE
:101CA3009366700808740193661870007019A3A3F3
:101CB300C3E49396087401939618A3A3400DD0E050
:101CC300D0E0D0E0021C84A3A3A3A3A3A3D0E0226B
:101CD300C0E0C0F088F0E49366700808740193666E
:101CE300187000A8F0A3A3700BD0F0D0E0D0E0D020
:0B1CF300E0021C84A3A3D0F0D0E0228C
:101D000074F6121A17EAFEEBFF8C088D09EA2434E8
:101D1000F8E43FF9E8FCE9FDEA24351220A7FAEEE1
:101D200024371220A7F88508F0A4C885F00A850991
:101D3000F0A4250AF9EA28F8E439F97A257B00129B
:101D400018B0EA8C828D83F0FA131313541F1220FB
:101D50009B245DF582E439F583E0C0E074075AF80E
:101D6000D0E0B800028004C313D8FCA2E0EE500813
:101D70002434F582E43F801424361220A7F5F0EADB
:101D800084A8F012209C2438F582E439F583E0F928
:101D90007F03021AC374F7121A17EAFEEBFFEA2454
:101DA000341220A7C0E0EA2435F582E43FF583D061
:101DB000E0F08A828B83A3A3A3A3A3A3A3C082C0C2
:101DC000838A828B83A3A3A3A3A3E0F8A3E0F9D023
:101DD00083D082E0C398F508A3E099F509EA24804E
:101DE0001220A76401703EEA2481F582E43FF58366
:101DF000C082C0838A828B83A3A3A3A3A3E0240110
:101E000008A3E03400F9D083D082E0687003A3E037
:101E10006970127CB67D04120D93EE2480F582E485
:101E20003FF583E4F0AC08AD09EEFAEFFB121D00BC
:101E3000E9F9122B147F02021AC3C082C0838518ED
:101E400082851983E0F8A3E0F9C3EA9CEB9D50106A
:101E5000C3EC98ED99401BC3EA98EB995014800E9F
:101E6000C3EA98EB994007C3EC98ED9940047901D7
:101E700080027900D083D08222EAC39CFAEB9DFBDA
:101E80002274EF121A17900376E064086005E0648C
:101E900007702A9061C8E060249003A4E0F4601DFC
:101EA000E0F875F010A4C8AAF02AF974A628FE7408
:101EB0000339FF8E82F583A3A3A3E07003021F9A68
:101EC000906060E0C0E0EE2468F582E43FF583D0E6
:101ED000E0F0750C27750D05750800750900E5D94A
:101EE00014F50AE5D95403F50E602F7403650E60EE
:101EF0001DE50A6008EE24671220A7601D900522E8
:101F0000E06401602C1220A460127804801012207A
:101F1000A4602CE50AC39405502580637800E50A87
:101F2000C398FA95E0FB120C438A088B09EA4B70C0
:101F300005120FD980641220A470048A0C8B0DE561
:101F40000A6012850C82850D83F50BE5D9F0A31587
:101F50000BE50B70F61220A4604574FC250AF50A07
:101F6000780C121BBEAC0AA90EEEFAEFFB120E4D56
:101F70007402121951E97027AA08AB0912143B79AF
:101F80003D8E828F83A3A3A3A3E0FA7B00120AAB4A
:101F9000EEFAEFFB120DB7120E5F79000220967475
:101FA00003650E6053E50AF5107511007810121BD9
:101FB000BEAC0CAD0DAA08AB09120E1174021219B9
:101FC00051EE24681220A764807004747F8001E0C1
:101FD000F50C780C121BC2E50EF50C780C121BC226
:101FE000A90AAC08AD099003A4E0FA7B00120A81AB
:101FF0007402121951022091850C82850D83E0C371
:10200000940E5011E0F8741528F582E43481F583BC
:10201000E0650A6069850C82850D83E0C0E0EE24EE
:10202000F7F582E43FF583D0E0F0A2AFE433FCC2E1
:10203000AF7A0080010AEE246E1220A7F8EAC39856
:102040005013EA12209B246AF582E439F583E06498
:102050000770E28022EE246EF8E43FF9E0FAEE2AFF
:10206000FAE43FFBEA246AF582E43BF5837407F067
:1020700088828983E004F0ECA2E092AF80139003A1
:1020800076E06408600BAC0CAD0DEEFAEFFB120EBF
:10209000D7120FE579017F0A021AC3F8EE28F8E497
:1020A0003FF9E822EE2484F582E43FF583E02274D0
:1020B000F1121A1774FC12193BEAFEEBFF8909753D
:1020C0000D00A2AFE433F508C2AF9004BEE0FA9071
:1020D00061D0E0F8748098F895E0F9C3EA98E49943
:1020E000A2D265D0334003022199750D01022199D6
:1020F000E0601B780A121BBEAC0EA90FEEFAEFFBD4
:10210000120E4774021219517404250EF50E740153
:10211000250EF5D9850FD9E50E6012850A82850B4B
:1021200083F50CE0F5D9A3150CE50C70F675E19577
:10213000EE2463F8E43FF97A007B00A2AFE433F5C4
:102140000AC2AF88828983E0FCA3E0FDEC4D603ACF
:1021500088828983E0FAA3E0FB8C82F583E0FCA30C
:10216000E0FD88828983ECF0A3EDF08A828B83E422
:10217000F0A3F088828983E0FCA3E0FDEC4D700AB7
:1021800088828983A3A3E4F0A3F0E50AA2E092AFDA
:1021900012143B9004BDE004F0EE24631220A7F873
:1021A000A3E0F9E8496063EE24631220A72402F853
:1021B000A3E034008882F583E5822402F50AE43541
:1021C00083F50BE0F50EA3E0F50FEE24621220A7D5
:1021D000640170369061D0E0F81220A460047C04A1
:1021E00080027C007480C398FA95E0FBE50E2CF821
:1021F000E43400F9E82402F8500109C3EA98EB99A5
:10220000A2D265D03340030220F09061D0E0F87490
:1022100080C3989004BEF0E50D60539004BDE0606B
:102220004D9004BFE0F89004BDE0C398500C7402D8
:102230006509703A9004C0E060348E828F83A3A356
:10224000A3A3E085188285198312227E74021219D5
:1022500087E812227E9004BCE028F074021219A1D3
:10226000AA18AB197901120AD59004BDE4F0E5086B
:10227000A2E092AF74041219517F08021AC3F0A3AE
:10228000E4F09004BDE0F8228521878522C622C0B3
:10229000E074EB121B03A2AFE433F508C2AF759BE9
:1022A00000906182E0A2E0502DE591A2E0502775F8
:1022B00091FE74016521701E12240612241D121B4A
:1022C000D11228C37404121951E96401700579010F
:1022D000120F6D121E81906182E0A2E5505AE591C5
:1022E000A2E550547591DF900376E064076005E045
:1022F0006408702C12240674016521703B12241DA1
:10230000121BD11228C37404121951E9640170051B
:102310007901120F6D7901EEFAEFFB1220AF8018F0
:10232000E0640D7013900398E004F064287002E4F8
:10233000F07A00E0F9120FEB906182E0A2E6400330
:102340000223DBE591A2E640030223DB7591BF90F7
:102350000376E064057008120F0D120F1980031246
:102360000F13752100120F79E9900377F0790012AD
:102370000F6D120D037A017B00900375E0F91214C2
:102380000B907803E064427052900526E014F070E0
:102390004AC2AF12239600782AD0E0F618D0E0F6B1
:1023A000E59F540770047BFF80027B7FC4C0E07808
:1023B00029E6F50A08E65BF50B740B780A12191981
:1023C000D0E0250AF8906270E0A2E740F8E8C33355
:1023D000906272F0906270E0D2E0F0906181E0A2D1
:1023E000E35009E5E9A2E3500375E9F7A3E0A2E7AA
:1023F0005009E591A2E7500375917FE508A2E092AC
:10240000AF7F08021B629003A4E0F875F010A4C827
:10241000AAF02AF974A628FE740339FF22120F25A8
:102420008E828F83E0F8A3E0C82416F582E438F5A5
:102430008322C0E0C0D0C082C083906183E0A2E06C
:102440005009E5BFA2E0500375BFFEE0A2E15009CC
:10245000E5BFA2E1500375BFFDE0A2E25009E5BF70
:10246000A2E2500375BFFBE0A2E35009E5BFA2E37F
:10247000500375BFF7E0A2E45009E5BFA2E45003A2
:1024800075BFEFE0A2E55009E5BFA2E5500375BFB7
:10249000DFE0A2E65009E5BFA2E6500375BFBFD05A
:1024A00083D082D0D0D0E032C0E074F2121B03E5BA
:1024B000A7A2E6500FE5A1A2E6500953A7BF75A158
:1024C000BF1224FCE5A7A2E5500CE5A1A2E5500649
:1024D00053A7DF75A1DFE5A7A2E15009E5A1A2E1BD
:1024E000500375A1FDE5A7A2E2500CE5A1A2E250C0
:1024F0000653A7FB75A1FB7F01021B6274F7121A3A
:1025000017752101900376E064067015120E838A18
:10251000828B83A3A3A3A3A3A3E0FAA3E0FB120EE1
:10252000FBA2AFE433FED2AF90037CE064017018ED
:102530007A207B00900375E0F91215257A207B0044
:10254000900375E0F9121411906182E0D2E6F090E8
:102550000523E0602185C622801690037BE064019C
:102560007008E5C654F84405F5C653BEFC1222882F
:102570007401652160E4EEA2E092AF7F02021AC30B
:102580008E238F2485822885832785188285198349
:10259000E0CEA3E0CF852882852783EBC9EAC8ED8A
:1025A000CBECCA75F010C3E833C8E933C9EA33CAC3
:1025B000EB33CBC3EA9EF526EB9FF525B35004AB76
:1025C00025AA26EC33CCED33CDD5F0DAAE23AF24FB
:1025D0002274E9121A1774FA12193BEAFEEBFF8C07
:1025E0000A8D0B120F31EAF8EBF9ECFAEDFB8E8253
:1025F0008F83121835900376E024F7C394055006B4
:10260000751401022737120E838A088B09EA4B7072
:1026100003022734EEFCEFFDAA18AB19120F2B852D
:102620000882850983A3A3780C1217E790818D781F
:102630000C1217C185188285198378101217E7903C
:10264000818D78101217C1780C79101215E2501F85
:10265000780C7910121781908181780C1216024043
:102660005D850C14850D15850E16850F1780379026
:10267000818185101485111585121685131778141C
:10268000790C1217817814121602503275140075E5
:1026900015007516007517017814791012178178D6
:1026A00014790C121748740978141217299081DDD7
:1026B000780C1217E77814790C1216A1800C751497
:1026C0001475150075160075170085088285098335
:1026D000A3A3A3A3A3A31227551218B0880C890D96
:1026E000E4F50EF50F7814790C12174874041219DA
:1026F000871227551218B0E8FAF50CE4F50D781496
:10270000790C1215E250077814790C121781900396
:1027100076E06408600AE064066005E06405702005
:1027200090818578141216025016908189781412BF
:10273000175B800C75140075150075160075170071
:10274000850A82850B8378141217F67406121951C4
:102750007F10021AC3E0F8A3E0F97AD07B03227459
:10276000F7121A17120F43900521E06401701090C0
:102770006245E4F0A3F053F4F343FE0C5390F312DC
:102780000EE9E5C654B84441F5C6E59E5447644198
:1027900070F8906185740FF090051FE0F47002A34B
:1027A000E0604E900520E0600814601B14602E80ED
:1027B0004075080175090090051FE0780812192876
:1027C000E508F45280802A75080175090090051FFC
:1027D000E07808121928E508F45290801475080171
:1027E00075090090051FE07808121928E508F452D1
:1027F000A079007F02021AC374F7121A17E9FEEAE1
:10280000FF120F4374016E700C7A807B0090037589
:10281000E0F912140B902B78E493F46008E493F938
:10282000120CF7800953C6B8E59E544770FA120E91
:10283000EF900521E064017003120D1590051FE073
:10284000F47002A3E0604B900520E0600814601A69
:1028500014602C803D75080175090090051FE07813
:1028600008121928E50842808028750801750900BA
:1028700090051FE07808121928E50842908013752A
:10288000080175090090051FE07808121928E5086D
:1028900042A0120E838B09A909EA496014E5E17090
:1028A000FCEA2414F582E439F583E0F46003E0F5F2
:1028B000E174016F700A7A01900375E0F9121495C2
:1028C0000227F374F1121A178A088B098C0A8D0BF0
:1028D00090818D78081217C1740F121987780C1225
:1028E00017E790818D780C1217C17808790C1215B2
:1028F000E290818150107808790C121781780812C3
:1029000016024014800E780C7908121781780C1288
:10291000160250047901800279007F08021AC374FC
:10292000ED121A178A088B098C0A8D0B90818D780D
:10293000081217C17413121987780C1217E79081C7
:102940008D780C1217C1780C79081215E2401178B5
:1029500008790C121781AA08AB09AC0AAD0B8022CA
:102960007510007511007512007513017810790C3F
:1029700012178178107908121748AA10AB11AC12FF
:10298000AD137F0C021AC390818D78081217E78A65
:10299000828B8378081217D47F04021AC374F5124D
:1029A0001A178C828D8378081217E78A828B8378B6
:1029B000081217AD1229F5C3E09CF0A3E09D12297F
:1029C000E740229081AD78081217E78A828B8378DE
:1029D0000812176E8A828B83A3A3A3A3E02420F09E
:1029E000A3E0344EF080A0F088828983C3E0942075
:1029F000A3E0944E22EA2404F8E43BF98C828D8310
:102A0000A3A3A3A3E0FCA3E0FD888289832274F53D
:102A1000121A179004D9E0FAA3E0FBE929F8E4338D
:102A2000F974C928F582748039F583E02AF508A382
:102A3000E03BF5097808121BBE9081E512180512DB
:102A4000258074021219518A088B098C0A8D0B7427
:102A5000107808121710AA08AB097F04021AC37471
:102A6000F1121A178A0C8B0D8C0E8D0F741112191E
:102A700087121BD57411121987E02401F508A3E011
:102A80003400F509E4F50AF50B780C7908121621E3
:102A900090819578081217E7780C7908121621AA08
:102AA0000CAB0DAC0EAD0F1225807402121951EA59
:102AB0004B60047A0180027A00EC2AFCE43DFD744C
:102AC00013121987E0F8A3E0F9E8FEE9FFECF8ED4E
:102AD000F97A717B021218B088088909E4F50AF5C1
:102AE0000B8E828F8378081217F6ECF8EDF97A7165
:102AF0007B021218B08A088B09740578081219280D
:102B00008E828F83A3A3A3A3E508F0A3E509F07F3A
:102B100008021AC3C082C083E9906000F0D083D05D
:102B20008222C0E074F2121B03A2AFE433FED2AFE4
:102B3000E589A2E04006E589A2E1500312133F7542
:102B40008900758900C2C5751A00EEA2E092AF7FB8
:102B500001021B62C0E0C0D0E8C0E0A8A8D2AFC2AA
:102B6000C7751A00E8A2E792AFD0E0F8D0D0D0E065
:072B700032C2AF0200002297
:102B7800FFFFFFFFFFFFFFFFC082C083E990161829
:102B8800F0D083D08202013274F61219ABE99002B8
:102B9800E8F0900348E0F508750900740278081217
:102BA8001928AA08AB0912147D9002E91230646052
:102BB8006E900348E075F003A4FAABF012147D9010
:102BC8000306123064700B9002E91238A8121483BD
:102BD800804D9003061248117AFF7BFF1212B57AD6
:102BE80000801EEAF5087509007402780812192891
:102BF8001242AD74FFF0A3124825A3A3E4F0A3F09A
:102C08000A900348E0F8EAC39840D8790512096D9C
:102C18009002E8E0F91208597AF77B09120BE302EF
:102C2800434974F41219AB8A088B09EB5480604746
:102C38009002E8E0F91213F38A0A8B0BAE0AAF0B85
:102C4800EA4F602A8A828B83E064B0701A12097F87
:102C5800E960148E828F83A3A3A3A3E0F9EE240571
:102C6800FAE43FFB12094FEEFAEFFB1213E1AA0850
:102C7800E5096480FB80047A007B00022E9274F2DE
:102C88001219AB74FB12193BEAFEEBFFEA4F6043E3
:102C98007403121987123511851882851983ECF08F
:102CA800A3EDF07402121987E9F0AA18AB191208FB
:102CB80053E9F50870777413121987E0F50AA3E051
:102CC800F50BE50A450B60658E828F831232A5EEFF
:102CD8004F700575080280557A067B0012147D8AAC
:102CE8000C8B0DA80CA90DEA497005750813803DD9
:102CF8008A828B83E4F0122D3CA3EEF0A3EF124AF4
:102D0800EAE50AF0A3E50BF09002EC122E569002C9
:102D1800EC6017E0FCA3E08003EAFCEBFD8C828DFD
:102D280083122E5670F38C828D83123ECDA90874BF
:102D380005024A83A3F08A828B83A32274F21219B4
:102D4800AB8908E9F50C750D007403780C12192885
:102D5800850C0A850D0B9002EBF09002E91247F6FC
:102D6800122E54602F1214837900801EE9F50C7519
:102D78000D007402780C1219289002E91241668835
:102D880082F583A3A3E4F0A3F009900348E0F8E9EF
:102D9800C39840D8900348E0FA850AF0A4CAA8F07E
:102DA800850BF0A428FB12147D8A0C8B0DAE0CAF9A
:102DB8000DEA4F7003022E4A900348E0FC850AF0A2
:102DC800A4CCA8F0850BF0A428FD79001213CF7CC1
:102DD800008032EDF50C750D007403780C1219287B
:102DE8008A828B83122E4F8882F583E4F0122E5C40
:102DF800A3A3F0A3F00DEDC3950840D7EE250AFE76
:102E0800EF350BFF0C900348E0F8ECC3985029EC21
:102E1800F50C750D007402780C1219289002E9124D
:102E28002E4FE82402500109FAE9FB8A82F583EE65
:102E3800F0A3EFF07D0080BEE5089002EBF079008A
:102E480080027913024A8612416AF922A3A3123535
:102E580029EA4B22A3F088828983A3A3A3A322741F
:102E6800F41219AB7900EAA2E0501F75085E7509E3
:102E7800817808121BBE79107C047D007A1A7B16B3
:102E88001209677402121951E9F97F04021A7DC008
:102E980082C0839002EC12426C601C88828983A3F2
:102EA800A3E06A7003A3E06B8882898370E8A3A318
:102EB800A3A31238A880047A007B00022B8974F23D
:102EC8001219AB74FD12193BEAFEEBFF85188285D7
:102ED8001983E4F0A3F074021219877401F09002C8
:102EE800EF12426C7011120B1D12147D9002EF123A
:102EF800306470030230581235FEEE2404F50AE4FB
:102F08003FF50B850A82F583E024FE603C24FC60D3
:102F18007424FE607E24FE7003022FA824FE700332
:102F2800022FB524FE7003022FC224FE7003022F65
:102F3800CF24FE7003022FDC24FC7003022FFD2433
:102F4800FE7003023015023051120B1D9002F1EA97
:102F5800F0A3EB12306D1205A1E960030230519025
:102F680002F1121BD58E828F83A3A3A3A3A31248B9
:102F7800118508828509831238A81209377402124C
:102F88001951023051AC18AD19EEFAEFFB12098550
:102F9800023020AC18AD19EEFAEFFB12098B8078DD
:102FA800AC18AD19EEFAEFFB120991806BAC18ADB5
:102FB80019EEFAEFFB120997805EAC18AD19EEFA1C
:102FC800EFFB12099D8051AC18AD19EEFAEFFB1218
:102FD80009A380447402121991880C890D780C1287
:102FE8001BBE74021219A1EEFAEFFB1209A97402B2
:102FF8001219518023AC18AD19EEFAEFFB1209AF84
:10300800E9F870167402121987E4F0803CAC18AD28
:1030180019EEFAEFFB1209B5E9F8E8602C8E828FF9
:1030280083A3E064146022850A82850B83E0900202
:10303800F1F08518828519831238A89002F21235AA
:1030480011E8A312306D12059BEEFAEFFB12090D81
:103058007402121987E0F97403024A83EAF0A3EBB9
:10306800F0F9EA4922F07CF17D028508828509831E
:103078001235292274E81219AB74FA12193B740438
:10308800121987ECF0A3EDF08A128B13EA2405F5E8
:103098000EE43513F50FEA2402F510E43513F511A3
:1030A800851082123B4F7508007C037D0079007AF9
:1030B800F17B021213CFE50E2402F516E4350FF565
:1030C800177402121991880C890D780C121BBE8591
:1030D8000E82850F83A3A3A3A3E0F50C750D0078DA
:1030E8000C121BBEE50E2405F50CE4350FF50D7822
:1030F8000C121BBE851682851783123B9712195135
:103108008A0C8B0DE50C450D700302327480208506
:103118001882851983E088828983F00508851882DA
:10312800851983A3E0C0E01232AFD0E0F00508E5CE
:103138000A24FBF8E50B34FFF9C3E50898E4994045
:10314800030232747E007F00851282851383A3A355
:10315800A3A3E0F5097809121BC2E4F514F5157864
:1031680014121BBE7514EE7515027814121BBE904E
:1031780002EF121BD57409121987121BD5E50A2410
:10318800F9F9AC0CAD0D123BA9121951E960030213
:10319800321B850E82850F83A3A3A3A3A3A3A3E059
:1031A800F89002EEE068706BE0F5148E1578141252
:1031B8001BBE12480E850E82850F83A3A3A3A3A36B
:1031C800A3A3A31238A81213C97402121951E960F3
:1031D800421242697034E4F5147814121BBE7CFF65
:1031E8007DFF7907123BB81219518B15A9151232B8
:1031F800C47017850E82850F8312499D74041219B5
:1032080087124256123BCA0232A2850C82850D8370
:103218001232A5A818A919881489157814121BBE8A
:103228007404121987121BD5851682851783123BE1
:10323800791219518A0C8B0DEE4F700302310C1262
:1032480032AFEE1232BA123B60EF1232BAF8A3E094
:103258003400F9E50C4B60030231178882898374C6
:10326800FFF005081232AF74FFF00508E508601496
:103278001313543F1235171205ADE9600312417D4F
:1032880079008016850E82850F8312499D74041279
:103298001987124256123ECD790A023B30A3A3A3E6
:1032A800A3E0FEA3E0FF22A8089002F2E028123B68
:1032B8006022F00508089002F2E028229002F2EA63
:1032C800F0A3EBF0EA492274E81219AB74FA121968
:1032D8003B74021219871235117404121987ECF025
:1032E800A3EDF07402121987E02405123B3AF58326
:1032F800E0F50CA3E0F50D7402121987E02402F53D
:1033080010A3E03400F5118510821238AC7508005E
:10331800750900EA24FCFEEB34FFFF8008050CE584
:103328000C7002050DA808C3EE98EF940050030234
:1033380034C2A818A919880E890F780E121BBE85E9
:103348001482851583A3A3A3A31247ED121BBEE520
:10335800142405F50EE43515F50F780E121BBE85FD
:103368001482851583A3A3124811AA0CAB0D120869
:103378007174061219518A0E8B0FEA4B70030234CE
:10338800C2EA2404F516E4350FF517851682F5838D
:10339800E0F50CA3E0F50D851882851983121BD57D
:1033A800AC0EAD0F851082851183123B4612195160
:1033B800E9F50960030234C27402121987123B70DE
:1033C800F5097809121BC2E4F512F5137812121BDD
:1033D800BE7512EE7513027812121BBE9002EF1220
:1033E8001BD57407121987121BD5EEF9AC0EAD0F59
:1033F800123BA9121951E9F50960030234C2E50824
:10340800703BE4F50EF50F780E121BBE7CFF7DFFB6
:103418007909123BB81219518B0FA90F9002F312B8
:1034280032C7700D740412198712350479110234E9
:10343800F39002EEE024029002F2F080149002F27F
:10344800E0FA9002EEE0790024025001096A49701E
:103458006DA8089002EEE0FAE82AFAE43400FBEEE0
:103468009AEF9B4055851682851783E0C0E090024D
:10347800F31232B4D0E0F00508851682851783A3CD
:10348800E0C0E0089002F31232B4D0E0F0050890F2
:1034980002EE1247ED121BBE12480EA8081234F6AF
:1034A8001219519002EEE02508F50874FF650C70BA
:1034B8000474FF650D6003023325E508601C900263
:1034C800F2E0F5F0E508841235171205B3E9600655
:1034D8009002F312418079008011E50970037509A3
:1034E8000A7404121987123504A909023B309002A4
:1034F800F3E028FAA3E034001247CB221247FAE59A
:103508000CF0A3E50DF022A3A3EAF0A3EBF02290C0
:1035180002F1F07CF17D0285108285118312352934
:1035280022123EBDFB2274EC1219AB74FC12193B3B
:10353800123FDD74021219A1850A82850B831236A7
:10354800FD70030235EE1235FEA818A919881089F6
:10355800117810121BBE7CFF7DFF790B85088285D0
:103568000983123BBE121951123608700B850A8264
:10357800850B83123BC7807B8E828F83A3A3A3A373
:10358800E0F5127812121BC2E4F512F51378121244
:103598001BBE7512F17513027812121BBE78101239
:1035A8001BBE7409121987121BD5740912198712C8
:1035B80036F6850882850983123BAF121951E9FE58
:1035C80070157CF17D028508828509831238A8125E
:1035D80005B9E97009801A74166E70027E001241EE
:1035E8007DEE7004800B7E01850A82850B83123E76
:1035F800CAEEF9023EDFEE2402F508E43FF509229F
:103608008A108B119002F2EAF0A3EBF0EA4B2274D5
:10361800EC1219AB74FC12193BEAFEEBFF8C0E8D11
:103628000FEA2405F508E43FF50974021219A1858B
:1036380008828509831236FD70030236E6EE2402FD
:10364800F50AE43FF50BA818A91988108911781014
:10365800121BBE7CFF7DFF790D850A82850B8312C4
:103668003BBE121951123608700B850882850983F2
:10367800123BC780768E828F83A3A3A3A3E0F512A3
:103688007812121BC2850882850983A3A3121BD551
:103698007512F17513027812121BBE7810121BBE38
:1036A8007409121987121BD574091219871236F674
:1036B800850A82850B83123BAF121951E9FE700F00
:1036C8007CF17D021238A21205BFE97009801A74D4
:1036D800166E70027E0012417DEE7004800B7E0132
:1036E800850882850983123ECAEEF9023EDFE0F9B9
:1036F800AC0CAD0D22123EB58A0C8B0DEA4B227430
:10370800E81219AB74FE12193B8A168B178C148DAC
:1037180015EA2405F50CE43517F50DEA2402F50E33
:10372800E43517F50F850E821238AC8A088B0975B7
:103738000B007C037D0079007AF17B021213CF75B0
:103748000A00E50814F5100424FFF508E50934FF1C
:10375800F509804C9002F1E0FA9002EEE0F8EA28D0
:10376800F8E43400F9E50898E50999500D9002F15C
:10377800E0F8E510C3989002EEF0E0F5127513003A
:103788007812121BBE12480E9002F2E02A1234FB85
:103798001219519002EEE0F89002F1E028F0050AC3
:1037A800850C82850D83A3A31241764003023887D6
:1037B8009002F1E0C39508E495094003023887AE0A
:1037C8000AEE2EFEE433FF1238C9AC18AD191248C0
:1037D8001BE439FB1208778A128B13AC12AD13EA7B
:1037E8004D701B750B011238BA123ECE9002F212C0
:1037F8002E56600312143BA90B7402023B32851645
:1038080082851783A3A3A3A3E0F50B780B121BC231
:10381800E4F512F5137812121BBE7512EE75130239
:103828007812121BBE9002EF121BD574071219876B
:10383800121BD5A910850E82850F83123BAF121972
:1038480051E9F50B70A0124269600302375CE4F598
:1038580012F5137812121BBE7CFF7DFF790F850EBF
:1038680082850F83123BBE1219518B13A913123292
:10387800C4600302375C1238BA123BCB0238017CB1
:10388800F17D02850E82850F831238A81205C5E9DD
:1038980060030237F47900023801850A82850B83B8
:1038A800123529221238B022F583123EBDFB1206CA
:1038B80091221238C9123EBDF9EA85148285158312
:1038C80022850C82850D83E02EF8A3E03F8882F5DF
:1038D800832274E81219AB74FA12193B7404121992
:1038E800871235118C168D177404121987E0240578
:1038F800F50EA3E03400F50F7404121987E02402D2
:10390800123B3A123B4F7F007E00A818A91988087D
:1039180089097808121BBE850E82850F83A3A3A38D
:10392800A3E0F5088F097808121BBEE50E2405F5FB
:1039380008E4350FF5097808121BBE850E82850F3D
:1039480083A3A3123B971219518A0C8B0D80241262
:103958003B6AF00F123B6AF00F9002EE123EA01283
:103968001BBE12480EEFF81234F61219519002EEEF
:10397800E02FFFE50C450D607A85188285198312C2
:103988001BD5AC0CAD0D851482851583123B4612F0
:103998001951E9FEE50C2404F510E4350DF511E99B
:1039A800704B7404121987123B70F5087808121BC3
:1039B800C2E4F508F5097808121BBE7508EE75090A
:1039C800027808121BBE9002EF121BD57407121959
:1039D80087121BD5E50A24FAF9AC0CAD0D851482C3
:1039E800851583123BAF121951E9FE6036123B86EA
:1039F800123ECDEF7003023B1D9002F2E0F5F0EFAE
:103A0800849002F1F07CF17D028514828515831281
:103A180038A81205CBE960069002F31241807900BC
:103A2800023B30EFF508703DE4F512F513781212F9
:103A38001BBE7CFF7DFF7911851482851583123B9F
:103A4800BE1219518B13A9139002F31232C77009D1
:103A5800123B86123BCA023B309002EEE0240490EF
:103A680002F2F080359002EEE0F89002F2E0FCE815
:103A78002404FAE43400FBEA6C4B6003023A01E5E3
:103A88000A24FAFAE50B34FFFBE50828F8E43400C9
:103A9800F9EA98EB995003023A018510828511835F
:103AA800E0C0E09002F3E02FF8A3E034008882F54C
:103AB80083D0E0F00F851082851183A3E0C0E01267
:103AC8003B57D0E0F00F74021219918808890978E1
:103AD80008121BBE7402121987121BD5850E828527
:103AE8000F83A3A3123B791219518A0C8B0DEA4B51
:103AF80070030239577402121987E0C0E0123B576D
:103B0800D0E0F00F7402121987A3E0C0E0123B570F
:103B1800D0E002395FEE70027E0A850E82850F833F
:103B2800123B8C123ECDEEF974061219517F100229
:103B38001A7DF514A3E03400F51585148222123598
:103B48002912085F7402221238B08A0A8B0B2212DB
:103B58003B5B229002F3E02FFAA3E034008A82F55F
:103B68008322123B5B74FF221247FAA3A3A3A3E0AC
:103B780022124815AA0CAB0D12087D740422851078
:103B8800828511831249A3F985168285178322122B
:103B98004815850E82850F8312352912087174061F
:103BA800228510828511831235291209DF740922B2
:103BB800851082851183123529120949740222124F
:103BC8003ED3E8F0A3E9F079112274EA1219AB7434
:103BD800FE12193B8A088B098C128D13EA2405FE04
:103BE800E43509FF123EA98A0C8B0DEE2406F50E6A
:103BF800E43FF50FEA4B7003023CB8E5082402F5F0
:103C08000AE43509F50B8A828B83A3A3A3E0A2E516
:103C18005022123CE28A108B11EA4B60247912ACD4
:103C28000CAD0D1238A28510828511831219A9E9ED
:103C3800F50C707F850E82850F83E06009795280CC
:103C480011750C0E806D850882850983A3A3A3A333
:103C5800E0F9E4F508F5097808121BBE8E828F8317
:103C6800A3A3E0F5087808121BBE8E828F83A3A356
:103C7800A3121BD58E828F83124811850A82850B69
:103C880083123FEF121951E9F50C7011850E8285E8
:103C98000F83E0702C1238A21205D18024741669A3
:103CA8007011750C0074181219871247F6E4801009
:103CB800750C01124999851282851383E8F0A3E9EE
:103CC800F0850E82850F83E0600479008002A90CDC
:103CD80074021219517F0E021A7D85188285198384
:103CE8001235291209D32274EC1219AB74F7121980
:103CF8003B8A0A8B0B8C108D11EA2405FEE4350BE8
:103D0800FF750C00123EA98A088B09EA4B70030262
:103D18003E8BE50A2402F50A5002050B8A828B8342
:103D2800A3A3A3E0A2E55025123CE28A0C8B0DEA7E
:103D38004B604F7912AC08AD091238A2850C828508
:103D48000D831219A9E9F50C6003023E8E850A82DB
:103D5800850B83E0F508A3E0F509AA08FB1209C75B
:103D6800EA4B70197AFF7BFF1209C7EA4B7003020E
:103D78003E818A828B83E508F0A3E509F075080087
:103D88008008750C0E023E8E05089002EBE0F8E5FF
:103D980008C3984003023E81E508F50E750F0074CC
:103DA80003780E1219288A828B83A3A3E0250EF8C4
:103DB800A3E0350F12425E70CF8E828F83123EC20F
:103DC8001235118E828F83A3A3123EC212350FEED5
:103DD8002404F508E43FF509850882F583E0888224
:103DE8008983A3A3A3A3F0A3E4F0EE2405F50EE4CE
:103DF8003FF50F850E82F583123EC2A3A3A3A3123B
:103E0800350F7512077513007812121BBEEEFCEF02
:103E1800FD74041219991247CC121951E4F512785D
:103E280012121BBE850882850983E0FC7D00791784
:103E3800850A82850B83123BBE1219517407121929
:103E48008712360F6038850882850983123EA012D2
:103E58001BBE850E82850F831248111247CC12199A
:103E68005174021219A11238A21205D7E9602374FD
:103E7800071219871241808019750C098008750C82
:103E8800118003750C0112499985108285118312DE
:103E98003ECDA90C74098041E0F508750900780841
:103EA80022AC18AD198E82F583123EB522123EBDA2
:103EB800FB12087722E0FAA3E022123529888289CA
:103EC8008322123ED3E8F0A3E9F022E0F8A3E0F958
:103ED800850E82850F832274041219517F0C021AF1
:103EE8007D74EC1219AB123FDD751000EA2402F55F
:103EF8000CE43FF50D850C82F5831238A81209C72A
:103F08008A088B09EA4B7003023FC1850A82850B38
:103F180083E064016003023FB6AC08AD09AA0AABAE
:103F28000B1209BBE9606F8508828509831232A7E5
:103F3800EE2406F50AE43FF50B8E828F83A3A312C5
:103F48001BD58E828F83A3A3A3A3121BD5850A82B8
:103F5800850B83121BD579188E828F8312481185A1
:103F68000C82850D83123FEF121951E9F874166817
:103F7800700B850A82850B83E4F0A38014E9601234
:103F88008E828F831238A8850E82850F83EAF0A36C
:103F9800EBF089108018780E121BBEAC08AD09EE44
:103FA800FAEFFB1209C17402121951E9F510AA08B7
:103FB800AB091209CDE510700E850C82850D8312B0
:103FC80038A81205DD800974166510700375100095
:103FD800A910023EE4EAFEEBFF8C0E8D0FEA2405E1
:103FE800F50AE43FF50B221235291209E574062279
:103FF80074EA1219AB7508007509007E007F007518
:104008000A00EC2402F510E43DF5118035EC650852
:104018007003ED650960030240AD88828983A3A31C
:10402800E06A7003A3E06B707C88828983A3A3A3F2
:10403800A312499DEE28FEEF39FFEA28FAEB39FB77
:10404800050A124173503BE50AF50C750D0074031F
:10405800780C121928851082851183124166124244
:104068005E601FE508450970A48C088D098882895F
:10407800831232A588828983A3A3E02EFAA3E03FA6
:1040880080BDE50AC39402500302416175080075BA
:104098000900EE4F600FEEFAEFFB1214358A0E8B13
:1040A8000FEA4B70057900024163750B00807FE5CC
:1040B8000BF50C750D007403780C12192885108205
:1040C800851183E0250CF50CA3E0350DF50DE50C05
:1040D8002406F514E4350DF5158514821242616045
:1040E8003AE50C2404F512E4350DF513851282F532
:1040F80083121BD5E50E2508FAE50F1247C51219DC
:1041080051851282851383E02508F508A3E0350957
:10411800F509851482851583124180E50B600D7CB5
:10412800087D007900AA0CAB0D1213CF050BE50B27
:10413800C3950A50030240B785108285118312493E
:104148009D8882F583A3A3A3A3A3A3E50EF0A3E50B
:104158000F122E5DEEF0A3EFF07901023CDD124163
:104168006A22E0250CF8A3E0350D229002EBE0F876
:10417800E50AC398229002F212352912143B2274E0
:10418800F01219AB8A0E8B0F8C0A8D0B750D00750A
:104198000C00804A7916EE2406F508E43FF5098EEE
:1041A800828F83A3A3121BD58E828F83A3A3A3A37D
:1041B800121BD5850882850983121BD5850E828539
:1041C8000F83A3A3123FEF121951E9F50D74166975
:1041D8007064850882850983E4F0A3F0050C9002D9
:1041E800EBE0F8E50CC398505EAA0C7B008A088BBC
:1041F8000974037808121928850A82850B83A3A3FA
:104208001242B8E8FEE9FF12425F603BEA24010A65
:1042180050010B9002EBE06A7001EB601488828910
:1042280083A3A3A3A3A3A3A3A312426C6003024185
:104238009C791802419EE960A312499974101219D9
:1042480087124256123ECDA90D7F08021A7D123EF2
:10425800BDF5838A8222F98882F583124815EC4DD0
:10426800229002F21249A3F9E8492274F61219AB16
:104278007C0080010C900348E0F8ECC398501FECD8
:10428800F508750900740278081219281242ADE081
:104298006A7003A3E06B70DCE8FAE9FB80047A003B
:1042A8007B000243499002E91242B88882F58322D2
:1042B800E02508F8A3E03509F92274F21219AB8A4F
:1042C800088B09750A0080278E828F83A3A3A3A376
:1042D800122E54600312143B7C087D007900EEFA1C
:1042E800EFFB1213CF8E828F83E4F0A3F0050A123E
:1042F80041735028E50AF50C750D007403780C120B
:104308001928850882850983A3A3E0250CFEA3E06C
:10431800350DFF8E82F58312426C70AC850882855C
:10432800098374FFF0A3F0024A8674F61219AB12DF
:10433800493A70067A007B008007A3A3A3A312382A
:10434800A87F02021A7D74F61219ABE9FE8C828DE1
:1043580083E06402703D12492AF508A3E0F9A80831
:104368007402687003742969702975080275090058
:104378007808121BBE740E121987121BD5740E1200
:104388001987121BD5EEF91212C77406121951E9D2
:10439800F98002790180AA74E81219AB74FB12192A
:1043A8003BE9851882851983F08A168B17ECFEED98
:1043B800FF7510008C82F583A3A3A3E0A2E4502A22
:1043C800741D121987123CE88A828B83E582458323
:1043D80070030247BB790AEEFCEFFDAA16AB171271
:1043E80019A9E9F51060030247BE741F121987E086
:1043F800F508A3E0F5097421121987E0F50AA3E08E
:10440800F50B7423121987E0F50EA3E0F50F8E82E1
:104418008F83E064026003024767A312499D850801
:1044280082850983A3858212858313EE2406F50C01
:10443800E43FF50D8882898312481BF514E439F5A9
:10444800157814121C48010000280128764407003A
:10445800022842450328AB440029634601298E46B9
:1044680002292C4603296346042904476747E50EB9
:10447800450F6003024762850C82850D8312499DB2
:10448800E8FAE98882F583E0850A82850B83124879
:10449800251247D2121BBE8A828983A3E0FCA3E0BF
:1044A8000246F0E50E450F6003024762850A8285E1
:1044B8000B837401F0124803850882850983F07C18
:1044C800007D008E828F83A3A3A3A3E02401FAA317
:1044D800E03400FB120877EA4B60458A828B83E060
:1044E8002402F8850A82850B83E028F0EA2404F880
:1044F800E43BF98882F583E08512828513831248AC
:104508002BF08A828B831247D2121BBE8A828B833E
:10451800A3124811E5082403FAE43509FB0246F51D
:10452800850A82850B83E02404F07C047D007900F1
:10453800AA12AB131213CF0247BEE50E450F600354
:10454800024762124803FEA3E0FF850A82850B83B7
:104558007404F0EE850882850983F0EF8512828560
:104568001383F074031219A112491C700302460D3B
:104578008A828B83A3A31232A57401121991880E23
:10458800890F780E121BBE7405121987121BD57C71
:10459800FF7DFF12087D7404121951EA4B703385B0
:1045A8000C82850D831247ED121BBE850C82850D8A
:1045B80083A3121BD57C027D007A137B8212067FAF
:1045C8007404121951E9700A740112198774FFF002
:1045D800A3F08E828F83E064027034750C02750D2F
:1045E80000780C121BBE8E828F83A3124811E50837
:1045F8002404FAE41247C5121951850A82850B83EF
:10460800E0240280097401121987EEF0A3EFF07418
:10461800011219871247E3F07401121987A3124790
:10462800DB02475CE50E450F6003024762850C829A
:10463800850D831247F6124811AA16AB171212CD30
:10464800850A82850B837402F0850882850983EACE
:10465800F0851282851383EB02475FE50E450F60F4
:1046680003024762124803F8A3E0F9850A82850B22
:10467800837402F0E8850882850983F0E98512824F
:1046880085138302475F850C82850D831238A81233
:1046980013B1EAF8C3950EE4950F405AEA650E4542
:1046A8000F700478008021851882851983E0FCE565
:1046B8000E2CFCE4350FFDC3EC9AED94005003E09A
:1046C8008005E50EC8C398F8E8850A82850B83F053
:1046D800F50A750B00780A121BBE850C82850D83BE
:1046E800E0250EFCA3E0350FFDAA08AB091247CC64
:1046F8001219510247BE7510070247BEE50E450F55
:104708007058850C82850D8312499D850A82850B18
:104718008374071248251247DB124825A3E0851247
:1047280082851383F0E82402FAE439FB8A82F58350
:104738001247DBA3122D3C1247E3122E5C1247E707
:10474800F0E82405F8500109F58289831247E7A3A8
:1047580012482BA3A3A3A3F0805C75100B80577499
:104768001D121987124933604A1249A3880CF50DA6
:10477800E8450D603E7425121987E0F5107810128F
:104788001BC2780E121BBE780A121BBE7808121BB9
:10479800BE7407121987E0F9EEFCEFFDAA16AB17F5
:1047A800850C82850D831219A97407121951E9F530
:1047B80010800375100EA9107405023B32350912DA
:1047C80047CB22FB1213B7740222E0F50A750B00DF
:1047D800780A22E085088285098322124835221248
:1047E8004835A3A322E0F50E750F00780E22124774
:1047F800FA22E0F8A3E0F583888222850C82850DF1
:10480800831247FAE0229002EF12481522E0FCA337
:10481800E0FD22123EBDF8E4C8F9EA2822F08882B9
:10482800898322F088828983A312483522E085088B
:1048380082850983A3A32274EE1219AB74FE1219A0
:104848003B8A088B09ECFEEDFF890AAC18AD1912FA
:10485800491C700302490D85188285198312493352
:104868007003024908A31249A2880EF50FE8450F04
:1048780070030249087414121987E0F510A3E0F5D3
:1048880011E50AF50B780B121BC27419121987125D
:104898001BD57810121BBE741B1219871236F6AA84
:1048A80008AB09850E82850F831219A974051219A0
:1048B80051E9F50B705274FE650A604C850C8285CF
:1048C8000D83E06402704112492AFAA3E0F9EAF87C
:1048D8007402687003742969702E851082851183AB
:1048E80012481BF50CE439F50D780C121BBEEEFCD2
:1048F800EFFDAA08AB091209FD74021219518008CC
:10490800750B0E8003750B01A90B74021219517FE8
:104918000A021A7DEEFAEFFB1208778A0C8B0DEA71
:104928004B221249A28882F583E0221235291249C6
:104938003A221209798A828B83E58245832274F6AA
:104948001219AB74FE12193B740C12198712499D87
:10495800E8851882851983F07401121987E9F0E453
:10496800F508F5097808121BBE7508027808121BAD
:10497800BE7404121991880889097808121BBE7937
:10498800FE1209E5740612195174021219510243F4
:10499800498E828F831249A3F922A3E0F8A3E0226B
:1049A80074F71219ABEAFEEBFF8908900306124868
:1049B800111212CDEA5402600BA908EEFAEFFB12AD
:1049C800086B800279017F01021A7D74F21219AB1B
:1049D80074FE12193BEAFEEBFF740169601374025E
:1049E800696003024A817901120C01E96003024AF5
:1049F80081EEFAEFFB1209C7EA4B60031209CDA852
:104A080018A919880889097808121BBE7508027543
:104A180009007808121BBE750819750982780812F2
:104A28001BBE7CFF7DFF7A017B00120871740612A1
:104A38001951803B850882850983A3A3A3A3A3A357
:104A48001247F6124811EEFAEFFB1212B5E4F50C14
:104A5800F50D780C121BBE7402121987121BD57C37
:104A6800FF7DFFAA08AB0912087D74041219518A48
:104A7800088B09E508450970BB74021219517F06B5
:104A8800021A7D74F41219AB8A088B09ECFEEDFF4B
:104A9800901618E0F460487A097B001213DBEA4BA1
:104AA800603D8A828B8374B1F0A3E4124AEA122D26
:104AB8003DA3E508F0A3E509124AEAA3EEF0A3EF47
:104AC800F0740C12198712499D8A828B83A3A3A3C1
:104AD800A3A3A3A3123ECD901618E0F91213E70280
:104AE8002E92F08A828B83A3A3A3A322C082C083C1
:104AF8009061907404F0A37448F0A37402F090617C
:104B0800807440F09061BC7403F09061877419F070
:104B1800906265741BF0906249E0C3941390619CA5
:104B280040107409F09060667401F090619F7428D9
:104B3800800D740BF0906066E4F090619F742CF027
:104B4800124CD97009C29190037A7467800590035A
:104B58007A7461F0902B7EE493906186F0902B78C4
:104B6800E493F46006E493F9120CF77905120FCD7B
:104B7800024F42C082C083E9540FF9906185E06911
:104B88006012E5C654B84441F5C6E59E54476441F1
:104B980070F8E9F053C6B8E59E544770FA024F42E0
:104BA800C082C083A8A853A87E906181E41259B737
:104BB800C2BA539AFEC289759B00C2C275E90075D4
:104BC800910075BF0075A91175B905906181F0A3B1
:104BD80074C012613BD2BA439A0174805842A80249
:104BE8004F42C082C08374F812193B900378126355
:104BF800D07003024CBA900378E0544060177908EB
:104C0800AA18AB19120DF3AA18AB19120A69900366
:104C180078E054BFF0E054806010790C7A477B0547
:104C2800120DF3900378E0547FF0E0A2E0501912DF
:104C38004CD97009C29190037A7467800590037A01
:104C48007461124CC254FEF0E054026019124D1EF9
:104C58007009D29190037A7471800590037A746A0E
:104C6800124CC254FDF0E054046009902B7C124CA5
:104C7800CB54FBF0E054086009902B7D124CCB54C8
:104C8800F7F0E054106009902B7E124CCB54EFF0F3
:104C9800E05420600A120A75900378E054DFF0A30C
:104CA800E05401600D120D15120A7B900379E0544F
:104CB800FEF07408121951024F42F0120A6F900365
:104CC80078E022E493906186F0120A75900378E008
:104CD8002290619A124F16900521E0640122C08249
:104CE800C083E960051460178029124CD97009C285
:104CF8009190037A7467801A90037A746180131212
:104D08004D1E7009D29190037A7471800590037AD0
:104D1800746AF0024F4290619A124F08900521E0A0
:104D280064012274EA1219AB74F412193B9081BD24
:104D3800AC18AD19740412184E902B7C93F46003D0
:104D4800024E9D907808E0C394025003024E819071
:104D5800813074041219A1740812184EA818A919E0
:104D680088148915740412199188088909AE08AF46
:104D7800097510FF7511FF750EFF7C00750C4875DD
:104D88000D78801274086C7003024E1674096C60FA
:104D98007D740A6C6078850C82850D8378081217FB
:104DA800E78E828F83A909E50AC9F5127418780875
:104DB800121710E5124508F8C3E098A3E099850C8E
:104DC80082850D8378081217E740188E828F8374C6
:104DD800187808121710E5124508F8E0C398F8A3E8
:104DE800E0801A74187808121710E5124508FAE9D5
:104DF800FB8E828F8312604FEAC398F8EB99F9C350
:104E0800E89510E995115006881089118C0E0CE56B
:104E18000C2404F50C5002050DECC3941350030246
:104E28004D8C74FF6510700474FF65116025E50EE4
:104E3800F5087402780812192874482508F5827450
:104E4800783509F58378081217E785148285158364
:104E5800E508F0EE2402FE50010F851482851583C3
:104E6800A3858214858315740C121987E5826E70E8
:104E780003E5836F6003024D7975080175090078B1
:104E880008121BBE74021219A17ADF7B0A12131BC7
:104E98007402121951740C1219517F0E021A7DC036
:104EA80082C0839061AE7468F0A3746AF090624522
:104EB80074FBF0A304F053F4FD43FE029005217443
:104EC80001F09061A0E0643A90619A7019124F164F
:104ED800740164017009C29190037A7467801E900E
:104EE800037A74618017124F08740164017009D243
:104EF8009190037A7471800590037A746A02513133
:104F0800743FF0A3745AF09061A0747FF022743358
:104F1800F0A37455F09061A0743AF022C082C08367
:104F28009004D3E06401700A9004D8E06004790C1E
:104F3800800279008004A2E092AFD083D08202017F
:104F480032C082C08375E1F19004D6E060531460EA
:104F58000914605714604F147056120D279004C539
:104F6800E0F97AC67B04120F4F9081A1121805123E
:104F78000F859081B9121805120F5B9004D7E0F9DC
:104F8800120F677901120FC19004C312529F241A9D
:104F9800F582E438F583743FF0A3740DF07900804E
:104FA80099120D2D80B7120D3380B2120D3980ADD4
:104FB800791280EB74F41219AB75D90D9004CCE01A
:104FC800A2E0E4331313F812518C484401F5D97563
:104FD80082C67583041251967004E583640470F5E3
:104FE8007582CD7583041252F8E58264D37004E5A6
:104FF80083640470F175E1959004CCE0F97ACD7B77
:1050080004120F5590163C74CDF0A3740C1250E0A6
:1050180012511E1251151252679004D6E064019085
:1050280004C3700B1250711217E79081998009120E
:1050380050711217E7908191780812175B90818D53
:1050480078081217C19004C3125F4BE438F58378CF
:10505800081217F69004C312529F12510C7413F0E1
:105068009003767402F002603C126358A3A3780898
:1050780022C082C08312517CF5D97582C67583041B
:105088001251967004E583640470F59004DCE060C6
:105098000A78C37904FA125230DAFB12521F1251FD
:1050A800967004E583640470F59004FCE0600D7864
:1050B800C37904FAE8243A125233DAF875E1959084
:1050C800163C74D9F0A3740C1250E01250EA741212
:1050D800F09003767401805112525074D3F0A37487
:1050E8000C2212511E12511512526B9004C3125FFA
:1050F8004FE438F58374FF1259A59004C31252A3E4
:1051080012510C222414F582E438F58322F0A3749A
:10511800EBF0A3740C221251222212512622F0A382
:105128007453F0A3740E22F0A3F0024F42C082C061
:105138008312517C4402F5D97582C67583041251D5
:10514800967004E583640470F59004DCE0600A78E6
:10515800C37904FA125230DAFB75E19590163C12C5
:10516800519FF0A312519F1250ED7414F0900376E2
:10517800740480B59004DC12518322E02407F5D929
:1051880012518C229004C5E0C4333354C022E0F598
:10519800D9A3E58264CC2274E51251AC1251ACF06B
:1051A800A3740C22F0A3740CF0A374E522C082C08F
:1051B8008312517C4406F5D97582C6758304125151
:1051C800967004E583640470F59004DCE0600A7866
:1051D800C37904FA125230DAFB12521F1251967038
:1051E80004E583640470F59004FCE0600D78C379ED
:1051F80004FAE8243A125233DAF875E19590163C2D
:1052080074DFF0A3740C1252461250EA7415F09031
:10521800037674030251319004FC1251834404F55F
:10522800D97582C675830422E8241AF582E439F513
:1052380083E0F5D988828983A3A882A983221252A0
:10524800507453F0A3740E221252542212526174F5
:1052580053F0A3740E12526122125126F0A32212A7
:10526800526B22F090164A7453F0A3740E125254E3
:105278007453F0A3740E125122F022C082C083909E
:1052880004C312529F2406F582E438F583E40251E0
:105298002F8518828519831252A322E0F8A3E0C84B
:1052A8002274F71219AB9003A412604174A628F86F
:1052B800740339F9E82405FAE439FB8A821261217A
:1052C800A3A3A3A3A3A3A3A3A31263B7A3A3A3A363
:1052D800A3A3A3E024FFF8A3E034FFF98A828B8319
:1052E8001263890254DD7C017903120E477402228D
:1052F800E0F5D9A3221256183BF583E022F0EA2400
:1053080084F582E43BF583E022EAF8EE28F8E43BF2
:10531800F9E82274F71219ABEAFEEBFF9061D0E0CE
:10532800706875D90E75D90375D9047A00125311AE
:10533800248D1253AC40F67A00125311248512536F
:10534800A640F675E1957908EE248D12539F2485C1
:105358001253977C00ECF8C3E498FA95E0FBEE2A28
:10536800FAEF3BFBEA248C12632DC0E0EE28F8E448
:105378003FF9E824ACF582E439F583D0E0F00CEC91
:10538800C3940840D012549F800279000254DDFA79
:10539800E43FFB120DE7221253977904EE221253D1
:1053A800B29404221253B2940822F582E439F583A8
:1053B800E0F5D90AEAC322C082C08375D90275D93B
:1053C8000375D90575E195EA1254373B12604DEA29
:1053D8002471F582E43B1254AC024F4274F6121960
:1053E800ABEAFEEBFF9005277406125446121BBE6B
:1053F8001252EE12195175D90675D903758227759F
:10540800830512543D7004E583640570F575E195D4
:10541800900376E0640870111254363F12604DEE26
:105428002471F582E43F126387790102558BEE24DB
:105438006FF582E422E0F5D9A3E582642C22F075A9
:10544800082775090578082274F61219ABEAFEEBED
:10545800FF9061D0E070337801900527740BF090CD
:105468000376E06407701375082775090578081234
:105478001BBE1252EE12195178051257031252F838
:10548800DAFB75E19512549F8002790002558B75FD
:10549800E1957904120F8BEE246F1263D6EE247116
:1054A800F582E43FF583E8F0A3E9F079012274F787
:1054B8001219ABEAFEEBFF75D90375D90375D90D3F
:1054C800EA24DF12621AF5D91254978008F0EEA286
:1054D800E092AF79007F01021A7DE8C39A95E0C394
:1054E80065D0332274F61219AB12560C60047A0F89
:1054F80080027A0B1254E240437C09900527EC1293
:10550800555D12556CDDFB12621760197508277519
:1055180009057808121BBE7903EEFAEFFB1252F266
:105528001219517C0D12554812560370FB75E195FE
:105538007904120F8B12568C79018002790080430E
:1055480012554E8C082274012CF5D975D903758231
:105558002775830522F0EE24E4F8E43FF97A287BE6
:10556800057D082288828983E08A828B831263BF43
:10557800A3A882A9838A828B83A3AA82AB8322A24F
:10558800E092AF7F02021A7D74F61219AB12560C24
:1055980060047A0C80027A081254E2405A78069025
:1055A8000527740CF0900393E0900528F09003947D
:1055B800E0900529F0900395E090052AF090039675
:1055C800E090052BF0900397E090052C1256A06010
:1055D800197508277509057808121BBE7C0679031A
:1055E800EEFA1252F2121951780A12569A1256030A
:1055F80070FB125497800279008088E0F5D9A315D2
:1056080008E50822EAFEEBFF1256183FF583E02270
:105618009061D0E0F87480C398F8EA2484F582E4B5
:105628002274F61219AB12560C60047A0880027ABA
:10563800041254E240497802900527E8F0EE24F677
:1056480012621A9005281256A06019750827750964
:10565800057808121BBE7C027903EEFA1252F21288
:105668001951780612569A12560370FB75E1951275
:10567800568C7904120F8BEE240D1254A2800279F5
:105688000002558BEE241DF582E43FF583E4F0A378
:10569800F022125709880822F0EE2484F582E43FAC
:1056A800F583E02274F61219AB1252FD60047C08EF
:1056B80080027C04E8C39C1254E5403A78029005C5
:1056C800277407F0EA24F712632D90052812530572
:1056D80060157508277509057808121BBE7C02122B
:1056E80052F012195178061257031252F8DAFB7564
:1056F800E19579018002790002558B125709E8FA81
:1057080022740128F5D975D9037582277583052276
:1057180074F61219ABE9FEA2AFE433FDC2AF7C0008
:1057280080010C12632AF8ECC3985014ECF8EA12C2
:105738005314246AF582E439F583E06E70E4801826
:10574800EA246EF8E43BF9E0F508EA2508FAE43BB8
:10575800FB1257F1EE1258A8ED02558774F612198C
:10576800ABEAFCEBFDA2AFE433F508C2AFEA246E66
:10577800F582E43DF583E014F0EA246AFAE43DFB9F
:10578800EA2403F8E43BF9E8FEE9FF8A828B83A365
:10579800A882A983E08A828B83F0E8FAE9FBEE6AA3
:1057A8007002EF6B70E5EC246DF582E43DF58374CF
:1057B800FFF0EC2469F582E43DF583E4F0E50802A6
:1057C8005587C082C083A2AFE433F8C2AF1257F145
:1057D800E9F0EA2469F582E43BF583E4F012632AF0
:1057E80070037401F0E8024F3EEA246AF582E43B54
:1057F800F5832274F31219ABEAFEEBFFECFAEDFB2A
:105808008C82F583A3A3A3A3E0541FF0EE2436F5FE
:1058180082E43FF583E4F0750800EE245DFCE43F84
:10582800FD8A828B83E08C828D83F0750900E50800
:1058380033333354F8F50C8A828B83E0F50A750B01
:1058480000E509780A121909E50AA2E05027EE24B2
:1058580036F8E43FF98882F583E0F50AEE250AF583
:105868000AE43FF50BE50A2438F582E4350BF583A5
:10587800E50C1258A80509050CE509C3940840B7BA
:1058880005088A828B83A3AA82AB838C828D83A32B
:10589800AC82AD83E508C3940540867F05021A7D76
:1058A8001263BFE004F022C082C0839003A2E064C8
:1058B80001700302599D7C009003A8E0600302591F
:1058C8009D126139A3F090040804F090040DF09043
:1058D80003AB1259A49003B504F09003DBE4F090F5
:1058E80003BE1259ABA3F0900426F090041AF0906E
:1058F8000429F090040E748012613B900414F09017
:1059080004921259BD90049BF090042AF090047AF6
:105918001259BDA3F0A3F0900486F0900488F0908B
:105928000484F090049E1259BD9004B1F09004AB29
:105938001259AB74FF9004107804F0A3D8FC7A03D2
:105948007B0478B6790412556CE864BB7003E9648B
:105958000470F3788A790388828983E0C0E0ECFADE
:10596800748A2AF582E43404F583D0E0F00C888246
:105978008983A3A882A983ECC3940840DA9003A280
:10598800E004F0640170089003AAE09003A4F07AA0
:10599800A67B0380047A007B00024F42E41259B7C9
:1059A800A3F0221259AF221259B7A31259B722F005
:1059B800A3F0A3F0221259AFA3F0A3F022C082C033
:1059C800838A828B83A3A3A3E0600F8A828B83A33D
:1059D800A3A3E4F09003A3E014F09003A2E014F072
:1059E80070069003A474FFF08A828B83A3A3E4F06B
:1059F8009004BBE0700D9003A3E06401700579008A
:105A0800120F6D024F42C082C0839003A9E4F09048
:105A180003A8F09003A2F0A3F0A374FFF075E1F1DE
:105A2800024F4274E81219AB74F412193B851882BC
:105A3800851983EAF0A3EB125FCD125F7712181174
:105A4800740212198712181D88828983A3A3A3A33D
:105A5800A3A312604F740612198712638974241263
:105A68001987121BD174061219871218051228C338
:105A78007404121951E96003025ED8125FA1121B67
:105A8800D1742812198712180512291F74041219C3
:105A9800518A088B098C0A8D0B125FB67003025D60
:105AA8007A1252992475F582E438F583C082C0834E
:105AB800851882851983125F6BA312604FD083D03B
:105AC80082E0C398F50CA3E099F50D125FB6640265
:105AD8008518828519837008125F4BE834018003AA
:105AE800125F61F583E0F510A3E0F511850C1485CC
:105AF8000D15751600751700E4F512F5137814796D
:105B080010121621740812198778141217F6125FEA
:105B1800A178101217E77408121987781012175B0A
:105B28007810121BBA74281219871218051228C384
:105B38007404121951E97003025D7A851882851977
