:020000040000FA
:060000000201070221EAE3
:03002B0002261793
:0300530002226026
:03006B000225E883
:10008300022047E5C754F84401F5C779012200006F
:100093000080FB120086B900030200F1E4792178A5
:1000A30008B800028004F709D8FCE479297802B87B
:1000B30000028004F709D8FCE490028178D979130F
:1000C3008002F0A3D8FCD9FA7A597B1590013778CE
:1000D3007C79038015E493A3AD82AE838A828B83FC
:1000E300F0A3AA82AB838D828E83D8E9D9E7758288
:1000F300AC75837F74001201197582917583007446
:100103000012011975D00075813F751881751902A8
:10011300759F00020096C09FF59FE473D09F22D085
:1001230083D082C09FE493C0E0740193C0E0740263
:1001330093F59F22FF0000B4000028002800283018
:1001430075A000A000A000A00000080008E001F0D6
:10015300001000100010001000100010005000509C
:1001630000500010001000D0070000000000000F36
:100173000001000500307507001000010081FF0039
:10018300000000FFFFFFCE05EC05D4051006FF02BB
:10019300020208025000A0000000E80302168201D8
:1001A3000000F481021A82010000B415021E8201CC
:1001B3000000BF02021A82010000B515022082016D
:1001C3000000D502021A82010000B6150222820144
:1001D3000000D702021A82010000B7150224820828
:1001E3000000D802021A82010000B815022682011B
:1001F3000000B915FF0100FF20021682010000F77D
:1002030081021A820100001D1602288200000000EC
:1002130000021C8203000006031700640C640C64D4
:100223000C640C640C640C640C640C640C640C644B
:100233000C640C640C0A0F1C0F040F0B094353438B
:100243002053656E736F72020A00020106030216E1
:10025300184353432053656E736F72000000000010
:100263000000000000006400000032003C00460073
:10027300F40F00001002020128021682010000FAA6
:1002830081021A8201000099160232820000006A7C
:1002930007021C820300006B07021A820100009A06
:1002A30016022A820100006D07021A820100009BD8
:1002B300160210820100009C16021A820100009DA2
:1002C30016020E820200006F07021C8203000070F8
:1002D30007020202020202020202010D00000010E4
:1002E30001021682010000FD81021A82010000F65C
:1002F300160208820100007207021A82010000F749
:10030300160206820100002581021A82010000F80C
:10031300160204820100001781021A82010000F90B
:1003230016020282010000A780021A82010000FA6D
:10033300160200820100008380021A82010000FB82
:1003430016023281010000B980021A82010000FC0A
:10035300160230820100009580021A82010000FD1E
:1003630016021282010000FB80021A82010000FEC5
:1003730016020C82010000FF1601E8030577100A3C
:10038300FFFFFF00013075030201060000000000BB
:10039300000000000000000000000000000000005A
:1003A30000000000000000FFFF0600800CE80312BD
:1003B3000122688F031201227B8F03120122AA8F6D
:1003C30003120122E28F031201222B900312012256
:1003D3006E9003120122B49003120122E7900312DC
:1003E30001220E91031201223D9103120122749105
:1003F300031201228D9103120122DC9103120122C7
:10040300F591031201223D9203120122719203120C
:1004130001225DB3021201225BB402120122C1B4B4
:1004230002120122E4B402120122E6B402120122F2
:1004330024B50212012295B50212012255B6021209
:10044300012277B60212012213B7021201224AB720
:10045300021201228FB7021201229CB7021201225B
:100463000CB80212012256B80212012259B8021224
:1004730001229FB802120122A2B802120122ACB8D3
:10048300021201221FB90212012247B902120122EC
:100493007AB9021201229EB9021201229BBA0212F8
:1004A30001223FBB02120122ABBB02120122E7BBB6
:1004B300021201220584031201222D840312012258
:1004C3005A8403120122928403120122F884031234
:1004D3000122428503120122A68503120122EE8521
:1004E300031201222B8603120122598603120122D1
:1004F300EE8603120122F8860312012205870312F6
:1005030001223887031201224487031201225C87E8
:100513000312012266870312012223AC0312012274
:1005230031AC0312012249AC0312012260AC031265
:100533000122F3A70112012296A801120122AFA9F9
:100543000112012227AA011201224EAB011201223C
:1005530087AB011201221FAC011201220CAD011263
:100563000122B5AD011201223DAF0112012225B0D6
:10057300011201221CB10112012252B10112012206
:10058300F4B1011201221AB201120122E6B30112DF
:1005930001222CB4011201224EB401120122BAB479
:1005A3000112012285B5011201223FB60112012277
:1005B3004BB8011201220ED302120122EAD3021216
:1005C300012294D402120122D5D4021201225CD555
:1005D30002120122D7D502120122AAD60212012247
:1005E300D3D602120122C7D70212012204D8021263
:1005F3000122ECD8021201221DD90212012243D991
:10060300021201225E9F03120122DD9F03120122C7
:1006130008A00312012218A103120122F487031276
:1006230001220A8803120122288803120122388931
:10063300031201224289031201226C8A031201224E
:10064300598B03120122C58B03120122B3D9021263
:100653000122E0DA0212012217DB021201226EDB11
:100663000212012266DD02120122429501120122C9
:10067300C995011201221D97011201222997011226
:100683000122A197011201227A98011201227A997B
:1006930001120122769A01120122429B01120122C8
:1006A3009C9C01120122B29C01120122D39C0112D3
:1006B3000122659D01120122DB9D01120122019E8F
:1006C30001120122AEA001120122B3A001120122E4
:1006D300D7A2011201221EA30112012284A3011237
:1006E3000122CAA3011201229AA4011201224FA5D9
:1006F30001120122ABA501120122AEA501120122B2
:10070300FAA50112012236A60112012275A60112D1
:10071300012297A601120122CBA60112012239A7B9
:1007230001120122A3E402120122B1E40212012206
:1007330001E50212012220E5021201226AE50212FA
:100743000122ADE60212012245E70212012289E7E6
:1007530002120122B3E7021201221EE80212012251
:1007630062E802120122E5E80212012294E9021270
:100773000122402600120122502600120122EA26FD
:10078300001201224627001201220428001201222E
:10079300272900120122572900120122862900125B
:1007A30001223C2B001201228F2D00120122EE2F79
:1007B30000120122D73000120122C7310012012298
:1007C3009A3300120122923600120122AF3700122F
:1007D3000122A93900120122B83A00120122473C32
:1007E30000120122333D00120122823D0012012238
:1007F300F23D001201220E3E001201225F3E001262
:100803000122FF4200120122064400120122684421
:10081300001201229344001201224B4500120122CF
:1008230093FB021201229DFB02120122E5FB02123D
:100833000122F9FB021201228AFC02120122C1FCED
:1008430002120122FCFC0212012225FD02120122E6
:1008530079FD021201228EFD02120122B0FD021265
:100863000122C5FD02120122D9FD02120122EEFD71
:100873000212012228FE0212012254FE0212012258
:10088300DFFE0212012222FF021201224CFF02129A
:10089300012277FF0212012271FE011201220D8D46
:1008A30002120122E68D02120122558E021201224A
:1008B300908E02120122CB8F021201227D9002122E
:1008C30001222A9302120122D59302120122B69425
:1008D300021201222C960212012294960212012284
:1008E3004FEE0212012292EE02120122FDEF0212DA
:1008F30001223BF202120122659B03120122129C88
:10090300031201220B9D03120122489D03120122AF
:1009130014A30312012273A30312012210A40312CE
:10092300012243A40312012271A403120122ACA4E5
:1009330003120122CCA403120122A6E9021201220E
:100943002FEA02120122EEEA02120122FCEB02124A
:1009530001221CEE021201223C7400120122517486
:10096300001201221C7500120122E97500120122F6
:10097300567600120122917600120122327700127C
:1009830001223B7800120122137900120122967989
:10099300001201221F7A00120122887A001201221A
:1009A300127B001201225F7B00120122CD7B001219
:1009B30001226F7C001201221D7D001201223D7D68
:1009C30000120122817D00120122C97D0012012241
:1009D300E57D00120122047E001201227E7E0012B8
:1009E30001228C7E001201221F7F00120122897FC7
:1009F30000120122D8F20212012254F30212012240
:100A030092F30212012276F402120122E5F4021299
:100A1300012229F5021201226CF50212012299F535
:100A230002120122B7F502120122EFF5021201228E
:100A33002CF6021201224DF602120122C3F6021213
:100A430001220DF70212012258B801120122ECB95A
:100A5300011201222ABC0112012272BC01120122DD
:100A63009DBC0112012293BD01120122C3BD0112DB
:100A730001221ABE011201222DBE011201226EBEF5
:100A8300011201229BBE01120122E4BE01120122C6
:100A930020BF0112012265BF01120122B2BF011260
:100AA30001221AC0011201224CC20112012213C4F5
:100AB300011201224EC401120122CCC501120122EE
:100AC30010C60112012283C60112012243C701127B
:100AD300012262C80112012273C80112012239974F
:100AE30002120122AA9702120122739D021201220D
:100AF3006D9E021201222FA002120122ADA002124A
:100B03000122B445001201223B460012012268462D
:100B130000120122AA4600120122A6470012012256
:100B2300EB4700120122674900120122E449001237
:100B33000122094A001201227C4A00120122394B88
:100B430000120122F54B00120122754C0012012202
:100B5300434D00120122694D00120122DB4D0012A8
:100B630001227F4E00120122A44E00120122104FD7
:100B730000120122764F00120122AC4F0012012213
:100B8300505000120122E950001201226C51001250
:100B93000122D851001201222452001201228A524A
:100BA30000120122BB52001201226F5300120122D4
:100BB300855400120122CE5400120122EB5400127C
:100BC3000122CB5A00120122135B00120122005CA6
:100BD30000120122255C001201223A5C001201225C
:100BE300A25C00120122E25C00120122F55D0012F8
:100BF3000122A25E00120122D6A00212012221A12B
:100C0300021201222DA102120122F8A102120122D5
:100C13000EA2021201224AA20212012283A202128E
:100C23000122BBA20212012211A30212012227A355
:100C33000212012263A30212012276A302120122ED
:100C43009DA302120122D1A302120122A5A4021222
:100C5300012234A60212012230A70212012239A86E
:100C630002120122FBFF0112012212D701120122FB
:100C73004DD70112012251DA01120122A3DB011225
:100C8300012268DC0112012262DF011201224CE021
:100C93000112012297E001120122B1E001120122A7
:100CA300EEE001120122F9E00112012238E1011202
:100CB300012241E10112012202E201120122BFE2FB
:100CC3000112012222E30112012286E30112012211
:100CD30007E40112012235820112012291850112DA
:100CE3000122978501120122D88C01120122B091B1
:100CF30001120122D99203120122A39303120122AA
:100D0300E79303120122219403120122B3940312E5
:100D130001222295031201222B95031201223795FA
:100D2300031201224B95031201226F950312012234
:100D33009F950312012254F70212012261F7021256
:100D430001227BF702120122AEF702120122EBF716
:100D53000212012251F80212012266F80212012244
:100D630071F8021201227EF80212012295F8021292
:100D73000122A3F802120122AEF802120122BAF8EC
:100D830002120122C9F802120122D4F8021201222E
:100D9300FAF8021201229EF902120122AEF902129E
:100DA3000122C8F902120122E5F90212012200FA16
:100DB3000212012227FA0212012232FA021201223E
:100DC30047FA021201225BFA02120122BCFA021252
:100DD3000122C2FA02120122C8FA02120122CEFA39
:100DE30002120122E6FA0212012219FB0212012267
:100DF300058002120122938002120122288102122D
:100E030001220482021201223882021201224B8241
:100E130002120122C582021201224D840212012212
:100E2300748402120122FB84021201223A85021207
:100E330001224B8502120122C08502120122DF85A5
:100E430002120122F785021201223B8702120122BC
:100E5300458902120122778B021201227D8C021234
:100E63000122C08C0212012278C8011201228BC90F
:100E73000112012273CA011201227DCA0112012249
:100E83009FCA01120122ABCA01120122F8CB01123F
:100E9300012225CC0112012246CD0112012288CD67
:100EA30001120122BDCE011201228DCF01120122B6
:100EB300DCCF011201223DD00112012272D00112B6
:100EC3000122ABD00112012256D4011201226DD4AA
:100ED30001120122EBD401120122F9D401120122E1
:100EE30042D50112012250D501120122D1D501129E
:100EF300012240D6011201228CD6011201228CF369
:100F030001120122AEF3011201228AF5011201221C
:100F130002F9011201224CFA011201222EFB0112E5
:100F23000122DAA403120122FFA40312012270A5F5
:100F330003120122ADC402120122B6C4021201221D
:100F4300BFC402120122E3C502120122D4C7021256
:100F5300012202C8021201222DC8021201225BC81B
:100F63000212012286C802120122C4C802120122FF
:100F7300F0C8021201222DC90212012258C902121D
:100F83000122A4C902120122FBC9021201223BCA97
:100F9300021201228ACA02120122B5CA02120122D6
:100FA300FBCA0212012229CB0212012254CB0212E4
:100FB300012281CB02120122A4CB02120122F0AC46
:100FC300031201221CAD0312012275AD031201228B
:100FD3007FAD031201228FAD0312012266AA021212
:100FE30001228FAC02120122E4AD021201220BAFE7
:100FF300021201228AB00212012286B202120122D7
:1010030030CC021201223BCC02120122C9CC0212C3
:1010130001225CCD0212012269CD02120122CACD46
:1010230002120122FACD021201223ACE0212012249
:101033007FD0021201229BD102120122CE9503120C
:101043000122F595031201222096031201229FFF2C
:1010530002120122D45E001201222C61001201222D
:10106300056200120122BC630012012219640012FE
:101073000122266500120122AE65001201223566A7
:10108300001201225A66001201224F690012012246
:10109300C06900120122AF6A00120122E96A00123C
:1010A3000122296B00120122CE6C00120122216D54
:1010B300001201226A6D00120122D86D0012012272
:1010C300FE6D00120122186E001201222E6F001213
:1010D30001223E6F00120122C47000120122E4704B
:1010E300001201221A71001201229A7200120122C7
:1010F300D9720012012217740012012247A10312B0
:101103000122ABA1031201225AA20312012279A2E6
:1011130003120122CDA20312012272AF0312012294
:1011230099AE03120122D8AE03120122E9FF021283
:10113300012299AD03120122A9AD03120122BEAD12
:101143000312012226AE0312012236A90312012241
:10115300BAA90312012222AA0312012229A8031207
:10116300012250A803120122A6A803120122F7A804
:1011730003120122CF8B03120122E38B03120122FC
:101183005C8C03120122318D03120122038F03129F
:10119300012232AB031201225BAB0312012284ABA7
:1011A300031201229CAB03120122DEAB03120122C4
:1011B30053DF021201225DDF021201229DDF0212C0
:1011C3000122E6DF0212012220E00212012276E070
:1011D3000212012295E0021201229EE00212012274
:1011E300EFE00212012218E1021201222DE10212A4
:1011F30001229DE1021201222BE2021201226FE27F
:101203000212012298E20212012217E302120122C2
:1012130054E3021201228BE3021201229DE3021224
:101223000122BCE302120122C5E30212012277E488
:10123300021201228BA603120122DCA60312012251
:1012430065A703120122CBA703120122A49803125C
:101253000122CE9803120122C39903120122F299AB
:1012630003120122799A031201223BAA03120122DB
:1012730029AE03120122629D03120122989D0312DB
:101283000122CB9D03120122249F0312012285FF19
:10129300011201229BFF01120122A5FF011201226B
:1012A3000DBC02120122CABC0212012205BD0212A8
:1012B300012236BD021201229DBD02120122F5BD9B
:1012C3000212012254BE0212012246BF021201225F
:1012D30045C002120122D7C1021201228BC202129F
:1012E3000122F4C20212012207C30212012202C424
:1012F300021201224FC402120122008003120122B2
:10130300168003120122BA8003120122F98003120C
:1013130001221681031201224781031201229481C3
:1013230003120122C8810312012203820312012244
:10133300F8830312012251E50112012208E9011287
:1013430001229AEA01120122F1EA0112012210EBB1
:10135300011201228EEB0112012220ED0112012262
:1013630004EE0112012215F201120122E9F2011227
:101373000122E2AE0312012228AF0312012254AF6D
:1013830003E066701008A3E066700A08A3E06670C5
:101393000408A3E06622C3E7960809E7960809E76D
:1013A300960809E79622C3E09608A3E09608A3E00F
:1013B3009608A3E09622C008C3E096F50808A3E0C8
:1013C30096420808A3E096420808A3E096450870F1
:1013D30001D3D00822080808EAC0E0EBC0E086F099
:1013E300E7A4FA180986F0E7A42AFA180986F0E7B1
:1013F300A42AFA180986F0E7A42AFA1986F0E7A4C2
:10140300FBE5F02AFA190886F0E7A42BFBE5F03A8E
:10141300FA190886F0E7A42BFBE5F03AFA18180945
:1014230086F0E7A4C5F02BFBE43AFA1908E7C5F008
:10143300C6A426F6E5F03BFBE43AFA1886F0E7A4E7
:10144300F6E5F00826F6E43B08F6E43A08F6D0E0C1
:10145300FBD0E0FA22E4CFC0E0E4CEC0E0E4CDC0AC
:10146300E0E4CCC0E075F020E626F608E633F608A3
:10147300E633F608E633F6181818EC33FCED33FDC3
:10148300EE33FEEF33FFC3EC9709ED9709EE9709AF
:10149300EF97191919400FFFEC97FC09ED97FD0918
:1014A300EE97FE191906D5F0BFECF709EDF709EE33
:1014B300F709EFF7191919D0E0FCD0E0FDD0E0FEF1
:1014C300D0E0FF226016080808C6C313C618C61367
:1014D300C618C613C618C613C6D5E0EA2270090893
:1014E3000808226016181818C6C333C608C633C6C0
:1014F30008C633C608C633C6D5E0EA22E627F6088F
:1015030009E637F60809E637F60809E637F622E072
:1015130026F608A3E036F608A3E036F608A3E0367D
:10152300F622E026F008A3E036F008A3E036F00840
:10153300A3E036F022C3E697F60809E697F6080912
:10154300E697F60809E697F622C3E0C696F608A3DF
:10155300E0C696F608A3E0C696F608A3E0C696F69C
:1015630022C3E096F008A3E096F008A3E096F00803
:10157300A3E096F022E056F608A3E056F608A3E0AF
:1015830056F608A3E056F622E056F008A3E056F01C
:1015930008A3E056F008A3E056F022E0F608A3E023
:1015A300F608A3E0F608A3E0F622E6F008A3E6F0C7
:1015B30008A3E6F008A3E6F022E0FAA3E0FBA3E029
:1015C300FCA3E0FD22E0FCA3E0FDA3E0FEA3E0FF1B
:1015D30022ECF0A3EDF0A3EEF0A3EFF022E0F8A3EA
:1015E300E0F9A3E0FAA3E0FB22E8F0A3E9F0A3EA21
:1015F300F0A3EBF022CAC0E0E6F0A308DAFAD0E0E9
:10160300FA22CAC0E0E0A3C582CCC582C583CDC59A
:1016130083F0A3C582CCC582C583CDC583DAE6D06A
:10162300E0CA22C3E498F8E499F91216678026C346
:10163300E49AFAE49BFBE920E7E9121667E498F8D9
:10164300E499F922C3E498F8E499F9121667E49847
:10165300F8E499F9C3E49AFAE49BFB22EB20E7CF81
:10166300E920E7E0B90010BB0008E88AF084F8AA93
:10167300F022E4FBC8FA22EB70227B10C833C8C9FE
:1016830033C9335007C39AC3DBF280069A50012A49
:10169300DBEAC833F4C8C933F4C9FA2275F008E4A5
:1016A300C833C8C933C933C99AC99B5004C92AC9A5
:1016B3003BD5F0ECFBC833F4C8E4C9FA22600D084B
:1016C300C6A2E713C618C613C6D5E0F322600C08FA
:1016D300C6C313C618C613C6D5E0F422700422602D
:1016E3000D18C6C333C608C633C6D5E0F418222581
:1016F3001810AF08F518400C15198008F5184002AA
:101703001519D2AF2200C0D0251810AF08F5185014
:101713000C05198008F51850020519D2AFD0D02254
:101723002518F58210AF08F518400C15198008F537
:101733001840021519D2AF851983222518F582E4C2
:101743003519F583222518F8E43519F9222518FAF5
:10175300E43519FB222518FCE43519FD22E4732531
:1017630018C582C0E0E51934FFC583C0E0E518C39E
:10177300958224F810AF088583198582188008851F
:101783008319858218D2AFCEF0A3E520F0A37808A1
:10179300E608F0A3DEFAEFF0A3E58124FAF8E60801
:1017A300F0A3E608F0A3E608F0A30808E608F0A310
:1017B300E608F0A315811581D0E0FED0E0F815818D
:1017C30015811581E8C0E0EEC0E0222518C582C06E
:1017D300E0E51934FFC583C0E0E518C3958224F919
:1017E30010AF08858319858218800885831985823F
:1017F30018D2AFCEF0A3E520F0A37808E608F0A353
:10180300DEFAEFF0A3E58124FBF8E608F0A3E6088F
:10181300F0A30808E608F0A3E608F0A315811581F4
:10182300D0E0FED0E0F815811581E8C0E0EEC0E01D
:1018330022851983851882E0A3FEE0A3F5207808AA
:10184300E0A3F608DFFAE0A3FFE0A3C0E0E0A3C053
:10185300E0E0A3C0E0E0A3C0E0E0A3C0E010AF0875
:101863008582188583198008858218858319D2AFEC
:10187300D083D08202011F851983851882E0A3FEDD
:10188300E0A3F5207808E0A3F608DFFAE0A3FFE081
:10189300A3C0E0E0A3C0E0E0A3C0E0E0A3C0E01089
:1018A300AF08858218858319800885821885831976
:1018B300D2AFD083D08222C0D02518C582C0E0E544
:1018C3001934FFC583C0E0E518C3958224F310AF34
:1018D300088583198582188008858319858218D223
:1018E300AFC8F0A3E9F0A3EAF0A3EBF0A37908E70C
:1018F30009F0A3D8FAECF0A3EDF0A3EEF0A3EFF018
:10190300A3D0E0F0A3D0E0F0A3D0E0F0A3E520F073
:10191300A3E5F0F0A322851983851882E0C0E0A334
:10192300E0F9A3E0FAA3E0FBA37808E0F608A3DF5D
:10193300FAE0FCA3E0FDA3E0FEA3E0FFA3E0C0E028
:10194300A3E0C0E0A3E0F5D0A3E0F520A3E0A3F576
:10195300F010AF088583198582188008858319855F
:101963008218D2AFD082D083D0E0F8D0E0327404B2
:101973008006740280027401C0E0F404121723D0BD
:10198300E01215F8227404800474028000CCC0E0D5
:10199300EDC0E0E518C39CCCAD1950011D10AF0696
:1019A3008C188D1980068C188D19D2AF121605D09C
:1019B300E0FDD0E0FC22D083D082E9C0E0E493A331
:1019C300C386F0C5F095F0F908E493A386F0C5F05B
:1019D30095F0700BE493A3C3994005E9048002A337
:1019E300E475F002A42582F582E5F03583F583D012
:1019F300E0F9E493A3C0E0E493C0E022D083D08273
:101A0300ECC0E0EDC0E0E493A3FCE493A3FDED4C54
:101A1300600D121A4BEC24FFFCED34FFFD80EFE464
:101A230093A3FCE493A3FDED4C600D121A8AEC24FE
:101A3300FFFCED34FFFD80EFD0E0FDD0E0FCE4934C
:101A4300A3C0E0E493C0E022C0E0C3E4939608742B
:101A530001939618400FE493667008087401936627
:101A63001870007019A3A3C3E493960874019396A6
:101A730018A3A3400DD0E0D0E0D0E0021A3BA3A30B
:101A8300A3A3A3A3D0E022C0E0C0F088F0E4936650
:101A930070080874019366187000A8F0A3A3700B74
:101AA300D0F0D0E0D0E0D0E0021A3BA3A3D0F0D036
:021AB300E0222F
:101AB80074F61217CEEAFEEBFF8C088D09EA24347F
:101AC800F8E43FF9E8FCE9FDEA2435121E5FFAEE76
:101AD8002437121E5FF88508F0A4C885F00A850926
:101AE800F0A4250AF9EA28F8E439F97A257B0012E6
:101AF8001667EA8C828D83F0FA131313541F121E93
:101B080053245DF582E439F583E0C0E074075AF8A0
:101B1800D0E0B800028004C313D8FCA2E0EE50085D
:101B28002434F582E43F80142436121E5FF5F0EA6F
:101B380084A8F0121E542438F582E439F583E0F9BC
:101B48007F0302187A74F71217CEEAFEEBFFEA2435
:101B580034121E5FC0E0EA2435F582E43FF583D0F5
:101B6800E0F08A828B83A3A3A3A3A3A3A3C082C00C
:101B7800838A828B83A3A3A3A3A3E0F8A3E0F9D06D
:101B880083D082E0C398F508A3E099F509EA248098
:101B9800121E5F6401703EEA2481F582E43FF583FA
:101BA800C082C0838A828B83A3A3A3A3A3E024015A
:101BB80008A3E03400F9D083D082E0687003A3E082
:101BC8006970127CB67D04120BA4EE2480F582E4C1
:101BD8003FF583E4F0AC08AD09EEFAEFFB121AB852
:101BE800E9F91225DA7F0202187AC082C0838518C3
:101BF80082851983E0F8A3E0F9C3EA9CEB9D5010B5
:101C0800C3EC98ED99401BC3EA98EB995014800EE9
:101C1800C3EA98EB994007C3EC98ED994004790121
:101C280080027900D083D08222EAC39CFAEB9DFB24
:101C38002274EF1217CE900376E064086005E06422
:101C480007702A9061C8E060249003A4E0F4601D46
:101C5800E0F875F010A4C8AAF02AF974A628FE7452
:101C68000339FF8E82F583A3A3A3E07003021D52FC
:101C7800906060E0C0E0EE2468F582E43FF583D030
:101C8800E0F0750C27750D05750800750900E5D994
:101C980014F50AE5D95403F50E602F7403650E6038
:101CA8001DE50A6008EE2467121E5F601D9005227C
:101CB800E06401602C121E5C601278048010121E11
:101CC8005C602CE50AC39405502580637800E50A1A
:101CD800C398FA95E0FB120A5A8A088B09EA4B70F6
:101CE80005120DD28064121E5C70048A0C8B0DE5FF
:101CF8000A6012850C82850D83F50BE5D9F0A315D2
:101D08000BE50B70F6121E5C604574FC250AF50A9B
:101D1800780C121975AC0AA90EEEFAEFFB120C5EDC
:101D28007402121708E97027AA08AB0912123A7947
:101D38003D8E828F83A3A3A3A3E0FA7B001208C27F
:101D4800EEFAEFFB120BC8120C707900021E4E74EB
:101D580003650E6053E50AF5107511007810121925
:101D680075AC0CAD0DAA08AB09120C22740212173F
:101D780008EE2468121E5F64807004747F8001E09E
:101D8800F50C780C121979E50EF50C780C12197906
:101D9800A90AAC08AD099003A4E0FA7B00120898E0
:101DA8007402121708021E49850C82850D83E0C350
:101DB800940E5011E0F8740928F582E43481F58313
:101DC800E0650A6069850C82850D83E0C0E0EE2439
:101DD800F7F582E43FF583D0E0F0A2AFE433FCC22C
:101DE800AF7A0080010AEE246E121E5FF8EAC398EB
:101DF8005013EA121E53246AF582E439F583E0642D
:101E08000770E28022EE246EF8E43FF9E0FAEE2A49
:101E1800FAE43FFBEA246AF582E43BF5837407F0B1
:101E280088828983E004F0ECA2E092AF80139003EB
:101E380076E06408600BAC0CAD0DEEFAEFFB120C0B
:101E4800E8120DDE79017F0A02187AF8EE28F8E424
:101E58003FF9E822EE2484F582E43FF583E022741A
:101E6800F11217CE74FC1216F2EAFEEBFF8909751F
:101E78000D00A2AFE433F508C2AF9004BEE0FA90BB
:101E880061D0E0F8748098F895E0F9C3EA98E4998D
:101E9800A2D265D0334003021F51750D01021F51B4
:101EA800E0601B780A121975AC0EA90FEEFAEFFB69
:101EB800120C5874021217087404250EF50E7401DA
:101EC800250EF5D9850FD9E50E6012850A82850B96
:101ED80083F50CE0F5D9A3150CE50C70F675E195C2
:101EE800EE2463F8E43FF97A007B00A2AFE433F50F
:101EF8000AC2AF88828983E0FCA3E0FDEC4D603A1A
:101F080088828983E0FAA3E0FB8C82F583E0FCA356
:101F1800E0FD88828983ECF0A3EDF08A828B83E46C
:101F2800F0A3F088828983E0FCA3E0FDEC4D700A01
:101F380088828983A3A3E4F0A3F0E50AA2E092AF24
:101F480012123A9004BDE004F0EE2463121E5FF80A
:101F5800A3E0F9E8496063EE2463121E5F2402F8E7
:101F6800A3E034008882F583E5822402F50AE4358B
:101F780083F50BE0F50EA3E0F50FEE2462121E5F69
:101F8800640170369061D0E0F8121E5C60047C0435
:101F980080027C007480C398FA95E0FBE50E2CF86B
:101FA800E43400F9E82402F8500109C3EA98EB99EF
:101FB800A2D265D0334003021EA89061D0E0F87425
:101FC80080C3989004BEF0E50D60539004BDE060B6
:101FD8004D9004BFE0F89004BDE0C398500C740223
:101FE8006509703A9004C0E060348E828F83A3A3A1
:101FF800A3A3E0851882851983122036740212176C
:102008003EE81220369004BCE028F07402121758FB
:10201800AA18AB1979011208EC9004BDE4F0E508A0
:10202800A2E092AF74041217087F0802187AF0A38E
:10203800E4F09004BDE0F8228521878522C622C0FD
:10204800E074EB1218BAA2AFE433F508C2AF759B7F
:1020580000906182E0A2E0502DE591A2E050277542
:1020680091FE74016521701E1221BE1221D512192C
:10207800881223897404121708E96401700579012C
:10208800120D66121C39906182E0A2E5505AE59162
:10209800A2E550547591DF900376E064076005E08F
:1020A8006408702C1221BE74016521703B1221D581
:1020B8001219881223897404121708E9640170053B
:1020C8007901120D667901EEFAEFFB121E6780188E
:1020D800E0640D7013900398E004F064287002E443
:1020E800F07A00E0F9120DE4906182E0A2E6400384
:1020F800022193E591A2E640030221937591BF90D6
:102108000376E064057008120D12120D1E8003128A
:102118000D18752100120D72E9900377F0790012FD
:102128000D66120B147A017B00900375E0F9121208
:102138000A907803E064427052900526E014F0702B
:102148004AC2AF12214E00782AD0E0F618D0E0F645
:10215800E59F540770047BFF80027B7FC4C0E07852
:1021680029E6F50A08E65BF50B740B780A1216D017
:10217800D0E0250AF8906270E0A2E740F8E8C3339F
:10218800906272F0906270E0D2E0F0906181E0A21B
:10219800E35009E5E9A2E3500375E9F7A3E0A2E7F4
:1021A8005009E591A2E7500375917FE508A2E092F6
:1021B800AF7F080219199003A4E0F875F010A4C8BD
:1021C800AAF02AF974A628FE740339FF22120D2AF0
:1021D8008E828F83E0F8A3E0C82416F582E438F5F0
:1021E8008322C0E0C0D0C082C083906183E0A2E0B7
:1021F8005009E5BFA2E0500375BFFEE0A2E1500917
:10220800E5BFA2E1500375BFFDE0A2E25009E5BFBA
:10221800A2E2500375BFFBE0A2E35009E5BFA2E3C9
:10222800500375BFF7E0A2E45009E5BFA2E45003EC
:1022380075BFEFE0A2E55009E5BFA2E5500375BF01
:10224800DFE0A2E65009E5BFA2E6500375BFBFD0A4
:1022580083D082D0D0D0E032C0E074F21218BAE550
:10226800A7A2E6500FE5A1A2E6500953A7BF75A1A2
:10227800BF1222B4E5A7A2E5500CE5A1A2E55006DD
:1022880053A7DF75A1DFE5A7A2E15009E5A1A2E107
:10229800500375A1FDE5A7A2E2500CE5A1A2E2500A
:1022A8000653A7FB75A1FB7F0102191974F71217D2
:1022B800CE752101900376E064067015120C948A9D
:1022C800828B83A3A3A3A3A3A3E0FAA3E0FB120D2D
:1022D80000A2AFE433FED2AF90037CE06401701833
:1022E8007A207B00900375E0F912131E7A207B0098
:1022F800900375E0F9121210906182E0D2E6F09036
:102308000523E0602185C622801690037BE06401E6
:102318007008E5C654F84405F5C653BEFC122040C3
:102328007401652160E4EEA2E092AF7F0202187AA0
:102338008E238F2485822885832785188285198393
:10234800E0CEA3E0CF852882852783EBC9EAC8EDD4
:10235800CBECCA75F010C3E833C8E933C9EA33CA0D
:10236800EB33CBC3EA9EF526EB9FF525B35004ABC0
:1023780025AA26EC33CCED33CDD5F0DAAE23AF2445
:102388002274F11217CE8A088B098C0A8D0B908162
:10239800D87808121578740F12173E780C12159E0B
:1023A8009081D8780C1215787808790C12139990C6
:1023B800817C50107808790C12153878081213B9F6
:1023C8004014800E780C7908121538780C1213B95D
:1023D80050047901800279007F0802187A74ED129E
:1023E80017CE8A088B098C0A8D0B9081D878081231
:1023F8001578741312173E780C12159E9081D878B0
:102408000C121578780C790812139940117808790C
:102418000C121538AA08AB09AC0AAD0B802275104E
:10242800007511007512007513017810790C1215DA
:1024380038781079081214FFAA10AB11AC12AD133A
:102448007F0C02187A9081D8780812159E8A828BA0
:1024580083780812158B7F0402187A74F51217CE48
:102468008C828D83780812159E8A828B8378081255
:1024780015641224BBC3E09CF0A3E09D1224AD4078
:102488002290819C780812159E8A828B8378081284
:1024980015258A828B83A3A3A3A3E02420F0A3E0BD
:1024A800344EF080A0F088828983C3E09420A3E0B2
:1024B800944E22EA2404F8E43BF98C828D83A3A38A
:1024C800A3A3E0FCA3E0FD888289832274F5121798
:1024D800CE9004D9E0FAA3E0FBE929F8E433F974D3
:1024E800CB28F582748039F583E02AF508A3E03B10
:1024F800F50978081219759081C81215BC1223388D
:1025080074021217088A088B098C0A8D0B741078CC
:10251800081214C7AA08AB097F0402187A74F112CA
:1025280017CE8A0C8B0D8C0E8D0F741112173E125C
:10253800198C741112173EE02401F508A3E0340049
:10254800F509E4F50AF50B780C79081213D890818F
:1025580088780812159E780C79081213D8AA0CAB43
:102568000DAC0EAD0F1223387402121708EA4B6037
:10257800047A0180027A00EC2AFCE43DFD7413120F
:10258800173EE0F8A3E0F9E8FEE9FFECF8EDF97A88
:10259800717B0212166788088909E4F50AF50B8E23
:1025A800828F8378081215ADECF8EDF97A717B0209
:1025B8001216678A088B09740578081216DF8E824E
:1025C8008F83A3A3A3A3E508F0A3E509F07F08027E
:1025D800187AC082C083E9906000F0D083D082224C
:1025E800C0E074F21218BAA2AFE433FED2AFE589A4
:1025F800A2E04006E589A2E1500312116E75890038
:10260800758900C2C5EEA2E092AF7F01021919C018
:10261800E0C0D0E8C0E0A8A8D2AFC2C7E8A2E7925D
:0F262800AFD0E0F8D0D0D0E032C2AF0200002235
:10263800FFFFFFFFFFFFFFFFC082C083E990161C6A
:10264800F0D083D08202011F74F6121762E990025B
:10265800E8F0900348E0F50875090074027808125C
:1026680016DFAA08AB091212829002E9122B246025
:102678006E900348E075F003A4FAABF01212829052
:102688000306122B24700B9002E912336812128889
:10269800804D9003061242D17AFF7BFF1210FC7A1C
:1026A80000801EEAF508750900740278081216DF22
:1026B800123D6D74FFF0A31242E5A3A3E4F0A3F06A
:1026C8000A900348E0F8EAC39840D8790512078AC7
:1026D8009002E8E0F91206767A147B081209FA02E9
:1026E8003E0974F41217628A088B09EB548060471C
:1026F8009002E8E0F91211F28A0A8B0BAE0AAF0BCE
:10270800EA4F602A8A828B83E064B0701A12079CB1
:10271800E960148E828F83A3A3A3A3E0F9EE2405B6
:10272800FAE43FFB12076CEEFAEFFB1211E0AA087D
:10273800E5096480FB80047A007B0002295274F268
:1027480012176274FB1216F2EAFEEBFFEA4F6043BF
:10275800740312173E122FD1851882851983ECF065
:10276800A3EDF0740212173EE9F0AA18AB1912068D
:1027780070E9F5087077741312173EE0F50AA3E0C4
:10278800F50BE50A450B60658E828F83122D65EE89
:102798004F700575080280557A067B001212828AEE
:1027A8000C8B0DA80CA90DEA497005750813803D1E
:1027B8008A828B83E4F01227FCA3EEF0A3EF124584
:1027C800AAE50AF0A3E50BF09002EC122916900294
:1027D800EC6017E0FCA3E08003EAFCEBFD8C828D43
:1027E8008312291670F38C828D8312398DA908748F
:1027F80005024543A3F08A828B83A32274F2121741
:10280800628908E9F50C750D007403780C1216DF5F
:10281800850C0A850D0B9002EBF09002E91242B686
:10282800122914602F1212887900801EE9F50C75A0
:102838000D007402780C1216DF9002E9123C26880B
:1028480082F583A3A3E4F0A3F009900348E0F8E934
:10285800C39840D8900348E0FA850AF0A4CAA8F0C3
:10286800850BF0A428FB1212828A0C8B0DAE0CAFDC
:102878000DEA4F700302290A900348E0FC850AF02C
:10288800A4CCA8F0850BF0A428FD79001211CE7C09
:10289800008032EDF50C750D007403780C1216DF0C
:1028A8008A828B8312290F8882F583E4F012291C0F
:1028B800A3A3F0A3F00DEDC3950840D7EE250AFEBB
:1028C800EF350BFF0C900348E0F8ECC3985029EC67
:1028D800F50C750D007402780C1216DF9002E912DF
:1028E800290FE82402500109FAE9FB8A82F583EEF0
:1028F800F0A3EFF07D0080BEE5089002EBF07900D0
:1029080080027913024546123C2AF922A3A3122F0A
:10291800E9EA4B22A3F088828983A3A3A3A32274A4
:10292800F41217627900EAA2E0501F75086275096F
:1029380081780812197579107C047D007A1E7B163F
:102948001207847402121708E9F97F04021834C0C8
:1029580082C0839002EC123D2C601C88828983A37C
:10296800A3E06A7003A3E06B8882898370E8A3A35D
:10297800A3A312336880047A007B0002264974F20C
:1029880012176274FD1216F2EAFEEBFF85188285B3
:102998001983E4F0A3F0740212173E7401F0900258
:1029A800EF123D2C70111209341212829002EF12AC
:1029B8002B247003022B181230BEEE2404F50AE40F
:1029C8003FF50B850A82F583E024FE603C24FC6019
:1029D8007424FE607E24FE7003022A6824FE7003BD
:1029E800022A7524FE7003022A8224FE7003022A3A
:1029F8008F24FE7003022A9C24FC7003022ABD2443
:102A0800FE7003022AD5022B111209349002F1EA52
:102A1800F0A3EB122B2D1203BEE96003022B1190D9
:102A280002F112198C8E828F83A3A3A3A3A312424F
:102A3800D1850882850983123368120754740212FB
:102A48001708022B11AC18AD19EEFAEFFB1207A20A
:102A5800022AE0AC18AD19EEFAEFFB1207A880784D
:102A6800AC18AD19EEFAEFFB1207AE806BAC18ADDF
:102A780019EEFAEFFB1207B4805EAC18AD19EEFA46
:102A8800EFFB1207BA8051AC18AD19EEFAEFFB1242
:102A980007C080447402121748880C890D780C12FC
:102AA80019757402121758EEFAEFFB1207C6740272
:102AB8001217088023AC18AD19EEFAEFFB1207CCF9
:102AC800E9F87016740212173EE4F0803CAC18ADB9
:102AD80019EEFAEFFB1207D2E9F8E8602C8E828F24
:102AE80083A3E064146022850A82850B83E0900248
:102AF800F1F08518828519831233689002F2122F3B
:102B0800D1E8A3122B2D1203B8EEFAEFFB12072A15
:102B1800740212173EE0F97403024543EAF0A3EB8E
:102B2800F0F9EA4922F07CF17D0285088285098363
:102B3800122FE92274E812176274FA1216F274045A
:102B480012173EECF0A3EDF08A128B13EA2405F578
:102B58000EE43513F50FEA2402F510E43513F511E8
:102B680085108212360F7508007C037D0079007A83
:102B7800F17B021211CEE50E2402F516E4350FF5AD
:102B8800177402121748880C890D780C121975856C
:102B98000E82850F83A3A3A3A3E0F50C750D00781F
:102BA8000C121975E50E2405F50CE4350FF50D78B2
:102BB8000C12197585168285178312365712170855
:102BC8008A0C8B0DE50C450D7003022D3480208591
:102BD8001882851983E088828983F0050885188220
:102BE800851983A3E0C0E0122D6FD0E0F00508E559
:102BF8000A24FBF8E50B34FFF9C3E50898E499408B
:102C080003022D347E007F00851282851383A3A3DF
:102C1800A3A3E0F5097809121979E4F514F51578F4
:102C2800141219757514EE75150278141219759029
:102C380002EF12198C740912173E12198CE50A2436
:102C4800F9F9AC0CAD0D123669121708E9600302E8
:102C58002CDB850E82850F83A3A3A3A3A3A3A3E0E4
:102C6800F89002EEE068706BE0F5148E1578141297
:102C780019751242CE850E82850F83A3A3A3A3A341
:102C8800A3A3A31233681211C87402121708E960CB
:102C980042123D297034E4F51478141219757CFF3A
:102CA8007DFF79071236781217088B15A915122D92
:102CB800847017850E82850F8312445D7404121781
:102CC8003E123D1612368A022D62850C82850D83CE
:102CD800122D65A818A91988148915781412197560
:102CE800740412173E12198C8516828517831236C2
:102CF800391217088A0C8B0DEE4F7003022BCC1279
:102D08002D6FEE122D7A123620EF122D7AF8A3E0ED
:102D18003400F9E50C4B6003022BD7888289837451
:102D2800FFF00508122D6F74FFF00508E508601420
:102D38001313543F122FD71203CAE96003123C3D04
:102D480079008016850E82850F8312445D74041203
:102D5800173E123D1612398D790A0235F0A3A3A346
:102D6800A3E0FEA3E0FF22A8089002F2E0281236B2
:102D78002022F00508089002F2E028229002F2EAE8
:102D8800F0A3EBF0EA492274E812176274FA1216FB
:102D9800F2740212173E122FD1740412173EECF08F
:102DA800A3EDF0740212173EE024051235FAF583FC
:102DB800E0F50CA3E0F50D740212173EE02402F5CD
:102DC80010A3E03400F51185108212336C750800E9
:102DD800750900EA24FCFEEB34FFFF8008050CE5CA
:102DE8000C7002050DA808C3EE98EF94005003027A
:102DF8002F82A818A919880E890F780E12197585BF
:102E08001482851583A3A3A3A31242AD121975E5F5
:102E1800142405F50EE43515F50F780E121975858D
:102E28001482851583A3A31242D1AA0CAB0D1206F6
:102E38008E74061217088A0E8B0FEA4B7003022F46
:102E480082EA2404F516E4350FF517851682F58312
:102E5800E0F50CA3E0F50D85188285198312198C0D
:102E6800AC0EAD0F85108285118312360612170835
:102E7800E9F5096003022F82740212173E123630F8
:102E8800F5097809121979E4F512F513781212196F
:102E9800757512EE75130278121219759002EF12F9
:102EA800198C740712173E12198CEEF9AC0EAD0F7F
:102EB800123669121708E9F5096003022F82E5083E
:102EC800703BE4F50EF50F780E1219757CFF7DFF47
:102ED80079091236781217088B0FA90F9002F3128E
:102EE8002D87700D740412173E122FC47911022F0A
:102EF800B39002EEE024029002F2F080149002F205
:102F0800E0FA9002EEE0790024025001096A497063
:102F18006DA8089002EEE0FAE82AFAE43400FBEE25
:102F28009AEF9B4055851682851783E0C0E0900292
:102F3800F3122D74D0E0F00508851682851783A357
:102F4800E0C0E0089002F3122D74D0E0F00508907C
:102F580002EE1242AD1219751242CEA808122FB60F
:102F68001217089002EEE02508F50874FF650C704A
:102F78000474FF650D6003022DE5E508601C9002EE
:102F8800F2E0F5F0E50884122FD71203D0E96006C5
:102F98009002F3123C4079008011E509700375092D
:102FA8000A740412173E122FC4A9090235F09002C0
:102FB800F3E028FAA3E0340012428B221242BAE569
:102FC8000CF0A3E50DF022A3A3EAF0A3EBF0229006
:102FD80002F1F07CF17D02851082851183122FE9C0
:102FE8002212397DFB2274EC12176274FC1216F25D
:102FF800123A9D7402121758850A82850B83123182
:10300800BD70030230AE1230BEA818A91988108905
:103018001178101219757CFF7DFF790B8508828560
:10302800098312367E1217081230C8700B850A827F
:10303800850B83123687807B8E828F83A3A3A3A3FD
:10304800E0F5127812121979E4F512F513781212D4
:1030580019757512F1751302781212197578101214
:103068001975740912173E12198C740912173E1239
:1030780031B685088285098312366F121708E9FE72
:1030880070157CF17D0285088285098312336812E8
:1030980003D6E97009801A74166E70027E00123C1D
:1030A8003DEE7004800B7E01850A82850B83123900
:1030B8008AEEF902399FEE2402F508E43FF5092269
:1030C8008A108B119002F2EAF0A3EBF0EA4B22741B
:1030D800EC12176274FC1216F2EAFEEBFF8C0E8DEE
:1030E8000FEA2405F508E43FF5097402121758851C
:1030F80008828509831231BD70030231A6EE2402CD
:10310800F50AE43FF50BA818A91988108911781059
:103118001219757CFF7DFF790D850A82850B831254
:10312800367E1217081230C8700B8508828509830D
:1031380012368780768E828F83A3A3A3A3E0F5122D
:103148007812121979850882850983A3A312198C2C
:103158007512F17513027812121975781012197513
:10316800740912173E12198C740912173E1231B6DF
:10317800850A82850B8312366F121708E9FE700FD5
:103188007CF17D021233621203DCE97009801A7443
:10319800166E70027E00123C3DEE7004800B7E01BC
:1031A80085088285098312398AEEF902399FE0F988
:1031B800AC0CAD0D221239758A0C8B0DEA4B2274BA
:1031C800E812176274FE1216F28A168B178C148D89
:1031D80015EA2405F50CE43517F50DEA2402F50E79
:1031E800E43517F50F850E8212336C8A088B097542
:1031F8000B007C037D0079007AF17B021211CE75F9
:103208000A00E50814F5100424FFF508E50934FF61
:10321800F509804C9002F1E0FA9002EEE0F8EA2815
:10322800F8E43400F9E50898E50999500D9002F1A1
:10323800E0F8E510C3989002EEF0E0F5127513007F
:1032480078121219751242CE9002F2E02A122FBBA0
:103258001217089002EEE0F89002F1E028F0050A53
:10326800850C82850D83A3A3123C364003023347A5
:103278009002F1E0C39508E495094003023347AE94
:103288000AEE2EFEE433FF123389AC18AD19124250
:10329800DBE439FB1206948A128B13AC12AD13EAE5
:1032A8004D701B750B0112337A12398E9002F2128F
:1032B8002916600312123AA90B74020235F2851618
:1032C80082851783A3A3A3A3E0F50B780B121979C2
:1032D800E4F512F51378121219757512EE751302CA
:1032E80078121219759002EF12198C740712173E92
:1032F80012198CA910850E82850F8312366F12174A
:1033080008E9F50B70A0123D29600302321CE4F5B0
:1033180012F51378121219757CFF7DFF790F850E4F
:1033280082850F8312367E1217088B13A913122D6C
:1033380084600302321C12337A12368B0232C17C4B
:10334800F17D02850E82850F831233681203E2E94C
:1033580060030232B479000232C1850A82850B8388
:10336800122FE92212337022F58312397DFB1204E1
:10337800AE2212338912397DF9EA851482851583C4
:1033880022850C82850D83E02EF8A3E03F8882F524
:10339800832274E812176274FA1216F27404121770
:1033A8003E122FD18C168D17740412173EE0240597
:1033B800F50EA3E03400F50F740412173EE0240262
:1033C8001235FA12360F7F007E00A818A91988084E
:1033D80089097808121975850E82850F83A3A3A31E
:1033E800A3E0F5088F097808121975E50E2405F58C
:1033F80008E4350FF5097808121975850E82850FCE
:1034080083A3A31236571217088A0C8B0D80241237
:10341800362AF00F12362AF00F9002EE1239601297
:1034280019751242CEEFF8122FB61217089002EE55
:10343800E02FFFE50C450D607A8518828519831207
:10344800198CAC0CAD0D85148285158312360612C5
:103458001708E9FEE50C2404F510E4350DF511E92B
:10346800704B740412173E123630F508780812199A
:1034780079E4F508F50978081219757508EE7509E3
:103488000278081219759002EF12198C7407121736
:103498003E12198CE50A24FAF9AC0CAD0D8514829C
:1034A80085158312366F121708E9FE603612364604
:1034B80012398DEF70030235DD9002F2E0F5F0EF7E
:1034C800849002F1F07CF17D0285148285158312C7
:1034D80033681203E8E960069002F3123C40790071
:1034E8000235F0EFF508703DE4F512F51378121285
:1034F80019757CFF7DFF7911851482851583123635
:103508007E1217088B13A9139002F3122D877009E6
:1035180012364612368A0235F09002EEE024049004
:1035280002F2F080359002EEE0F89002F2E0FCE85A
:103538002404FAE43400FBEA6C4B60030234C1E56E
:103548000A24FAFAE50B34FFFBE50828F8E434000E
:10355800F9EA98EB9950030234C1851082851183EA
:10356800E0C0E09002F3E02FF8A3E034008882F591
:1035780083D0E0F00F851082851183A3E0C0E012AC
:103588003617D0E0F00F74021217488808890978B6
:1035980008121975740212173E12198C850E82854D
:1035A8000F83A3A31236391217088A0C8B0DEA4B26
:1035B8007003023417740212173EE0C0E012361787
:1035C800D0E0F00F740212173EA3E0C0E0123617E5
:1035D800D0E002341FEE70027E0A850E82850F83CA
:1035E80012364C12398DEEF974061217087F100244
:1035F8001834F514A3E03400F51585148222122F2F
:10360800E912067C7402221233708A0A8B0B22128A
:10361800361B229002F3E02FFAA3E034008A82F5E9
:10362800832212361B74FF221242BAA3A3A3A3E07B
:10363800221242D5AA0CAB0D12069A7404228510E8
:1036480082851183124463F98516828517832212B5
:1036580042D5850E82850F83122FE912068E7406D5
:1036680022851082851183122FE91207FC74092222
:10367800851082851183122FE912076674022212BF
:103688003993E8F0A3E9F079112274EA1217627409
:10369800FE1216F28A088B098C128D13EA2405FE95
:1036A800E43509FF1239698A0C8B0DEE2406F50EF4
:1036B800E43FF50FEA4B7003023778E5082402F57A
:1036C8000AE43509F50B8A828B83A3A3A3E0A2E55C
:1036D80050221237A28A108B11EA4B60247912AC5F
:1036E8000CAD0D123362851082851183121760E9C3
:1036F800F50C707F850E82850F83E0600979528012
:1037080011750C0E806D850882850983A3A3A3A378
:10371800E0F9E4F508F50978081219758E828F83A7
:10372800A3A3E0F50878081219758E828F83A3A3E6
:10373800A312198C8E828F831242D1850A82850B3F
:1037480083123AAF121708E9F50C7011850E8285BD
:103758000F83E0702C1233621203EE802474166912
:103768007011750C00741812173E1242B6E48010DE
:10377800750C01124459851282851383E8F0A3E978
:10378800F0850E82850F83E0600479008002A90C21
:1037980074021217087F0E0218348518828519835F
:1037A800122FE91207F02274EC12176274F712163E
:1037B800F28A0A8B0B8C108D11EA2405FEE4350B76
:1037C800FF750C001239698A088B09EA4B700302ED
:1037D800394BE50A2402F50A5002050B8A828B83CD
:1037E800A3A3A3E0A2E550251237A28A0C8B0DEA09
:1037F8004B604F7912AC08AD09123362850C828593
:103808000D83121760E9F50C600302394E850A82B0
:10381800850B83E0F508A3E0F509AA08FB1207E485
:10382800EA4B70197AFF7BFF1207E4EA4B70030238
:1038380039418A828B83E508F0A3E509F075080011
:103848008008750C0E02394E05089002EBE0F8E589
:1038580008C3984003023941E508F50E750F007456
:1038680003780E1216DF8A828B83A3A3E0250EF855
:10387800A3E0350F123D1E70CF8E828F83123982DE
:10388800122FD18E828F83A3A3123982122FCFEEEB
:103898002404F508E43FF509850882F583E0888269
:1038A8008983A3A3A3A3F0A3E4F0EE2405F50EE413
:1038B8003FF50F850E82F583123982A3A3A3A312C5
:1038C8002FCF7512077513007812121975EEFCEFD9
:1038D800FD740412175012428C121708E4F512787E
:1038E80012121975850882850983E0FC7D00791715
:1038F800850A82850B8312367E1217087407121701
:103908003E1230CF603885088285098312396012EB
:103918001975850E82850F831242D112428C1217B7
:103928000874021217581233621203F4E960237400
:103938000712173E123C408019750C098008750C57
:10394800118003750C011244598510828511831268
:10395800398DA90C74098041E0F5087509007808CB
:1039680022AC18AD198E82F5831239752212397D71
:10397800FB12069422E0FAA3E022122FE98882893A
:103988008322123993E8F0A3E9F022E0F8A3E0F9E2
:10399800850E82850F832274041217087F0C021883
:1039A8003474EC121762123A9D751000EA2402F57D
:1039B8000CE43FF50D850C82F5831233681207E499
:1039C8008A088B09EA4B7003023A81850A82850BC3
:1039D80083E064016003023A76AC08AD09AA0AAB39
:1039E8000B1207D8E9606F850882850983122D6755
:1039F800EE2406F50AE43FF50B8E828F83A3A3120B
:103A0800198C8E828F83A3A3A3A312198C850A8293
:103A1800850B8312198C79188E828F831242D18577
:103A28000C82850D83123AAF121708E9F8741668EC
:103A3800700B850A82850B83E4F0A38014E9601279
:103A48008E828F83123368850E82850F83EAF0A3F6
:103A5800EBF089108018780E121975AC08AD09EED4
:103A6800FAEFFB1207DE7402121708E9F510AA082C
:103A7800AB091207EAE510700E850C82850D8312DA
:103A880033681203FA800974166510700375100004
:103A9800A9100239A4EAFEEBFF8C0E8D0FEA24056B
:103AA800F50AE43FF50B22122FE9120802740622E8
:103AB80074EA1217627508007509007E007F0075A8
:103AC8000A00EC2402F510E43DF5118035EC650898
:103AD8007003ED65096003023B6D88828983A3A3A7
:103AE800E06A7003A3E06B707C88828983A3A3A338
:103AF800A312445DEE28FEEF39FFEA28FAEB39FB02
:103B0800050A123C33503BE50AF50C750D007403A9
:103B1800780C1216DF851082851183123C26123D1F
:103B28001E601FE508450970A48C088D09888289E4
:103B380083122D6588828983A3A3E02EFAA3E03F30
:103B480080BDE50AC394025003023C217508007544
:103B58000900EE4F600FEEFAEFFB1212348A0E8B5B
:103B68000FEA4B70057900023C23750B00807FE556
:103B78000BF50C750D007403780C1216DF85108296
:103B8800851183E0250CF50CA3E0350DF50DE50C4A
:103B98002406F514E4350DF515851482123D2160CF
:103BA8003AE50C2404F512E4350DF513851282F577
:103BB8008312198CE50E2508FAE50F1242851217B3
:103BC80008851282851383E02508F508A3E03509E6
:103BD800F509851482851583123C40E50B600D7C40
:103BE800087D007900AA0CAB0D1211CE050BE50B70
:103BF800C3950A5003023B778510828511831244CE
:103C08005D8882F583A3A3A3A3A3A3E50EF0A3E590
:103C18000F12291DEEF0A3EFF0790102379D123C37
:103C28002A22E0250CF8A3E0350D229002EBE0F8FB
:103C3800E50AC398229002F2122FE912123A22746E
:103C4800F01217628A0E8B0F8C0A8D0B750D00759A
:103C58000C00804A7916EE2406F508E43FF5098E33
:103C6800828F83A3A312198C8E828F83A3A3A3A30D
:103C780012198C85088285098312198C850E828514
:103C88000F83A3A3123AAF121708E9F50D7416694A
:103C98007064850882850983E4F0A3F0050C90021E
:103CA800EBE0F8E50CC398505EAA0C7B008A088B01
:103CB80009740378081216DF850A82850B83A3A38B
:103CC800123D78E8FEE9FF123D1F603BEA24010A35
:103CD80050010B9002EBE06A7001EB601488828956
:103CE80083A3A3A3A3A3A3A3A3123D2C6003023C15
:103CF8005C7918023C5EE960A312445974101217EB
:103D08003E123D1612398DA90D7F0802183412395A
:103D18007DF5838A8222F98882F5831242D5EC4D9B
:103D2800229002F2124463F9E8492274F6121762EB
:103D38007C0080010C900348E0F8ECC398501FEC1D
:103D4800F508750900740278081216DF123D6DE057
:103D58006A7003A3E06B70DCE8FAE9FB80047A0080
:103D68007B00023E099002E9123D788882F58322A1
:103D7800E02508F8A3E03509F92274F21217628ADF
:103D8800088B09750A0080278E828F83A3A3A3A3BB
:103D9800122914600312123A7C087D007900EEFAA9
:103DA800EFFB1211CE8E828F83E4F0A3F0050A1286
:103DB8003C335028E50AF50C750D007403780C1295
:103DC80016DF850882850983A3A3E0250CFEA3E0FE
:103DD800350DFF8E82F583123D2C70AC85088285E7
:103DE800098374FFF0A3F002454674F612176212B5
:103DF80043FA70067A007B008007A3A3A3A31233BB
:103E0800687F0202183474F6121762E9FE8C828DFC
:103E180083E06402703D1243EAF508A3E0F9A808BC
:103E2800740268700374296970297508027509009D
:103E38007808121975740E12173E12198C740E1226
:103E4800173E12198CEEF91211027406121708E9BE
:103E5800F98002790180AA74E812176274FB1216BD
:103E6800F2E9851882851983F08A168B17ECFEED26
:103E7800FF7510008C82F583A3A3A3E0A2E4502A67
:103E8800741D12173E1237A88A828B83E5824583F8
:103E9800700302427B790AEEFCEFFDAA16AB1712FB
:103EA8001760E9F510600302427E741F12173EE0A6
:103EB800F508A3E0F509742112173EE0F50AA3E01E
:103EC800F50B742312173EE0F50EA3E0F50F8E8272
:103ED8008F83E064026003024227A312445D8508D1
:103EE80082850983A3858212858313EE2406F50C47
:103EF800E43FF50D888289831242DBF514E439F535
:103F08001578141219FF010000280128363F070010
:103F18000228024003286B3F0029234101294E4112
:103F28000229EC40032923410429C4412742E50E14
:103F3800450F6003024222850C82850D8312445D81
:103F4800E8FAE98882F583E0850A82850B831242C4
:103F5800E51242921219758A828983A3E0FCA3E0D4
:103F68000241B0E50E450F6003024222850A8285B0
:103F78000B837401F01242C3850882850983F07CA3
:103F8800007D008E828F83A3A3A3A3E02401FAA35C
:103F9800E03400FB120694EA4B60458A828B83E08A
:103FA8002402F8850A82850B83E028F0EA2404F8C5
:103FB800E43BF98882F583E08512828513831242F7
:103FC800EBF08A828B831242921219758A828B8354
:103FD800A31242D1E5082403FAE43509FB0241B5EE
:103FE800850A82850B83E02404F07C047D00790037
:103FF800AA12AB131211CE02427EE50E450F6003E2
:104008000242221242C3FEA3E0FF850A82850B8387
:104018007404F0EE850882850983F0EF85128285A5
:104028001383F074031217581243DC70030240CD57
:104038008A828B83A3A3122D657401121748880EF8
:10404800890F780E121975740512173E12198C7C97
:10405800FF7DFF12069A7404121708EA4B70338525
:104068000C82850D831242AD121975850C82850D5F
:1040780083A312198C7C027D007A187B8212049C1F
:104088007404121708E9700A740112173E74FFF0DD
:10409800A3F08E828F83E064027034750C02750D74
:1040A80000780C1219758E828F83A31242D1E5080D
:1040B8002404FAE4124285121708850A82850B83C4
:1040C800E024028009740112173EEEF0A3EFF074A9
:1040D8000112173E1242A3F0740112173EA31242B6
:1040E8009B02421CE50E450F6003024222850C82AA
:1040F800850D831242B61242D1AA16AB17121108C7
:10410800850A82850B837402F0850882850983EA13
:10411800F0851282851383EB02421FE50E450F607E
:10412800030242221242C3F8A3E0F9850A82850BF2
:10413800837402F0E8850882850983F0E985128294
:1041480085138302421F850C82850D831233681202
:1041580011B0EAF8C3950EE4950F405AEA650E458A
:104168000F700478008021851882851983E0FCE5AA
:104178000E2CFCE4350FFDC3EC9AED94005003E0DF
:104188008005E50EC8C398F8E8850A82850B83F098
:10419800F50A750B00780A121975850C82850D834E
:1041A800E0250EFCA3E0350FFDAA08AB0912428CEE
:1041B80012170802427E75100702427EE50E450F6F
:1041C8007058850C82850D8312445D850A82850BA3
:1041D8008374071242E512429B1242E5A3E085125E
:1041E80082851383F0E82402FAE439FB8A82F58396
:1041F80012429BA31227FC1242A312291C1242A7A7
:10420800F0E82405F8500109F58289831242A7A332
:104218001242EBA3A3A3A3F0805C75100B80577424
:104228001D12173E1243F3604A124463880CF50DC1
:10423800E8450D603E742512173EE0F5107810121F
:104248001979780E121975780A12197578081219E1
:1042580075740712173EE0F9EEFCEFFDAA16AB17CE
:10426800850C82850D831217607407121708E9F50B
:1042780010800375100EA91074050235F235091265
:10428800428B22FB1211B6740222E0F50A750B006C
:10429800780A22E0850882850983221242F52212D3
:1042A80042F5A3A322E0F50E750F00780E22124204
:1042B800BA22E0F8A3E0F583888222850C82850D76
:1042C800831242BAE0229002EF1242D522E0FCA308
:1042D800E0FD2212397DF8E4C8F9EA2822F0888244
:1042E800898322F088828983A31242F522E0850817
:1042F80082850983A3A32274EE12176274FE121634
:10430800F28A088B09ECFEEDFF890AAC18AD191288
:1043180043DC70030243CD8518828519831243F369
:1043280070030243C8A3124462880EF50FE8450FD4
:1043380070030243C8741412173EE0F510A3E0F5A9
:1043480011E50AF50B780B121979741912173E1238
:10435800198C7810121975741B12173E1231B6AAEF
:1043680008AB09850E82850F831217607405121732
:1043780008E9F50B705274FE650A604C850C82855D
:104388000D83E0640270411243EAFAA3E0F9EAF807
:104398007402687003742969702E851082851183F0
:1043A8001242DBF50CE439F50D780C121975EEFCA8
:1043B800EFFDAA08AB0912081A7402121708800840
:1043C800750B0E8003750B01A90B74021217087F79
:1043D8000A021834EEFAEFFB1206948A0C8B0DEAE7
:1043E8004B221244628882F583E022122FE912439D
:1043F800FA221207968A828B83E58245832274F615
:1044080012176274FE1216F2740C12173E12445DF3
:10441800E8851882851983F0740112173EE9F0E4E3
:10442800F508F5097808121975750802780812193F
:10443800757404121748880889097808121975795B
:10444800FE12080274061217087402121708023EB8
:10445800098E828F83124463F922A3E0F8A3E02235
:1044680074F7121762EAFEEBFF89089003061242FE
:10447800D1121108EA5402600BA908EEFAEFFB12F8
:104488000688800279017F0102183474F2121762DB
:1044980074FE1216F2EAFEEBFF74016960137402EF
:1044A8006960030245417901120A18E9600302456F
:1044B80041EEFAEFFB1207E4EA4B60031207EAA8A1
:1044C80018A91988088909780812197575080275D4
:1044D8000900780812197575081C75098278081280
:1044E80019757CFF7DFF7A017B0012068E74061217
:1044F8001708803B850882850983A3A3A3A3A3A3E8
:104508001242B61242D1EEFAEFFB1210FCE4F50C9F
:10451800F50D780C121975740212173E12198C7C5D
:10452800FF7DFFAA08AB0912069A74041217088ABD
:10453800088B09E508450970BB74021217087F0645
:1045480002183474F41217628A088B09ECFEEDFF26
:1045580090161CE0F460487A097B001211DAEA4BE5
:10456800603D8A828B8374B1F0A3E41245AA1227B6
:10457800FDA3E508F0A3E5091245AAA3EEF0A3EF11
:10458800F0740C12173E12445D8A828B83A3A3A396
:10459800A3A3A3A312398D90161CE0F91211E60209
:1045A8002952F08A828B83A3A3A3A322C082C0834B
:1045B8009061907404F0A37448F0A37402F09061C1
:1045C800807440F09061BC7403F09061877419F0B6
:1045D800906265741BF0906249E0C3941390619CEB
:1045E80040107409F09060667401F090619F74281F
:1045F800800D740BF0906066E4F090619F742CF06D
:104608001247997009C29190037A746780059003E4
:104618007A7461F090263EE493906186F090263893
:10462800E493F46006E493F9120B087905120DC6B9
:10463800024A02C082C083E9540FF9906185E0699B
:104648006012E5C654B84441F5C6E59E5447644136
:1046580070F8E9F053C6B8E59E544770FA024A026A
:10466800C082C083A8A853A87E906181E4125477C1
:10467800C2BA539AFEC289759B00C2C275E9007519
:10468800910075BF0075A91175B905906181F0A3F6
:1046980074C0125BFBD2BA439A0174805842A802D4
:1046A8004A02C082C08374F81216F2900378125E30
:1046B80090700302477A900378E0544060177908B5
:1046C800AA18AB19120C04AA18AB19120880900387
:1046D80078E054BFF0E054806010790C7A477B058D
:1046E800120C04900378E0547FF0E0A2E050191215
:1046F80047997009C29190037A7467800590037A8C
:10470800746112478254FEF0E0540260191247DEC9
:104718007009D29190037A7471800590037A746A53
:1047280012478254FDF0E05404600990263C124779
:104738008B54FBF0E05408600990263D12478B54D7
:10474800F7F0E05410600990263E12478B54EFF0C2
:10475800E05420600A12088C900378E054DFF0A33C
:10476800E05401600D120B26120892900379E05470
:10477800FEF07408121708024A02F0120886900325
:1047880078E022E493906186F012088C900378E038
:104798002290619A1249D6900521E0640122C082D4
:1047A800C083E9600514601780291247997009C20F
:1047B8009190037A7467801A90037A746180131257
:1047C80047DE7009D29190037A7471800590037A5C
:1047D800746AF0024A0290619A1249C8900521E071
:1047E80064012274EA12176274F41216F29081D0EE
:1047F800AC18AD19740412160590263C93F46003A6
:1048080002495D907808E0C3940250030249419040
:10481800813A74041217587408121605A818A919B1
:1048280088148915740412174888088909AE08AFD6
:10483800097510FF7511FF750EFF7C00750C487522
:104848000D78801274086C70030248D674096C6085
:104858007D740A6C6078850C82850D837808121542
:104868009E8E828F83A909E50AC9F5127418780803
:104878001214C7E5124508F8C3E098A3E099850C1F
:1048880082850D83780812159E40188E828F837456
:104898001878081214C7E5124508F8E0C398F8A379
:1048A800E0801A741878081214C7E5124508FAE966
:1048B800FB8E828F83125B0FEAC398F8EB99F9C3DA
:1048C800E89510E995115006881089118C0E0CE5B1
:1048D8000C2404F50C5002050DECC394135003028C
:1048E800484C74FF6510700474FF65116025E50E6F
:1048F800F508740278081216DF74482508F58274E2
:10490800783509F583780812159E851482851583F4
:10491800E508F0EE2402FE50010F85148285158308
:10492800A3858214858315740C12173EE5826E7078
:1049380003E5836F6003024839750801750900783B
:104948000812197574021217587A8F7B09121150C0
:104958007402121708740C1217087F0E021834C05C
:1049680082C0839061AE7468F0A3746AF090624567
:1049780074FBF0A304F053F4FD43FE029005217488
:1049880001F09061A0E0643A90619A70191249D6DA
:10499800740164017009C29190037A7467801E9053
:1049A800037A746180171249C8740164017009D2CE
:1049B8009190037A7471800590037A746A024BF1BE
:1049C800743FF0A3745AF09061A0747FF02274339E
:1049D800F0A37455F09061A0743AF022C082C083AD
:1049E8009004D3E06401700A9004D8E06004790C64
:1049F800800279008004A2E092AFD083D0820201C5
:104A08001FC082C08375E1F19004D6E06053146042
:104A18000914605714604F147056120B389004C56F
:104A2800E0F97AC67B04120D489081CC1215BC12AD
:104A38000D7E9081F01215BC120D549004D7E0F948
:104A4800120D607901120DBA9004C3124D5F241A39
:104A5800F582E438F5837450F0A3740BF079008084
:104A680099120B3E80B7120B4480B2120B4A80ADEC
:104A7800791280EB74F412176275D90D9004CCE0AA
:104A8800A2E0E4331313F8124C4C484401F5D975ED
:104A980082C6758304124C567004E583640470F56D
:104AA8007582CD758304124DB8E58264D37004E530
:104AB80083640470F175E1959004CCE0F97ACD7BBC
:104AC80004120D4E90164074DEF0A3740A124BA027
:104AD800124BDE124BD5124D279004D6E06401909C
:104AE80004C3700B124B3112159E908190800912ED
:104AF8004B3112159E90818478081215129081D836
:104B080078081215789004C3125A0BE438F58378A4
:104B1800081215AD9004C3124D5F124BCC7413F0FC
:104B28009003767402F0025AFC125E18A3A3780868
:104B380022C082C083124C3CF5D97582C6758304A5
:104B4800124C567004E583640470F59004DCE06050
:104B58000A78C37904FA124CF0DAFB124CDF124CD3
:104B6800567004E583640470F59004FCE0600D78E9
:104B7800C37904FAE8243A124CF3DAF875E195900F
:104B8800164074EAF0A3740A124BA0124BAA7412CE
:104B9800F090037674018051124D1074E4F0A37400
:104BA8000A22124BDE124BD5124D2B9004C3125A17
:104BB8000FE438F58374FF1254659004C3124D63F3
:104BC800124BCC222414F582E438F58322F0A37426
:104BD800FCF0A3740A22124BE222124BE622F0A345
:104BE8007464F0A3740C22F0A3F0024A02C082C0DD
:104BF80083124C3C4402F5D97582C6758304124C65
:104C0800567004E583640470F59004DCE0600A786B
:104C1800C37904FA124CF0DAFB75E195901640124C
:104C28004C5FF0A3124C5F124BAD7414F0900376F6
:104C3800740480B59004DC124C4322E02407F5D9B3
:104C4800124C4C229004C5E0C4333354C022E0F522
:104C5800D9A3E58264CC2274F6124C6C124C6CF029
:104C6800A3740A22F0A3740AF0A374F622C082C0C7
:104C780083124C3C4406F5D97582C6758304124CE0
:104C8800567004E583640470F59004DCE0600A78EB
:104C9800C37904FA124CF0DAFB124CDF124C56704E
:104CA80004E583640470F59004FCE0600D78C37932
:104CB80004FAE8243A124CF3DAF875E195901640B4
:104CC80074F0F0A3740A124D06124BAA7415F090F2
:104CD80003767403024BF19004FC124C434404F530
:104CE800D97582C675830422E8241AF582E439F559
:104CF80083E0F5D988828983A3A882A98322124DEB
:104D0800107464F0A3740C22124D1422124D2174F5
:104D180064F0A3740C124D2122124BE6F0A3221268
:104D28004D2B22F090164E7464F0A3740C124D149F
:104D38007464F0A3740C124BE2F022C082C083901A
:104D480004C3124D5F2406F582E438F583E4024B70
:104D5800EF851882851983124D6322E0F8A3E0C815
:104D68002274F71217629003A4125B0174A628F844
:104D7800740339F9E82405FAE439FB8A82125BE105
:104D8800A3A3A3A3A3A3A3A3A3125E77A3A3A3A3ED
:104D9800A3A3A3E024FFF8A3E034FFF98A828B835E
:104DA800125E49024F9D7C017903120C587402224D
:104DB800E0F5D9A3221250D83BF583E022F0EA248B
:104DC80084F582E43BF583E022EAF8EE28F8E43B38
:104DD800F9E82274F7121762EAFEEBFF9061D0E05F
:104DE800706875D90E75D90375D9047A00124DD13A
:104DF800248D124E6C40F67A00124DD12485124E45
:104E08006640F675E1957908EE248D124E5F24858B
:104E1800124E577C00ECF8C3E498FA95E0FBEE2AB2
:104E2800FAEF3BFBEA248C125DEDC0E0EE28F8E4D3
:104E38003FF9E824ACF582E439F583D0E0F00CECD6
:104E4800C3940840D0124F5F80027900024F9DFA48
:104E5800E43FFB120BF822124E577904EE22124E51
:104E680072940422124E72940822F582E439F58372
:104E7800E0F5D90AEAC322C082C08375D90275D980
:104E88000375D90575E195EA124EF73B125B0DEAF9
:104E98002471F582E43B124F6C024A0274F6121731
:104EA80062EAFEEBFF9005277406124F0612197589
:104EB800124DAE12170875D90675D9037582277574
:104EC8008305124EFD7004E583640570F575E19560
:104ED800900376E064087011124EF63F125B0DEEF7
:104EE8002471F582E43F125E47790102504BEE24AB
:104EF8006FF582E422E0F5D9A3E582642C22F075EF
:104F0800082775090578082274F6121762EAFEEB7D
:104F1800FF9061D0E070337801900527740BF09012
:104F28000376E06407701375082775090578081279
:104F38001975124DAE12170878051251C3124DB8E3
:104F4800DAFB75E195124F5F8002790002504B75CC
:104F5800E1957904120D84EE246F125E96EE2471A9
:104F6800F582E43FF583E8F0A3E9F079012274F7CC
:104F7800121762EAFEEBFF75D90375D90375D90DCF
:104F8800EA24DF125CDAF5D9124F578008F0EEA256
:104F9800E092AF79007F01021834E8C39A95E0C324
:104FA80065D0332274F61217621250CC60047A0F5F
:104FB80080027A0B124FA240437C09900527EC121D
:104FC800501D12502CDDFB125CD76019750827752F
:104FD800090578081219757903EEFAEFFB124DB23C
:104FE8001217087C0D1250081250C370FB75E1951A
:104FF8007904120D8412514C7901800279008043A2
:1050080012500E8C082274012CF5D975D9037582BB
:105018002775830522F0EE24E4F8E43FF97A287B2B
:10502800057D082288828983E08A828B83125E7FCD
:10503800A3A882A9838A828B83A3AA82AB8322A294
:10504800E092AF7F0202183474F61217621250CC45
:1050580060047A0C80027A08124FA2405A780690AF
:105068000527740CF0900393E0900528F0900394C2
:10507800E0900529F0900395E090052AF0900396BA
:10508800E090052BF0900397E090052C125160609A
:105098001975082775090578081219757C067903AA
:1050A800EEFA124DB2121708780A12515A1250C36A
:1050B80070FB124F57800279008088E0F5D9A3155C
:1050C80008E50822EAFEEBFF1250D83FF583E022FC
:1050D8009061D0E0F87480C398F8EA2484F582E4FB
:1050E8002274F61217621250CC60047A0880027A91
:1050F80004124FA240497802900527E8F0EE24F602
:10510800125CDA9005281251606019750827750934
:105118000578081219757C027903EEFA124DB2125D
:105128001708780612515A1250C370FB75E1951290
:10513800514C7904120D84EE240D124F62800279CD
:105148000002504BEE241DF582E43FF583E4F0A302
:10515800F0221251C9880822F0EE2484F582E43F37
:10516800F583E02274F6121762124DBD60047C08C4
:1051780080027C04E8C39C124FA5403A780290054F
:10518800277407F0EA24F7125DED900528124DC543
:10519800601575082775090578081219757C0212BB
:1051A8004DB012170878061251C3124DB8DAFB75C4
:1051B800E19579018002790002504B1251C9E8FA51
:1051C80022740128F5D975D90375822775830522BC
:1051D80074F6121762E9FEA2AFE433FDC2AF7C0099
:1051E80080010C125DEAF8ECC3985014ECF8EA124E
:1051F8004DD4246AF582E439F583E06E70E48018B2
:10520800EA246EF8E43BF9E0F508EA2508FAE43BFD
:10521800FB1252B1EE125368ED02504774F61217A2
:1052280062EAFCEBFDA2AFE433F508C2AFEA246EF4
:10523800F582E43DF583E014F0EA246AFAE43DFBE4
:10524800EA2403F8E43BF9E8FEE9FF8A828B83A3AA
:10525800A882A983E08A828B83F0E8FAE9FBEE6AE8
:105268007002EF6B70E5EC246DF582E43DF5837414
:10527800FFF0EC2469F582E43DF583E4F0E50802EB
:105288005047C082C083A2AFE433F8C2AF1252B114
:10529800E9F0EA2469F582E43BF583E4F0125DEA7B
:1052A80070037401F0E80249FEEA246AF582E43BDF
:1052B800F5832274F3121762EAFEEBFFECFAEDFBBA
:1052C8008C82F583A3A3A3A3E0541FF0EE2436F544
:1052D80082E43FF583E4F0750800EE245DFCE43FCA
:1052E800FD8A828B83E08C828D83F0750900E50846
:1052F80033333354F8F50C8A828B83E0F50A750B47
:1053080000E509780A1216C0E50AA2E05027EE2443
:1053180036F8E43FF98882F583E0F50AEE250AF5C8
:105328000AE43FF50BE50A2438F582E4350BF583EA
:10533800E50C1253680509050CE509C3940840B744
:1053480005088A828B83A3AA82AB838C828D83A370
:10535800AC82AD83E508C3940540867F0502183406
:10536800125E7FE004F022C082C0839003A2E06452
:1053780001700302545D7C009003A8E060030254AE
:105388005D125BF9A3F090040804F090040DF0900E
:1053980003AB1254649003B504F09003DBE4F0907F
:1053A80003BE12546BA3F0900426F090041AF090F8
:1053B8000429F090040E7480125BFB900414F090A2
:1053C800049212547D90049BF090042AF090047A81
:1053D80012547DA3F0A3F0900486F0900488F09016
:1053E8000484F090049E12547D9004B1F09004ABB4
:1053F80012546B74FF9004107804F0A3D8FC7A035D
:105408007B0478B6790412502CE864BB7003E96415
:105418000470F3788A790388828983E0C0E0ECFA23
:10542800748A2AF582E43404F583D0E0F00C88828B
:105438008983A3A882A983ECC3940840DA9003A2C5
:10544800E004F0640170089003AAE09003A4F07AE5
:10545800A67B0380047A007B00024A02E412547798
:10546800A3F02212546F22125477A312547722F019
:10547800A3F0A3F02212546FA3F0A3F022C082C0BD
:10548800838A828B83A3A3A3E0600F8A828B83A382
:10549800A3A3E4F09003A3E014F09003A2E014F0B7
:1054A80070069003A474FFF08A828B83A3A3E4F0B0
:1054B8009004BBE0700D9003A3E0640170057900CF
:1054C800120D66024A02C082C0839003A9E4F090DC
:1054D80003A8F09003A2F0A3F0A374FFF075E1F124
:1054E800024A0274E812176274F41216F2851882DE
:1054F800851983EAF0A3EB125A8D125A371215C890
:10550800740212173E1215D488828983A3A3A3A319
:10551800A3A3125B0F740612173E125E497424127D
:10552800173E121988740612173E1215BC122389E9
:105538007404121708E96003025998125A61121983
:1055480088742812173E1215BC1223E5740412172A
:10555800088A088B098C0A8D0B125A767003025838
:105568003A124D592475F582E438F583C082C08318
:10557800851882851983125A2BA3125B0FD083D00A
:1055880082E0C398F50CA3E099F50D125A766402EF
:105598008518828519837008125A0BE83401800334
:1055A800125A21F583E0F510A3E0F511850C148556
:1055B8000D15751600751700E4F512F513781479B2
:1055C800101213D8740812173E78141215AD125A17
:1055D80061781012159E740812173E781012151271
:1055E8007810121971742812173E1215BC122389EB
:1055F8007404121708E9700302583A85188285194D
:1056080083E0125A01F583E0F510A3E0F511E4F503
:1056180012F513740812173E780812154C78087999
:10562800101214FF90819C780812151285101485A9
:1056380011158512168513177808791412145885D0
:105648000814850915850A16850B17781479101220
:1056580013D8E50C2508FEE50D3509FF125E257403
:105668000812173EC082C083124D592478F582E48F
:1056780038F583125A19E4F50AF50BD083D08278ED
:1056880008121512780879141214FF125A76640158
:10569800600302588D851882851983E02477FCA35E
:1056A800E03400FD851882851983E0FAA3E0FB1237
:1056B8000BDA124D59125A482420125AB9241CF5F3
:1056C80082E438F583E4125AC3241DF582E438F5E0
:1056D80083E4F0A3125AC32407125A4A1259F8E075
:1056E80028F8A3E039125A54240B125AB9247A1212
:1056F8005A4A242EF582E43AF583E0687003A3E061
:10570800697042851882851983E0247EF582E43A1F
:10571800125A4E2432F582E43AF583E0687003A306
:10572800E0697021851882851983E0247CF582E47C
:105738003A125A4E2430F582E43AF583E068700351
:10574800A3E069605F124D59247EF582E438F58341
:10575800E0F50CA3E0F50D7404780C1216D0780C63
:10576800121975740212173E124D5F247CF582E4FB
:1057780038F58312198C740412173E124D5F247A7F
:10578800F582E438F583E0FCA3E0C313FDEC13FCD9
:10579800740412173E125A2BE0FA7B001208E674C2
:1057A80004121708851882851983E0242EF8A3E0CF
:1057B8003400F9E8FAE9FB8882125B0D85188285C6
:1057C8001983E0FCA3E0CC240EF582EC3401125AD4
:1057D800BD2477F582E438F583E0C0E0124D592402
:1057E8002BF582E438F583D0E0125A8D125A011253
:1057F8005E6BECF0A3ED125AC3125A482430125AC9
:10580800B9247E125A4A2432125AA5121667125A1D
:1058180055246F125AA5121667EA4B600A124D59A1
:10582800124EF738125C96124D59125A847402F0CF
:105838008053851882851983E0242EFAA3E034006A
:105848008A82F583E0F50CA3E0F50DE4F50EF50F7B
:105858007808790C1214FF90819C7808121512852B
:105868000C10850D11850E12850F1378087910120A
:105878001458AE08AF09125E25E4F50AF50B78084E
:10588800790C1213D8125E0E125B0FE8FAE98882BF
:10589800F583A3A3A3A3A3A3A3A385080C85090D3C
:1058A800850A0E850B0F780C121512740212173E1A
:1058B800780C1215AD8A828983E064407073124DAA
:1058C800592418F582E438F58378081215AD85183F
:1058D80082851983E02412F508A3E03400F50978DD
:1058E80008121975740212173E124D5F2410F582C2
:1058F800E438F58312198CEE24FFF50AEF34FFF52E
:105908000B780A121975740612173E125A21F5837C
:10591800E0F50AA3E0AA0AFBE4FCFD1225257406BB
:10592800121708AC08AD09740212175012246380CC
:1059380009740612173EE4F0A3F0851882851983CE
:10594800E0125A37E82408FCE439FD7406121605FB
:10595800740212173EC082C083125E0EE02402FC5D
:10596800A3E03400FDD083D0827406121605124DD0
:10597800592435F582E438F583E0C0E0124D592406
:1059880034F582E438F583D0E0125A9EFB121B4DA1
:10599800124D59240BF582E438F583C082C0831276
:1059A8004D592407F582E438125B0DD083D082E08C
:1059B800C398F8A3E099125A541259EEE8F0A3E9F3
:1059C800125A9ECA1259F8C3E098A3E099500D855F
:1059D8001882851983E01259EE125BF9740C1217BC
:1059E800087F10021834240CF582EA3401F583226A
:1059F800240DF582E43AF58322247AF8A3E03400F2
:105A0800888222125A0F22E0F8A3E0C8240EF582F9
:105A180022E0F508A3E0F50922124D63242EF58251
:105A2800E43822125A2F22125E1CA3A3A3A322F841
:105A3800A3E0F5838882125E9C8882F583A3A32263
:105A4800247CF582E438F583E0F8A3E0F985188230
:105A5800851983E0FAA3E0CA228518828519831282
:105A68005E18124D632408F582E438F58322851800
:105A780082851983124D63125A84E0222474F582B8
:105A8800E438F58322125A9122125A96E022F085C0
:105A9800188285198322125A91FAA3E022F582E42A
:105AA8003AF583E8F0A3E9F0780079FAECFAEDFB2F
:105AB80022F582E43AF583E8F0A3E9125A91F8A3B3
:105AC800E0C82274F4121762780079009003A9E004
:105AD8006018125DCD78081219717AA67B03120B33
:105AE800BC740412170878A6790388828983A3A353
:105AF800A3A3E0F97F04021834E0F875F010A4C8F5
:105B0800AAF02AF922F583125E9C2274F612176213
:105B180074FC1216F2EAFEEBFF9004BDE0F8900464
:105B2800BCE0288050EE2463F8E43FF97A007B005B
:105B3800A2AFE433F508C2AF125BED602488828916
