:020000040000FA
:20000000020B44022191FFFFFFFFFFFFFFFFFFFFFFFFFFFFFFFFFFFFFFFFFFFFFFFFFFFFF5
:20002000FFFFFFFFFFFFFFFFFFFFFF0228B5FFFFFFFFFFFFFFFFFFFFFFFFFFFFFFFFFFFFFE
:20004000FFFFFF02288CFFFFFFFFFFFFFFFFFFFFFFFFFF022207FFFFFFFFFFFFFFFFFFFFD9
:20006000FFFFFFFFFFFFFFFFFFFFFF02291BFFFFFFFFFFFFFFFFFFFFFFFFFF0228DEFFFF4C
:20008000FFFFFF021FE701FFFFFFFFFFFFFFFFFFB0B1FFFF882B942BCA2BC42BFF0000B4FB
:2000A000000028002800283075A000A000A000A00000080008E001F0001000100010001082
:2000C000001000100050005000500010001000D0070000000000000F000100050030750758
:2000E000001000010081FF00000000FFFFFF022D202D082D442DFF02020208025000A00051
:200100000000E803021888010000EE87020E88010000D9170212880100008B02020E880190
:200120000000DA17021488010000A102020E88010000DB17021A88010000A302020E88011E
:200140000000DC17021C88080000A402020E88010000DD17022288010000DE17FFFF01002A
:20016000FF20021888010000F187020E880100004318022488000000000002108803000006
:20018000D40217007E357E357E357E357E357E357E357E357E357E357E357E357E35B23772
:2001A000D037AC37F6380839F038011E3B030301013FE0FFE1FFE2FF32E1FFE0FF303E0C12
:2001C0007777772E6A6E6875616D616F2E636E00021888030000EB87020E88030000A018D0
:2001E000029618030000560E021088030000570E020C88010000A218020E88010000A11843
:20020000029818020000560E020C88010000A2183330300201061AFF4C00021574278BDA5D
:20022000B64445208F0C720EAF05993500010102C5071600B0000000000302E0FF020A003C
:200240000E09484D536F66740000000000000000FFFF100020005802FFFF003031323334D6
:20026000353637383941424344454600286E756C6C20706F696E74657229003031323334AF
:200280003536373839616263646566003F3F3F000000807F0000803F00000000F90215501B
:2002A000B743BA510000204100E7DB2E0000A040E5C754F84401F5C779012200000080FBF8
:2002C000120AB0B90003020B2EE479217808B800028004F709D8FCE479297802B800028011
:2002E00004F709D8FCE4900200787779168002F0A3D8FCD9FA781A9008867A01BA0002800F
:2003000007E493A3F608DAF97A767B17900894781D79038015E493A3AD82AE838A828B8303
:20032000F0A3AA82AB838D828E83D8E9D9E77582EC75839F7405120B567582BB75830A74A1
:2003400000120B5675D00075813F751800751902759F00020AC0C09FF59FE473D09F22D008
:2003600083D082C09FE493C0E0740193C0E0740293F59F22E066701008A3E066700A08A3EF
:20038000E066700408A3E06622C008C3E096F50808A3E096420808A3E096420808A3E0969B
:2003A0004208A2D265D033E5087001D3D00822C3E7960809E7960809E7960809E79622C31D
:2003C000E09608A3E09608A3E09608A3E09622C008C3E096F50808A3E096420808A3E09698
:2003E000420808A3E09645087001D3D00822080808E630E7111214A8120C06080808C644CD
:2004000080C618181822181818E9799EC608CAC608CBC608CCC6C370207996CACBCC701907
:20042000798ECBCC70137986CC700EF9802ACA33CACB33CBCC33CC331930E7F2CCCBCA336B
:2004400050147004EA30E00DE4CA3ACACB3BCBCC3CCC500209C3E913C6CC182313C6CB18C3
:20046000C6CA18C6F922120CA620F01430E72B74FFFCFBFA747F8022E4FCFBFA7480801A6D
:20048000B48008BC00F2BB00EF800F50EBF9E4C39AFAE49BFBE49CFCE499C6CC18C6CB1804
:2004A000C6CA18C6F922E4C9C608CAC608CBC6D3330308CCC63392F0C3947F402E94184087
:2004C00019C9B90704CACBCC225025C309CA33CACB33CBCC33CC33D9F422F4600DC9CCC37C
:2004E00013CB13CBCA13CAD9F6CC22E4FCFBFA2214FCFBFA22E62618461846184622E72768
:2005000019471947194722181818E60846087009E626087005E633F4220822191919E7097F
:2005200047097009E727097005E733F4220922E6084608C3134608336002E633F422E709F7
:200540004709C3134709336002E733F422120D2F6025120D3E6020120CF57003020CFE0816
:200560000808E76670101819E766700A1819E76670041819E76622F422120D2F601C120D15
:200580003E6017120CF57007120CFE7001D322C0D0120CFE7006D0D0B322C32233D0D050FB
:2005A0001430E0F6C3E7960809E7960809E7960809E796B32220E0D5E6970809E697080971
:2005C000E6970809E697B322120D2F601B120D3E6016120CF57007120CFE600CB322C0D028
:2005E000120CFE7005D0D022C32233D0D0501330E0EBC3E7960809E7960809E7960809E73E
:20060000962220E0E4E6970809E6970809E6970809E6972200120D2F604F120D3E6012E742
:20062000548066F6120D077011120CFE703B090909F4F618F618F618F622120D1B701512FA
:200640000CF508080860EAE6447FF618768018E4F618F622120CF56016120CFE7012E4F667
:2006600008F608F608E65480F609090918181822EAC0E0EBC0E0ECC0E0EDC0E0E687F0A412
:20068000FBACF008E687F0A42CFCE435F0FA1809E687F0A42C4B60027401CA35F0FCE4331D
:2006A000FB09E687F0D2F7A42CCB35F0FC1908E687F0A42BCC35F0FBE433FD0819E687F089
:2006C000D2E7A42C4ACB35F0CD3400FC09E687F0D2E7A42DCC35F0FDE433FA0918E687F0ED
:2006E000D2F7A42CCD35F0CA3400FC08E687F0D2E7D2F7A42ACC35F07A7E20E70B0ACB33BD
:20070000CBCD33CDCC33CC33CB3350147004ED30E00ED2F1E4CD3DCDCC3CCC3B5005DA05A1
:20072000C2F1EB547FC63308E63392F0FBE73309E733C39A502D2B70190C0D4C4D70151897
:2007400006E608C333700D20F10AA2F013F6E418800B4024E4F630F002768018F618F6186B
:20076000F68024D33B14501074FFA2F013F6187680E418F618F6800FA2F013F618E63303E3
:20078000F618ECF618EDF6D0E0FDD0E0FCD0E0FBD0E0FA22120D3E6046120D2F603DE9685F
:2007A0007008F618F618F618F622748067F7120FC8090909748067F722120D2F601D120DCB
:2007C0003E7005191919801A120D07701F120D1BC37003E6673319191940071818182208D8
:2007E000080874FFF618F618F618F622120D1B6017120CFE702192F0120CF5701950172031
:20080000F014080808090909E7F61819E7F61819E7F61819E7F622120CF560E6E869701F3F
:200820000808E62480F608E436F618547FB47F0CE654806007F6E418F618F622181822E972
:20084000C6CC08C6CD08C6CE08C6CFC0E0E8C0E0EAC0E0EBC0E009E9F809E7FA09E7FBE650
:20086000F918E6F8C3EC98ED99EE9AEBC2E7F5F0EFC2E795F0500E600CEBCFFBEACEFAE984
:20088000CDF9E8CCF8EAA2E7D2E7FAEB33FB13F5F0EEA2E7D2E7FEEF33FFC5F013A2E730DF
:2008A000E601B313C5F0C3C0E0C0F07F00C39BFB605E9418600F401D14601AD0E023F9D08B
:2008C000E0F802119A8AF0E9486003D2F0E4AFF0FAF9F8803BEB30E40D89F0EA6003D2F006
:2008E000E4AFF0F9CAF8EB30E30D88F0EF6002D2F0AFF0E4CAC9F8EB54076014FBC3EA13A1
:20090000FAE913F9E813F8EF135002D2E0FFDBEDD0E0C0E030E739C3E49FFFF5F0EC98FCDE
:2009200042F0ED99FD42F0EE9AFE42F0D0E0F9D0E0F8E5F0607AE923F9EE20E742D8028082
:2009400067C3EF33FFEC33FCED33FDEE33FE80EAEC28FCED39FDEE3AFED0E023F9D0E0F8BE
:200960004002801BC3EE13FEED13FDEC13FCEF135002D2E0FF08B800067F7F74FF802EEF07
:200980003350178CF020F00260100CBC000C0DBD00080EBE000408E860DFE933E813FFEE16
:2009A0002313FE4F4D4C8008E95480FFE4FEFDFCEE33EF33F47004FCFD7E80D0E0FBD0E0FF
:2009C000FAD0E0F8D0E0CFC618CEC618CDC618CCC6F922120D2F700418181822120D3E701B
:2009E0000D74FFF61819F61819F61819F622E7548066F6120CF5700F120CFE70F014F608B3
:200A0000F608F608F680D1120CFE700CF608F608768008E6447F80EC120D1E700C120D0A0A
:200A200060BFE65480F6E480BB120D0A700519191980A5E869700C763F18768018F618F60E
:200A4000E8F922E6CDC0E018ECC0E0E633CD33CDD313F6E719FCE7191933CC33C3947F407D
:200A60000ECD9D502408E65480F6E418F6800FF4043D14501408E6447FF6187680E418F6FD
:200A800018F6D0E0FCD0E0FD22CCD313CCFD18E4C6CBC0E018E4C6CAC0E00808ED08C633FB
:200AA000E613F618E433C675F003C3CA97CA09CB97CB199C40047D08802EBD000302137C49
:200AC00016B6FF050606081618C3CA33CACB33CB33CA27CA09CB37CB193CC37D08803E187A
:200AE0007D0820E75CC633C6CA33CACB33CB33DDF1D5F0EB30E77BCA97CA09CB974ACB19B8
:200B00009C406F4B7025E620E0218066187D08C3CA97CA09CB97CB199CD3C633C6CA33CAEE
:200B2000CB33CB3350C9DDE7D5F0E1D3E4C636C608C636C608C636C608C636C61818188097
:200B400031C3CA97CA09CB97CB199CB34097C633C6CA33CACB33CB33DD34D5F02EC6A2E033
:200B6000C640C8CA27CA09CB37194A70BECB3CB480B90808E63308E633601F181818D0E09B
:200B8000FAD0E0FBD0E0FCD0E0FD22187D08CA27CA09CB37CB193CD3808013F618E4B67FA5
:200BA00011F618B6FF0EF618C60470D20808768080CAF618F618F680C5080808EAC0E0EB05
:200BC000C0E086F0E7A4FA180986F0E7A42AFA180986F0E7A42AFA180986F0E7A42AFA198F
:200BE00086F0E7A4FBE5F02AFA190886F0E7A42BFBE5F03AFA190886F0E7A42BFBE5F03A58
:200C0000FA18180986F0E7A4C5F02BFBE43AFA1908E7C5F0C6A426F6E5F03BFBE43AFA182F
:200C200086F0E7A4F6E5F00826F6E43B08F6E43A08F6D0E0FBD0E0FA22E4CFC0E0E4CEC04F
:200C4000E0E4CDC0E0E4CCC0E075F020E626F608E633F608E633F608E633F6181818EC33E0
:200C6000FCED33FDEE33FEEF33FFC3EC9709ED9709EE9709EF97191919400FFFEC97FC090A
:200C8000ED97FD09EE97FE191906D5F0BFECF709EDF709EEF709EFF7191919D0E0FCD0E037
:200CA000FDD0E0FED0E0FF22181818E4C396F608E496F608E496F608E496F622601608082D
:200CC00008C6C313C618C613C618C613C618C613C6D5E0EA22700908080822601618181853
:200CE000C6C333C608C633C608C633C608C633C6D5E0EA22E627F60809E637F60809E63707
:200D0000F60809E637F622E026F608A3E036F608A3E036F608A3E036F622E026F008A3E0D3
:200D200036F008A3E036F008A3E036F022C3E697F60809E697F60809E697F60809E697F647
:200D400022C3E096F008A3E096F008A3E096F008A3E096F022E657F60809E657F60809E685
:200D600057F60809E657F622E056F608A3E056F608A3E056F608A3E056F622E056F008A31C
:200D8000E056F008A3E056F008A3E056F022E066F608A3E066F608A3E066F608A3E066F678
:200DA00022E0F608A3E0F608A3E0F608A3E0F622E6F008A3E6F008A3E6F008A3E6F022E03B
:200DC000FAA3E0FBA3E0FCA3E0FD22EAF0A3EBF0A3ECF0A3EDF022E0F8A3E0F9A3E0FAA38D
:200DE000E0FB22E8F0A3E9F0A3EAF0A3EBF022CAC0E0E6F0A308DAFAD0E0FA22CAC0E0E0B0
:200E0000A3C582CCC582C583CDC583F0A3C582CCC582C583CDC583DAE6D0E0CA22C3E49893
:200E2000F8E499F912165E8026C3E49AFAE49BFBE920E7E912165EE498F8E499F922C3E451
:200E400098F8E499F912165EE498F8E499F9C3E49AFAE49BFB22EB20E7CFE920E7E0B900FB
:200E600010BB0008E88AF084F8AAF022E4FBC8FA22EB70227B10C833C8C933C9335007C365
:200E80009AC3DBF280069A50012ADBEAC833F4C8C933F4C9FA2275F008E4C833C8C933C963
:200EA00033C99AC99B5004C92AC93BD5F0ECFBC833F4C8E4C9FA22600D08C6A2E713C6180C
:200EC000C613C6D5E0F322600C08C6C313C618C613C6D5E0F422700422600D18C6C333C6B4
:200EE00008C633C6D5E0F41822251810AF08F518400C15198008F51840021519D2AF220015
:200F0000C0D0251810AF08F518500C05198008F51850020519D2AFD0D0222518F58210AFFB
:200F200008F518400C15198008F51840021519D2AF851983222518F582E43519F5832225B4
:200F400018F8E43519F9222518FAE43519FB222518FCE43519FD22E4732518C582C0E0E5C4
:200F60001934FFC583C0E0E518C3958224F810AF088583198582188008858319858218D2A9
:200F8000AFCEF0A3E520F0A37808E608F0A3DEFAEFF0A3E58124FAF8E608F0A3E608F0A3D0
:200FA000E608F0A30808E608F0A3E608F0A315811581D0E0FED0E0F8158115811581E8C0B2
:200FC000E0EEC0E0222518C582C0E0E51934FFC583C0E0E518C3958224F910AF0885831968
:200FE0008582188008858319858218D2AFCEF0A3E520F0A37808E608F0A3DEFAEFF0A3E550
:201000008124FBF8E608F0A3E608F0A30808E608F0A3E608F0A315811581D0E0FED0E0F8A2
:2010200015811581E8C0E0EEC0E022851983851882E0A3FEE0A3F5207808E0A3F608DFFA19
:20104000E0A3FFE0A3C0E0E0A3C0E0E0A3C0E0E0A3C0E0E0A3C0E010AF0885821885831958
:201060008008858218858319D2AFD083D082020B5C851983851882E0A3FEE0A3F520780840
:20108000E0A3F608DFFAE0A3FFE0A3C0E0E0A3C0E0E0A3C0E0E0A3C0E010AF08858218857D
:2010A00083198008858218858319D2AFD083D08222C0D02518C582C0E0E51934FFC583C097
:2010C000E0E518C3958224F310AF088583198582188008858319858218D2AFC8F0A3E9F0BE
:2010E000A3EAF0A3EBF0A37908E709F0A3D8FAECF0A3EDF0A3EEF0A3EFF0A3D0E0F0A3D067
:20110000E0F0A3D0E0F0A3E520F0A3E5F0F0A322851983851882E0C0E0A3E0F9A3E0FAA39B
:20112000E0FBA37808E0F608A3DFFAE0FCA3E0FDA3E0FEA3E0FFA3E0C0E0A3E0C0E0A3E02F
:20114000F5D0A3E0F520A3E0A3F5F010AF088583198582188008858319858218D2AFD08285
:20116000D083D0E0F8D0E03274048006740280027401C0E0F40412171AD0E01215EF2274F0
:2011800004800474028000CCC0E0EDC0E0E518C39CCCAD1950011D10AF068C188D198006E7
:2011A0008C188D19D2AF1215FCD0E0FDD0E0FC22D083D082E9C0E0E493A3C386F0C5F095FB
:2011C000F0F908E493A386F0C5F095F0700BE493A3C3994005E9048002A3E475F002A425F8
:2011E00082F582E5F03583F583D0E0F9E493A3C0E0E493C0E022D083D082CCC0E0E493A32A
:201200006006121A201470FAE493A36006121A3F1470FAD0E0FCE493A3C0E0E493C0E02296
:20122000C0E0E493A3D39C5010E493A3C39C400AD0E0D0E0D0E0021A13A3A3A3D0E022C0A8
:20124000E0E493A36C7009D0E0D0E0D0E0021A13A3A3D0E022D083D082ECC0E0EDC0E0E4B6
:2012600093A3FCE493A3FDED4C600D121AA1EC24FFFCED34FFFD80EFE493A3FCE493A3FDEE
:20128000ED4C600D121AE0EC24FFFCED34FFFD80EFD0E0FDD0E0FCE493A3C0E0E493C0E0DB
:2012A00022C0E0C3E49396087401939618400FE49366700808740193661870007019A3A36D
:2012C000C3E49396087401939618A3A3400DD0E0D0E0D0E0021A91A3A3A3A3A3A3D0E0228C
:2012E000C0E0C0F088F0E4936670080874019366187000A8F0A3A3700BD0F0D0E0D0E0D08A
:20130000E0021A91A3A3D0F0D0E022FFC2AF0200002274F61217C5EAFEEBFF8C088D09EE92
:201320002434F8E43FF9E8FCE9FDEE2435121E2EFAEE2437121E2EF88508F0A4C885F00AD1
:201340008509F0A4250AF9EA28F8E439F97A257B0012165EEA8C828D83F0FA131313541FE5
:20136000F8EE28F8E43FF9E8245DF582E439F583E0C0E074075AF8D0E0B800028004C313C5
:20138000D8FCA2E0EE50082434F582E43F80182436121E2EF5F0EA84A8F0EE28F8E43FF95A
:2013A000E82438F582E439F583E0F97F0302187174F71217C5EAFEEBFFEE2434121E2EC068
:2013C000E0EE2435F582E43FF583D0E0F08E828F83A3A3A3A3A3A3A3C082C0838E828F83F6
:2013E000A3A3A3A3A3E0F8A3E0F9D083D082E0C398F508A3E099F509EE247F121E2E64011F
:20140000703EEE2480F582E43FF583C082C0838E828F83A3A3A3A3A3E0240108A3E03400E0
:20142000F9D083D082E0687003A3E06970127C9B7D061234B2EE247FF582E43FF583E4F0DC
:20144000AC08AD09EEFAEFFB121B12E9F912287E7F02021871C082C083851882851983E0C6
:20146000F8A3E0F9C3EA9CEB9D5010C3EC98ED99401BC3EA98EB995014800EC3EA98EB991B
:201480004007C3EC98ED994004790180027900D083D08222EAC39CFAEB9DFB2274EF121744
:2014A000C5900344E064086005E06407702A9061C8E06024900372E0F4601DE0F875F00D3D
:2014C000A4C8AAF02AF9747428FE740339FF8E828F83A3A3A3E07003021DAA906060E0C00F
:2014E000E0EE2468F582E43FF583D0E0F0750C35750D07750800750900E5D914F50AE5D917
:201500005403F50E60127403650E6043E50A600AEE2467121E2E70028075900730E06401CF
:20152000601F121E2B60047A0480027A00E50AC39AFA95E0FB1232AE8A088B09EA4509707D
:20154000051237888064121E2B70048A0C8B0DE50A6012850C82850D83F50BE5D9F0A315E5
:201560000BE50B70F6121E2B604474FC250AF50A780C12196CAC0AA90EEEFAEFFB12357854
:2015800074021216FFE97026AA08AB09123CC2793D8E828F83A3A3A3A3E0FA7B001230FEC0
:2015A000EEFAEFFB1234D61235D8790080787403650E6051850A10751100781012196CAC22
:2015C0000CAD0DAA08AB0912353C74021216FFEE2468121E2E64807004747F8001E0F50C3A
:2015E000780C121970E50EF50C780C121970A90AAC08AD09900372E0FA7B001230CE7402BC
:201600001216FF801C900344E06408AC0CAD0D7009EEFAEFFB1235A88007EEFAEFFB123697
:201620004A12379479017F0A021871EE2483F582E43FF583E02274F21217C574FC1216E977
:20164000EAFEEBFF8909A2AFE433F508C2AF021F00E0601B780C12196CAC0BA90EEEFAEF74
:20166000FB12357274021216FF7404250BF50B7401250BF5D9850ED9E50B6018F50A850C9A
:2016800082850D83E0F5D9A385820C85830D150AE50A70EA75E195EE2463F8E43FF97A00E4
:2016A0007B00A2AFE433F50BC2AF88828983E0FCA3E0FDEC4D603A88828983E0FAA3E0FB23
:2016C0008A828B83E0FCA3E0FD88828983ECF0A3EDF08A828B83E4F0A3F088828983E0FCAF
:2016E000A3E0FDEC4D700A88828983A3A3E4F0A3F0E50BA2E092AF123CC29006A2E004F025
:20170000EE2463121E2EF8A3E0F9E8496064EE2463121E2E2402F8A3E03400F988828983D6
:20172000E5822402F50CE43583F50DE0F50BA3E0F50EEE2462121E2E640170369061D0E099
:20174000F8121E2B60047C0480027C007480C398FA95E0FBE50B2CF8E43400F9E82402F870
:20176000500109C3EA98EB99A2D265D0334003021E519006A2E0604D9006A3E0F89006A2A8
:20178000E0C398500C74026509703A9006A4E060348E828F83A3A3A3A3E0851882851983A8
:2017A000121FD57402121735E8121FD59006A1E028F0740212174FAA18AB19790112312ED3
:2017C0009006A2E4F0E508A2E092AF74041216FF7F07021871F0A3E4F09006A2E0F822FF05
:2017E0008521878522C622C0E074EB1218B1A2AFE433F508C2AF759B00906182E0A2E05048
:2018000030E591A2E0502A7591FE74016521702112217A12369812216812197F12262874F0
:20182000041216FFE96401700579011236E0121C9C906182E0A2E5505DE591A2E5505775AE
:2018400091DF900344E064076005E06408702F12217A74016521703E1236981221681219AA
:201860007F12262874041216FFE96401700579011236E07901EEFAEFFB121E368018E064F7
:201880000D7013900366E004F064287002E4F07A00E0F912379A906182E0A2E640030221A2
:2018A0003DE591A2E6400302213D7591BF900344E06405700812368012368C800312368600
:2018C0007521001236FEE9900345F079001236E01233DA7A017B00900343E0F9123C9290A6
:2018E0007803E064427056900734E014F0704EC2AF1220F400782AD0E0F618D0E0F6E59F93
:201900005407F87005750DFF8003750D7FC4C0E07829E6F50A08E6550DF50B740B780A12AD
:2019200016C7D0E0250AF8906270E0A2E740F8E8C333906272F0906270E0D2E0F090618168
:20194000E0A2E35009E5E9A2E3500375E9F7A3E0A2E75009E591A2E7500375917FE508A203
:20196000E092AF7F080219108E828F83E0F8A3E0C82416F582E438F58322900372E0F87596
:20198000F00DA4C8AAF02AF9747428FE740339FF22C0E0C0D0C082C083906183E0A2E05067
:2019A00009E5BFA2E0500375BFFEE0A2E15009E5BFA2E1500375BFFDE0A2E25009E5BFA209
:2019C000E2500375BFFBE0A2E35009E5BFA2E3500375BFF7E0A2E45009E5BFA2E45003758D
:2019E000BFEFE0A2E55009E5BFA2E5500375BFDFE0A2E65009E5BFA2E6500375BFBFD08362
:201A0000D082D0D0D0E032C0E074F21218B1E5A7A2E6500FE5A1A2E6500953A7BF75A1BFA9
:201A200012225BE5A7A2E5500CE5A1A2E5500653A7DF75A1DFE5A7A2E15009E5A1A2E150B6
:201A40000375A1FDE5A7A2E2500CE5A1A2E2500653A7FB75A1FB7F0102191074F71217C59A
:201A6000752101900344E0640670151235FC8A828B83A3A3A3A3A3A3E0FAA3E0FB12366EEC
:201A8000A2AFE433FED2AF90034AE0640170187A207B00900343E0F9123DB27A207B00904B
:201AA0000343E0F9123C98906182E0D2E6F0900731E0602185C6228016900349E064017069
:201AC00008E5C654F84405F5C653BEFC121FE07401652160E4EEA2E092AF7F02021871FFEA
:201AE0008E238F24858228858327851882851983E0CEA3E0CF852882852783EBC9EAC8ED33
:201B0000CBECCA75F010C3E833C8E933C9EA33CAEB33CBC3EA9EF526EB9FF525B35004ABB8
:201B200025AA26EC33CCED33CDD5F0DAAE23AF242274E91217C574FA1216E9EAFEEBFF8C4B
:201B40000A8D0B1236A4EAF8EBF9ECFAEDFB8E828F831215E3900344E024F7C394055006B3
:201B60007514010224981235FC8A088B09EA45097003022495EEFCEFFDAA18AB1912369E0C
:201B8000850882850983A3A3780C1215A190876F780C12156885188285198378101215A16A
:201BA00090876F7810121568780C7910120BAF501F780C791012152D908747780C120BCF11
:201BC0004047850C14850D15850E16850F1780459087478510148511158512168513177893
:201BE00014790C12152D7814120BCF501C7514007515007516007517017814791012152D80
:201C00007814790C1214F4800C751401751500751600751700740978141214D590874B7804
:201C20000C1215A17814790C121439850882850983A3A3A3A3A3A31224B612165E880C89DF
:201C40000DE4F50EF50F7814790C1214F474041217351224B612165EE8FA8A0CE4F50D7843
:201C600014790C120BAF50077814790C12152D900344E06408600AE064066005E06405704E
:201C80002090874F7814120BCF50169087537814121507800C751400751500751600751706
:201CA00000850A82850B8378141215B074061216FF7F10021871E0F8A3E0F97AD07B0322A4
:201CC00074F71217C51236B690072FE064017010906245E4F0A3F053F4F343FE0C5390F327
:201CE00012365CE5C654B84441F5C6E59E5447644170F8906185740FF090072DE0F470022B
:201D0000A3E0604E90072EE0600814601B14602E804075080175090090072DE0780812164C
:201D2000D6E508F45280802A75080175090090072DE078081216D6E508F45290801475087E
:201D40000175090090072DE078081216D6E508F452A079007F0202187174F71217C5E9FE4A
:201D6000EAFF1236B674016E700C7A807B00900343E0F9123C92903DF4E493F46008E4930E
:201D8000F91233C8800953C6B8E59E544770FA12366290072FE0640170031233F290072D38
:201DA000E0F47002A3E0604B90072EE0600814601A14602C803D75080175090090072DE017
:201DC00078081216D6E5084280802875080175090090072DE078081216D6E50842908013BE
:201DE00075080175090090072DE078081216D6E50842A01235FC8A088B09A808A909E849FA
:201E00006014E5E170FCE82414F582E439F583E0F46003E0F5E174016F700A7A0190034354
:201E2000E0F9123D2802255474F11217C58A088B098C0A8D0B90876F7808121568740F1206
:201E40001735780C1215A190876F780C1215687808790C120BAF90874750107808790C12AB
:201E6000152D7808120BCF4014800E780C790812152D780C120BCF50047901800279007FC1
:201E80000802187174ED1217C58A088B098C0A8D0B90876F78081215687413121735780C0E
:201EA0001215A190876F780C121568780C7908120BAF40117808790C12152DAA08AB09AC34
:201EC0000AAD0B80227510007511007512007513017810790C12152D781079081214F4AA55
:201EE00010AB11AC12AD137F0C02187190876F78081215A18A828B83780812157B7F0402F3
:201F0000187174F51217C58C828D8378081215A18A828B83780812154112275AC3E09CF0B7
:201F2000A3E09D12274C40229087CF78081215A18A828B83780812151A8A828B83A3A3A38E
:201F4000A3E02420F0A3E0344EF080A0F088828983C3E09420A3E0944E22EA2404F8E43BA8
:201F6000F98C828D83A3A3A3A3E0FCA3E0FD888289832274F51217C5E9FE9006BDE0FAA31C
:201F8000E0FBEE29F8E433F9742328F582748239F583E02AF508A3E03BF509780812196C90
:201FA0009087E71215BF1222E074021216FF8A088B098C0A8D0B741078081214BCAA08ABF5
:201FC000097F0402187174F11217C58A0C8B0D8C0E8D0F74111217351219837411121735BF
:201FE000E02401F508A3E03400F509E4F50AF50B780C79081213B990875F78081215A1782E
:202000000C79081213B9AA0CAB0DAC0EAD0F1222E074021216FF8B09EA450960047A018095
:20202000027A00EC2AFCE43DFD7413121735E0F8A3E0F9E8FEE9FFECF8EDF97A717B0212A9
:20204000165E88088909E4F50AF50B8E828F8378081215B0ECF8EDF97A717B0212165E8A4C
:20206000088B09740578081216D68E828F83A3A3A3A3E508F0A3E509F07F08021871C0826D
:20208000C083E9906000F0D083D08222C0E074F21218B1A2AFE433FED2AFC2C0E5D1A2E4E7
:2020A000500675D10F123A70751A00EEA2E092AF7F01021910C0E0C0D0E8C0E0E9C0E0A9E4
:2020C000A8D2AFC2C7751A00E9A2E7E433F8E9A2E792AFD0E0F9D0E0F8D0D0D0E032C0E018
:2020E00074F21218B1A2AFE433FED2AFE58AA2E3501A758AF79087BB12197F7A107B009053
:202100000E55E0F9123DA674041216FF758A00C2EBEEA2E092AF7F01021910C0E074F212CF
:2021200018B1A2AFE433FED2AFE589601A75890090879712197F7A807B00900E55E0F9125E
:202140003DA674041216FF758900C2C580C3120B5F793E00120B5F913E00120B5FD13F002B
:20216000120B5F934000120B5F554300120B5FBF4300120B5F804400120B5F954500120BCB
:202180005F024F00120B5F354F00120B5F7D4F00120B5F4F5200120B5FA25300120B5F5BE2
:2021A0005400120B5FBE5400120B5FBD5500120B5F845600120B5F8D5700120B5F24580001
:2021C000120B5F6E5800120B5FDD5800120B5F887600120B5F047800120B5F7F7B00120B07
:2021E0005F5B8305120B5F6E8305120B5F8F8305120B5FFA8305120B5F3B8405120B5F5C82
:202200008405120B5F7D8405120B5FBE8405120B5F568505120B5F9E8505120B5FC9850521
:20222000120B5FDAF404120B5FEDF404120B5F1EF504120B5F58F504120B5FB1F504120B4C
:202240005FF8F504120B5F40F604120B5F6FF604120B5F9EF604120B5FD5F604120B5F1C9C
:20226000F704120B5F35F704120B5F8AF704120B5FA3F704120B5FF1F704120B5F2BF80491
:20228000120B5F35DF03120B5F38E003120B5F65E003120B5FB6E003120B5FD9E003120BE6
:2022A0005FEBE003120B5FEEE003120B5F2CE103120B5FA0E103120B5F0CE203120B5FD45B
:2022C000E203120B5FFAE203120B5F34E303120B5FCBE303120B5F1DE403120B5F4EE403CA
:2022E000120B5F51E403120B5F82E403120B5F8FE403120B5FA7E403120B5F11E503120BB7
:202300005F14E503120B5F21E503120B5F24E503120B5F7BE503120B5F8CE503120B5FC545
:20232000E503120B5FC8E503120B5FCBE503120B5F2DE603120B5F30E603120B5F84E6034A
:20234000120B5FCDE603120B5FDDE603120B5F10E703120B5F1DE703120B5F20E703120B6D
:202360005F88E703120B5F8AE803120B5F2EE903120B5F97E903120B5FD5E903120B5F9FAE
:202380008904120B5F9C8A04120B5F328B04120B5F7D8B04120B5FE18B04120B5F6B8C04E2
:2023A000120B5F248D04120B5F469004120B5FC39104120B5FE69104120B5FB07B00120B07
:2023C0005F557D00120B5F757D00120B5F967E00120B5FE97E00120B5FEFEC04120B5F17FD
:2023E000ED04120B5F44ED04120B5F7CED04120B5FDAED04120B5F26EE04120B5F8DEE047C
:20240000120B5FCDEE04120B5F0AEF04120B5F38EF04120B5FE2EF04120B5FECEF04120B98
:202420005FF9EF04120B5F2CF004120B5F38F004120B5F50F004120B5F5AF004120B5FDB2C
:202440009A05120B5FE99A05120B5F019B05120B5F199B05120B5F309B05120B5F27920303
:20246000120B5FD19203120B5F4D9303120B5F6B9403120B5FA79403120B5F429503120B70
:202480005F269603120B5FE99603120B5F619703120B5FEF9803120B5F609903120B5F1A95
:2024A0009A03120B5F0C9B03120B5F4C9B03120B5F009C03120B5F329C03120B5F289E0346
:2024C000120B5F6F9E03120B5F8D9E03120B5FF39E03120B5FC29F03120B5F86A003120B14
:2024E0005FA5A203120B5FAFA203120B5F7AA304120B5F64A404120B5F0FA504120B5F602E
:20250000A504120B5F10A604120B5F81A604120B5F66A704120B5F9AA704120B5F93A8042C
:20252000120B5FD0A804120B5FACA904120B5FEBA904120B5F07AA04120B5F238D05120B3B
:202540005FA78D05120B5FD28D05120B5FEC8E05120B5FE8F004120B5FFEF004120B5F1CAA
:20256000F104120B5F2DF204120B5F37F204120B5F62F304120B5F59F404120B5FC6F40442
:20258000120B5FD0F404120B5F00B704120B5F36B804120B5FB0B804120B5FE0B804120B35
:2025A0005FF3B804120B5F4AB904120B5F5FBB04120B5FECB402120B5F9DB502120B5FADD9
:2025C000B502120B5F43B602120B5F80B602120B5F8AB602120B5FC6B602120B5F19B70213
:2025E000120B5F24B702120B5F27B702120B5FFDB702120B5FDAB802120B5F37B902120B59
:202600005FC7B902120B5F7EBA02120B5F8CBD02120B5F7BBF02120B5F2DC002120B5FF6C7
:20262000C002120B5F3BC402120B5FE5C402120B5F0EC602120B5FCAC702120B5F6AC80223
:20264000120B5FBDC802120B5FFCC802120B5FCFC902120B5F03CA02120B5F90CA02120BDF
:202660005FD0DE02120B5F5CDF02120B5FC0E002120B5FCCE002120B5F07E102120B5F76F2
:20268000E102120B5F7FE202120B5F88E302120B5F4FE402120B5FACE502120B5FCAE502A2
:2026A000120B5FE7E502120B5F94E602120B5F11E702120B5F39E702120B5F03EA02120B3C
:2026C0005F08EA02120B5F21EC02120B5F6FEC02120B5FDFEC02120B5F1DED02120B5FF9FD
:2026E000ED02120B5FB9EE02120B5F05EF02120B5F08EF02120B5F4CEF02120B5F94EF0225
:20270000120B5FD3EF02120B5FF5EF02120B5F29F002120B5F8CF002120B5F0BCD04120B11
:202720005F14CD04120B5F22CD04120B5F75CD04120B5F94CD04120B5FD9CD04120B5F1D84
:20274000CF04120B5FB8CF04120B5FFCCF04120B5F26D004120B5F95D004120B5FDBD004CE
:20276000120B5F52D104120B5F03D204120B5F5BCF01120B5F6BCF01120B5F0CD001120B8D
:202780005F68D001120B5F25D101120B5F41D201120B5F73D201120B5FA2D201120B5F4F20
:2027A000D401120B5FC6D601120B5F36D901120B5F28DA01120B5F21DB01120B5F28DD0125
:2027C000120B5F1CE001120B5F4BE101120B5F4FE301120B5F5FE401120B5FEEE501120BFB
:2027E0005FDFE601120B5F2DE701120B5F9CE701120B5FC0E701120B5F11E801120B5FB25B
:20280000EC01120B5FB3ED01120B5F14EE01120B5F3FEE01120B5F05EF01120B5FC4B00420
:20282000120B5FCEB004120B5F13B104120B5F27B104120B5FB7B104120B5FF0B104120BD8
:202840005F2BB204120B5F54B204120B5FA2B204120B5FB7B204120B5FCCB204120B5FE19A
:20286000B204120B5F24B304120B5F39B304120B5FA4B304120B5FB8B304120B5FF2B304F8
:20288000120B5F16B404120B5F42B404120B5F70B404120B5FBAB404120B5F1CB504120B78
:2028A0005F47B504120B5F93B504120B5FCAB504120B5F02B604120B5F40B604120B5F8345
:2028C000B604120B5FADB604120B5FD8B604120B5FCD9705120B5F41B003120B5F24B103A4
:2028E000120B5F9FB103120B5FDAB103120B5F2BB303120B5FB4B303120B5FCCB503120B9F
:202900005F5EB803120B5F10B903120B5F1CBA03120B5F8FBB03120B5FE8BB03120B5FE853
:20292000C704120B5F2BC804120B5FAFC804120B5F82C904120B5F59CC04120B5F128605D9
:20294000120B5FBF8605120B5FCC8705120B5F0B8805120B5F658805120B5F1B8F05120B13
:202960005F7E8F05120B5F1B9005120B5F509005120B5F809005120B5FA19005120B5FDCBE
:202980009005120B5FFC9005120B5F15D204120B5FA1D204120B5F60D304120B5F78D404BC
:2029A000120B5F92D604120B5F84C803120B5FA9C803120B5F76C903120B5F4ACA03120B06
:2029C0005FB7CA03120B5F0DCB03120B5FA9CB03120B5FDDCC03120B5FB8CD03120B5F170B
:2029E000CE03120B5FA3CE03120B5F11CF03120B5F9DCF03120B5FA0CF03120B5FEACF03A6
:202A0000120B5F5CD003120B5FEED003120B5F8FD103120B5FAFD103120B5FF7D103120B8C
:202A20005F40D203120B5F5CD203120B5F82D203120B5FFCD203120B5F0AD303120B5F99E4
:202A4000D303120B5F02D403120B5F7BDB04120B5F00DC04120B5F42DC04120B5F26DD04F8
:202A6000120B5F93DD04120B5FD7DD04120B5F1BDE04120B5F48DE04120B5F70DE04120B28
:202A80005FA8DE04120B5FE6DE04120B5F0DDF04120B5F87DF04120B5FD1DF04120B5F9A71
:202AA000AE01120B5F93B001120B5F80B301120B5FD4B301120B5FFFB301120B5FD8B401BB
:202AC000120B5F13B501120B5F43B501120B5F70B501120B5FBEB501120B5FF3B501120B68
:202AE0005F29B601120B5F88B601120B5F0DB701120B5FACB901120B5F94BB01120B5FD0A1
:202B0000BB01120B5F4EBD01120B5F93BD01120B5F94BE01120B5F7EC001120B5F01C101DB
:202B2000120B5F70C101120B5FACC601120B5F04C701120B5FE6C801120B5FB5CA01120B6C
:202B40005FBACA01120B5F65CB01120B5F33CC01120B5F5ECC01120B5F89CC01120B5FFF74
:202B6000CC01120B5F47CD01120B5FD9CD01120B5F27CF01120B5F38CF01120B5FB0880524
:202B8000120B5F9B8905120B5FDE8905120B5F2D8A05120B5F7E8A05120B5FCF8A05120BF0
:202BA0005F008004120B5F798004120B5F338604120B5F3E8704120B5FE78804120B5F755B
:202BC0008904120B5F008002120B5F818002120B5FAE8002120B5FF38002120B5F0581024A
:202BE000120B5F068202120B5F4B8202120B5F778202120B5FF38302120B5F818402120B79
:202C00005FEC8402120B5FA08502120B5F3D8602120B5FB88602120B5F428702120B5F95EB
:202C20008702120B5FDD8802120B5F5C8A02120B5F278B02120B5F348B02120B5F848B02CA
:202C4000120B5F948B02120B5FB88B02120B5FBB8B02120B5FA48C02120B5F868D02120BF6
:202C60005F288E02120B5FC38E02120B5FEA8E02120B5F478F02120B5F9E8F02120B5FEC11
:202C80008F02120B5F3A9002120B5FA39002120B5F439102120B5FDF9102120B5F6C9202EE
:202CA000120B5FE19202120B5F319302120B5F909302120B5FB79302120B5F719402120BD8
:202CC0005F629602120B5FAB9602120B5FDD9602120B5F549702120B5FDE9802120B5F9280
:202CE0009902120B5FB79902120B5FF69902120B5F0B9A02120B5F4E9A02120B5FBE9A02FF
:202D0000120B5FFF9A02120B5F149C02120B5F959C02120B5F53F403120B5F9EF403120BCB
:202D20005FAAF403120B5F7EF503120B5F95F503120B5FD2F503120B5F03F603120B5F3B23
:202D4000F603120B5F91F603120B5FA7F603120B5FE3F603120B5FF6F603120B5F1DF70302
:202D6000120B5F51F703120B5F77F803120B5FC1F903120B5FBDFA03120B5FDAFB03120BBE
:202D80005FF5FF01120B5FBBC204120B5F69C604120B5F9DC704120B5F91BC03120B5F54B3
:202DA000BF03120B5F5ABF03120B5F17C203120B5F71C403120B5FC9D604120B5F60D704D7
:202DC000120B5F1ED804120B5F48D804120B5F7EDA04120B5FCB9C02120B5F069D02120BE2
:202DE0005F4BA902120B5FB7AA02120B5FB4AB02120B5F39AF02120B5F23B002120B5F6F20
:202E0000B002120B5F89B002120B5FC6B002120B5FD1B002120B5FDAB002120B5F8AB10295
:202E2000120B5F5AB202120B5FA1B202120B5F07B302120B5F79B302120B5F008003120B39
:202E40005F488303120B5F4E8303120B5FA18A03120B5FAE8E03120B5F93F804120B5F29E0
:202E6000F904120B5F3FF904120B5F98F904120B5FDCF904120B5F16FA04120B5FAEFA047F
:202E8000120B5F1DFB04120B5F26FB04120B5F32FB04120B5F4CFB04120B5F76FB04120B77
:202EA0005F8BFB04120B5FEDFB04120B5F14FC04120B5F68AA04120B5F75AA04120B5F8FF5
:202EC000AA04120B5FC2AA04120B5F00AB04120B5F65AB04120B5F7AAB04120B5F85AB0448
:202EE000120B5F92AB04120B5FA9AB04120B5FB7AB04120B5FC6AB04120B5FDBAB04120B4B
:202F00005FF0AB04120B5FFBAB04120B5F07AC04120B5F14AC04120B5F23AC04120B5F2E21
:202F2000AC04120B5F53AC04120B5FF7AC04120B5F07AD04120B5F1CAD04120B5F31AD0464
:202F4000120B5F4BAD04120B5F68AD04120B5F85AD04120B5F90AD04120B5F3CAE04120B6E
:202F60005F1DAF04120B5F39AF04120B5F50AF04120B5F5BAF04120B5F70AF04120B5F8412
:202F8000AF04120B5FE5AF04120B5FEBAF04120B5FF1AF04120B5FF7AF04120B5F0FB004CB
:202FA000120B5F42B004120B5FFBE903120B5F1DEA03120B5FE5EA03120B5F9FED03120B40
:202FC0005FB5EE03120B5FD6EF03120B5FB0F003120B5F5FF103120B5FBEA203120B5F550A
:202FE000A303120B5FEDA303120B5FDDA403120B5F14A503120B5F27A503120B5F95A503E0
:20300000120B5F30A703120B5F57A703120B5FF9A703120B5F2EA803120B5F3FA803120BE6
:203020005FB8A803120B5FD9A803120B5FF1A803120B5F49AA03120B5F52AC03120B5FA2A9
:20304000AE03120B5FA5AF03120B5FF4AF03120B5F64F102120B5F61F202120B5F4CF30269
:20306000120B5F56F302120B5F60F302120B5F82F302120B5F8EF302120B5FE0F402120B57
:203080005F0FF502120B5F3FF602120B5F81F602120B5FADF702120B5F83F802120B5FD5B7
:2030A000F802120B5F34F902120B5F6BF902120B5FA6F902120B5F41FD02120B5F5AFD02DB
:2030C000120B5FDCFD02120B5FEAFD02120B5F3FFE02120B5F4DFE02120B5FBAFE02120B5D
:2030E0005F2CFF02120B5F72FF02120B5F25D403120B5F47D403120B5F31D603120B5FD66B
:20310000D903120B5F19DB03120B5FF3DB03120B5FD79205120B5FFC9205120B5F6D930599
:20312000120B5F4D9B04120B5F569B04120B5F5F9B04120B5F909C04120B5FAF9E04120BA6
:203140005FE59E04120B5F1F9F04120B5F559F04120B5F8F9F04120B5FC39F04120B5FEFDC
:203160009F04120B5F38A004120B5F72A004120B5FBAA004120B5F10A104120B5F45A10451
:20318000120B5FA0A104120B5FDAA104120B5F2BA204120B5F61A204120B5F9BA204120BC9
:2031A0005FC9A204120B5FECA204120B5F2D9D05120B5F599D05120B5FB49D05120B5FBE65
:2031C0009D05120B5FCE9D05120B5F159F05120B5F0A9105120B5F6E9105120B5F1D920560
:2031E000120B5F3C9205120B5F909205120B5FC09B05120B5FD19B05120B5F749C05120B66
:203200005FE1FF03120B5FE19805120B5F659905120B5FCB9905120B5FF87F00120B5F138C
:20322000FE03120B5F7DFF03120B5FDEFF03120B5F45A005120B5F5BA005120B5F75A005BE
:20324000120B5F7F9C05120B5F8B9C05120B5F999C05120B5FBE9C05120B5FECE804120B28
:203260005F5FE904120B5F52EA04120B5FC0EA04120B5F45EC04120B5F95EC04120B5F9EF1
:20328000EC04120B5FB1EC04120B5FCDEC04120B5FD2EC04120B5FD5EC04120B5F86CB029A
:2032A000120B5FE6CB02120B5F39CC02120B5FAFCC02120B5FECCC02120B5FEECD02120BD7
:2032C0005F28CE02120B5F61CE02120B5F58CF02120B5FDDCF02120B5F0ED002120B5F87BC
:2032E000D002120B5F33D202120B5F60D202120B5F83D302120B5FFCD402120B5F86D502CE
:20330000120B5FAED502120B5FC2D502120B5FA9D802120B5F25D902120B5F44D902120B64
:203320005F06DB02120B5F85DB02120B5F9CDB02120B5FBFDB02120B5FECDB02120B5F821D
:20334000DD02120B5FB2DE02120B5F8D9405120B5F9D9405120B5FAF9405120B5FFB940558
:20336000120B5F229605120B5F92E404120B5F47E504120B5FDAE504120B5F96E604120B1A
:203380005F84E704120B5FBFE704120B5F288801120B5F068901120B5F5C8901120B5F9D85
:2033A0008901120B5F058A01120B5F338A01120B5FF78A01120B5F768B01120B5F858C0133
:2033C000120B5F3A8D01120B5F6B8D01120B5FCD8D01120B5FBD9201120B5FE79501120B7B
:2033E0005F209B01120B5FAEA501120B5FFAA501120B5F90A601120B5F3DA701120B5F4BEB
:20340000A701120B5F68A701120B5F0AA901120B5FABA901120B5F51AE01120B5F83AE014D
:20342000120B5F42FC04120B5FF5FD04120B5FA9FE04120B5F26BD04120B5F30BD04120B48
:203440005F70BD04120B5FB9BD04120B5FF3BD04120B5F49BE04120B5F68BE04120B5F8A83
:20346000BE04120B5F93BE04120B5FE4BE04120B5F0DBF04120B5F22BF04120B5F92BF0419
:20348000120B5F20C004120B5F64C004120B5F8CC004120B5F0BC104120B5F4EC104120B64
:2034A0005F8BC104120B5F9DC104120B5FBCC104120B5FC5C104120B5F8FC204120B5F2F00
:2034C0009605120B5F809605120B5F099705120B5F6F9705120B5F008005120B5F2A8005E6
:2034E000120B5F248105120B5F498105120B5FEA8105120B5F708205120B5FE49905120BE1
:203500005F8D9F05120B5F218B05120B5F578B05120B5F908B05120B5FE98C05120B5FD8A5
:203520009D05120B5FEE9D05120B5FF89D05120B5F4E9E05120B5F099304120B5FC6930465
:20354000120B5F019404120B5F299404120B5F8B9404120B5FD79404120B5F379504120B26
:203560005F1B9604120B5F179704120B5FAF9804120B5F329904120B5F969904120B5FAD1F
:203580009904120B5FA39A04120B5FEF9A04120B5F11E004120B5F26E004120B5FD6E0049B
:2035A000120B5F16E104120B5F2FE104120B5F62E104120B5FAFE104120B5FE3E104120BD0
:2035C0005F25E204120B5F2CE404120B5F71EF01120B5F84F401120B5FAEFF04120B5F7FF7
:2035E0009E05120B5FA99E05120B5FD7FF01FFFFFFFFFFFFFFFFFFFF002020202020202037
:2036000020202828282828202020202020202020202020202020202020881010101010107A
:203620001010101010101010100404040404040404040410101010101010414141414141DC
:2036400001010101010101010101010101010101010101011010101010104242424242426A
:20366000020202020202020202020202020202020202020210101010208003000000EAF85D
:20368000EBF9E824FF1AE934FFFBE84970ED020B5C74F712175974E21216E9E9900200F054
:2036A00075FB0212767A12197075083178081219707B30740212174F7A01798212297E74F6
:2036C000021216FF851882851983E06431700343FB041276801219707508327808121970EA
:2036E0007B30740212174F7A01798412297E74021216FF851882851983E06431700543FBFB
:20370000188008E06432700343FB3874011217357401F08518828519837434127682121955
:203720007075083878081219707B30740212174F7A01798112297E74021216FF8518828541
:203740001983E024D0C0E07402121735D0E0F012767A12197075083178081219707B307460
:203760000212174F7A01798B12297E74021216FF851882851983E024D0C0E0740312173571
:20378000D0E0F074041217357430124E96740B1217357480124E9674131217357480124E19
:2037A0009674061217357406F074171217357401F0741C1217357478F0A37429F074011262
:2037C00017477901123A7C741E1216FF7F0102182B74F212175974FF1216E9890A8A08EB4F
:2037E000FFEDFE851882851983ECF0F50B780B121970EAF50B780B121970AB0A7402121749
:203800004F7A01EFF912297E74021216FF900225E0F8740F121735E0F50B743F68700C12A7
:20382000408412196C7C727D83802CE8C3950A4049E508C3984043851882851983E068600D
:203840000CE8127B51EFF9123D7CE9702D12408412196C7C907D837A027B02123DE2740244
:203860001216FF780B1219707B107C127D00EEFA79081229CC74011216FF74011216FF7F46
:203880000602182B851882851983E0F50C750D00780C2274F412175989088A0990022512BD
:2038A00075A894154003024144880A750B00E824D0605114700302414714700302414E149C
:2038C000700302415514700302415E14700302416514700302416C14700302417614700389
:2038E00002417D14700302418424F870030241891470030241FD14700302426F14700302D5
:2039000042E080401230B07A0079011230A4900225E0F50A780A12196C7C907D837A027B47
:2039200002123DE274021216FFE509F50A780A1219707B107C127D00AA0879081229CC7469
:20394000011216FF0243BA1230B07A1380BB1230B07A2780B41230B07A00790080AD12306B
:20396000B07A1380F51230B07A2780EE1230B079001230AA80981230B0791380F41230B041
:20398000792780ED1230B08085780A12196C7C907D837A027B02123DE274021216FFE50949
:2039A000F50A780A1219707B107C127D00AA0879081229CC74011216FF7A107B2712294ECA
:2039C0007E007F001230B07ACA7B0012294EEE7012EFFA79011230A47AA77B0112294E7E53
:2039E00001800EEFF91230AA7AA77B0112294E7E000FEFC39428400302434F80C7780A1291
:203A0000196C7C907D837A027B02123DE274021216FFE509F50A780A1219707B107C127DAE
:203A200000AA0879081229CC74011216FF1230B07A0079011230A47E0A7A107B2712294EA7
:203A4000DEF71230B07A0079011230A47E0A7A107B2712294EDEF71230B07A00790112308B
:203A6000A47E0A7A107B2712294EDEF702434F780A12196C7C907D837A027B02123DE27439
:203A8000021216FFE509F50A780A1219707B107C127D00AA0879081229CC74011216FF1275
:203AA00030B07A1379011230A47E0A7A107B2712294EDEF71230B07A1379011230A47E0AC0
:203AC0007A107B2712294EDEF71230B07A1379011230A47E0A7A107B2712294EDEF7806F7C
:203AE000780A12196C7C907D837A027B02123DE274021216FFE509F50A780A1219707B1045
:203B00007C127D00AA0879081229CC74011216FF1230B07A2779011230A47E0A7A107B271D
:203B200012294EDEF71230B07A2779011230A47E0A7A107B2712294EDEF71230B07A277916
:203B4000011230A47E0A7A107B2712294EDEF71230B002414474F412175974FC1216E98AFE
:203B6000088B091243A6AA18AB1912298485188285198312197F7C957D827A027B02123D27
:203B8000E274041216FFE509F50B780B1219707B107C127D00AA08790D1229CC7401121626
:203BA000FF74048012FE851882851983E4F0A3F0A3F0A3F02274021216FF7F0402182B7436
:203BC000EF12175974FC1216E98910EAFFEB1243A57A00EA125786FB74D02BC3940A40032B
:203BE00002447685188285198378081215A1908783780C1215A17808790C1213B9EB24D0D9
:203C0000F50CE434FFF50D3395E0F50EF50F7808790C1214F485188285198378081215B025
:203C20000AEAC3940640ACE510AC18AD197A04600A79A8123D7CE9600A803B79A1123D7C01
:203C4000E9703385188285198312197F7CBC7D827A027B02123DE274041216FFEEF508788B
:203C6000081219707B107C127D00EFFA790D1229CC74011216FF74041216FF7F0902182B8D
:203C800074F412175974FA1216E9E9FFEAFE8B087C1C7D0079007A1E7B02123C50EF24D034
:203CA000600E14603014604A14605114605880619086B5AC18AD1974061215FCAA18AB194A
:203CC000123C14750A06750B00780A12196C740212174F800F750A06750B00780A12196CC9
:203CE0007CBA7D0E7A1E7B02123C3874021216FF801F7C1E7D027A0679BD80127C1E7D02B2
:203D00007A0679BE80087C1E7D027A0679BF123D827D00EDF8C3E498FA95E0FB74232AF501
:203D20008274023BF583E0F509C4540FFCC3940A50047A3080027A37E828F8E433F97402B7
:203D400028F8740239F9124586F0740F5509FCC3940A50047A3080027A37124586A3F00DE2
:203D6000EDC3940640ADE508F50978091219707B107C127D00EEFA79141229CC7401121656
:203D8000FF74060243B7EA2C88828983A3A3A3A3A3A3A3A32274F012175974E01216E9EA13
:203DA000FEEBFFEE4F7003024DF97C1C7D0079007A027B02123C507C1C7D0079007A1E7B5D
:203DC00002123C508E088F09900E5AE064036003024D34740265084F70657C027D007A0272
:203DE0007B027901123A82E50824FEF508E509124EF970E6900202E064417026A3E064546B
:203E00007020900201E0701A900E5DE06431700D900E5BE064087005900E5AE4F0123BC68F
:203E2000801A75080078081219707B107C127D007A0179021229CC74011216FF024D7E1242
:203E40003A88900E5BE064047003024CD48E0A741065087001EF600A741265084F600302D0
:203E60004B5CEEFCEFFD7A027B027901123A82C3E5089EF508E5099FF509E508450970E221
:203E80007412650A4F7021750802750900780812196C7CF47D877A127B02123C4A7402129C
:203EA00016FFE97003024B2B750847750980750C10750D00780C12196C7CC07D817A027BF8
:203EC00002123C4A74021216FFE960167C3C7D00AA08AB091229D890879712197F7A40028A
:203EE0004904780C12196C7CD17D817A027B02123C4A74021216FFE96011900E84124E9471
:203F0000900E8674FFF0A3F00248EB750C7B750D82750E10750F00780E12196C7CE27D81C2
:203F20007A027B02123C4A74021216FFE9604F900EC17404F0740B121735124E94740D1290
:203F4000173574FFF0A3F0740F1217357402F074101217357419F07411121735742A124E98
:203F60008E12174F124E6B122DCEE97003024D2E7C0C7D00AA0CAB0D1229D8024D2E750E04
:203F80000B780E12196C7C437D837A027B02123C4A74021216FFE970030248357A017B0B30
:203FA000EB12763A50051255A450047A00801EE9C3944140047C3780027C30124E741216E6
:203FC000D6E50829F8E43509124ECA40D3900E8612567C7003024B2B900211E0643F600322
:203FE000024B2BEAA2E04003024B2B900EC17404F0740B121735124E94740D12173574FF38
:20400000F0A3F0740F1217357402F0900E86E0C0E07410121735D0E0F0900E87E0C0E07497
:2040200011121735D0E0124E8E12174F124E6B122DCE024B22750E07780E12196C7C3E7DD6
:20404000867A027B02123C4A74021216FFE97003024916124EDB7A017B07EB12763A5005B5
:204060001255A450047A008027E9C3944140047C3780027C30900E84124E3F1216D6124EFB
:2040800003900E84E8F0A3E9F00BEBC3940B40CA7B0BEB12763A50051255A450047A008064
:2040A0001EE9C3944140047C3780027C30124E3C1216D6E50C29F8E4350D124ECA40D3909D
:2040C0000E86E0F8A3E0F975830E758284C3E098A3E0994003024B2B900211E0643F6003DC
:2040E000024B2BEAA2E04003024B2B900EC17403F07C3C7D00AA08AB091229D890879712ED
:20410000197F7A807B00900E59E0F9123DA674041216FF024D2E75080C75090078081219FF
:204120006C7CA27D827A027B02123C4A74021216FFE96063124EF31276394003024B2B123B
:2041400055A45003024B2BE9C3944140047C3780027C30124E741216D6124EC440D9E849B5
:204160007003024B2B124E4B121735124E8312196C124E65122F6074021216FF740312172E
:2041800035EAF0A3EBF07403121735124E2E70030247707401807B780812196C7CAF7D8252
:2041A0007A027B02123C4A74021216FFE97003024A5A124EF31276394003024B2B1255A4F5
:2041C0005003024B2BE9C3944140047C3780027C30124E741216D6124EC440D9E8497003BB
:2041E000024B2B124E4B121735124E8312196C124E65122F6074021216FF7403121735EA02
:20420000F0A3EBF07403121735124E2E7003024770E4F07403121735E0F8A3E0F58388821B
:20422000A3E4F07405121735E4F07406121735E4124EA3AC18AD19124E6B122DDAE97003D3
:20424000024D2E7C0C7D00AA0CAB0D1229D87912AA18AB19122F66024D2E75080B7808120C
:20426000196C7C4F7D837A027B02123C4A74021216FFE9604A124EED1276394003024B2B64
:204280001255A45003024B2BE9C3944140047C3780027C30124E741216D6124EAA40D9901D
:2042A0000211E0643F6003024B2B7407121735124E9B740712174F124E6B122DC880637899
:2042C0000812196C7C377D837A027B02123C4A74021216FFE96068124EED127639504C12F1
:2042E00055A44047E9C3944140047C3780027C30124E741216D6124EAA40DF900211E064B6
:204300003F7028900E86E02402F8A3E03400F97409121735124E9B740912174F124E6B124C
:204320002DE0E96003024770024D2E75080078081219707B107C127D007A01A90A8012758B
:20434000080078081219707B107C127D007A01EEF91229CC74011216FF024D2EC3EE9413CA
:20436000EF94005003024CD47C127D007A027B027901123A82750A0C750B00780A12196CD5
:204380007CD67D827A027B02123C4A74021216FFE97003024CAE124EDB7E01750A10750C7C
:2043A00002F50D780C12196C7CF77D877A0E7B02123C4A74021216FFE96005750A08805484
:2043C000780C12196C7CFA7D877A0E7B02123C4A74021216FFE96005750A048037780C12F0
:2043E000196C7CFD7D877A0E7B02123C4A74021216FFE9701F780C12196C7C097D887A0EDC
:204400007B02123C4A74021216FFE96005750A2080027E007A0E1276394003024CAE12550E
:20442000A45003024CAEE9C3944140047C3780027C30124E3C1216D6124E03900E8612545C
:2044400057941240D1EEA2E05064E50824EEF508EF34FF803D7E147F00EEFCEFFD7A027B71
:20446000027901123A828A0C8B0DAE0CAF0D780B121970AB0A900E86E0FCA3E0FD7A01EE92
:20448000F91229CC74011216FFC3E5089EF508E5099FF509E50845097003024D2EC3E508CF
:2044A0009415E509940050ADAE08AF0980AB750A00780A1219707B107C127D007A01791203
:2044C0001229CC74011216FFE50824EEF508EF124EF9605AC3E5089415E50994005006AE5C
:2044E00008AF0980047E147F00EEFCEFFD7A027B027901123A828A0A8B0BAE0AAF0B750A35
:2045000000780A1219707B107C127D007A01EEF91229CC74011216FFE508C39EF8E5099F10
:20452000F9E849900201600474018001E4F0123A8E024DF990176BE0640170499017651240
:20454000567C70417900123D22123A52C3E508941DE50994005006AE08AF0980047E1C7F0C
:2045600000EEFCEFFD7A1E7B027901123A82124E1870D97C077D007AF77B841229D8900232
:2045800001E4F08074900201E4F0EE24FEF8EF34FFF9C3E8941AE994004029C3E508941D28
:2045A000E50994005006AE08AF0980047E1C7F00EEFCEFFD7A1E7B027901123A82124E186D
:2045C00070D980357E007F00801FE508C39EFCE5099FFD741E2EFA74023FFB7901123A82BB
:2045E0008B0BEE2AFEEF350BFFC3EE9508EF950940D87A00EEF91229C674201216FF7F084A
:2046000002182BE50C29F8E4350D124E0E22F9E8C39CF8E99400F9228A0A8B0BC3E508954E
:204620000AF508E509950BF509E508450922E0F8A3E0F988828983E582458322900E86E0CB
:20464000F50CA3E0F50D7404780C22900E86E0240108A3E03400F9851882851983E8F0A31A
:20466000E9F07402227C027D007912901932E0FAA3E0FB22900E86E0F508A3E0F5097404F4
:204680007808227402F0E4F508F509780822124EA3740B227401F0A3E4F022E8F0A3E91279
:2046A0004EA322F0900E59E0F922124EB0940F2212759CF8E99400F9900E86E8F0A3E9F027
:2046C0000AEAC322124EB0941022124E0E900E86E8F0A3E9F00BEBC3940F22124EDF2290D6
:2046E0000E84E4F0A3F0900E86F0A3F022124EDF7A0B22124EDF7A0C2234FFF509E50845C8
:20470000092274F5121759ECFEEDFF8B0A123D828E828F83E0F8C3950A400A740B121735C4
:20472000E0C398500B740C121735E08E828F83F07F0302182B74F0121759EAFEEBFFE9604B
:204740000AEEFCEFFD7A0479A88008EEFCEFFD7A0479A1123D828E828F83780C1215A1E5C0
:204760000C450D450E450F600A9087E7780C120BCF50078E828F831243AC024DFE74ED1222
:204780001759E9FEEAFF900224E06432A3700D127612401C743F68601702524AE0F87430EB
:2047A00068600D7431686008743F68600302524A750807750900780812196C7C1E7D027AE7
:2047C000027B02123C3874021216FF750802780812196C7C007D887A027B02123C3874022B
:2047E0001216FF900209743AF0900225E0F974D029F8900224E024D060471460541460698E
:2048000014700302512614700302513C14700302515314700302516A147003025181147032
:20482000030251981470030251AF24FA70030251FE24FE70030251C61470030251DD025266
:204840004AEFF5087808121970EEFD7C307BA6800EEFF5087808121970EEFD7C307B867AA8
:2048600031793012295A025245743F69701FA29150030251F690020A7430127673121970E0
:204880007B107C127D00EEFA7909025242E9C3943250407A407B00900200E0F9123DB8EAEF
:2048A0004B4C4D600C7A407B00900200E0F9123DB2900F14E4F0900225E024D0F508E0A276
:2048C000E092917A647B0012294EA29150030251F680A274CF29900F14F07A407B0090022C
:2048E00000E0F9123DB8EA4B4C4D7030900F14E0F508E4F50AF50B9087DF780C1215A1783D
:2049000008790C1213B978081219687A407B00900200E0F9123DA674041216FF900225E04E
:2049200090020A02507A743F69600DA3E0A2E092907A647B0012294EA2908090743F6960BF
:204940000DA3E0A2E092877A647B0012294EA2870250CC743F69600DA3E0A2E092867A647F
:204960007B0012294EA2860250CC743F69600DA3E0A2E092857A647B0012294EA2850250ED
:20498000CC743F69600DA3E0A2E092847A647B0012294EA2840250CC743F69600DA3E0A2D3
:2049A000E092837A647B0012294EA2830250CC743F69600DA3E0A2E092827A647B001229A7
:2049C0004EA2820250CC743F69600DA3E0A2E092817A647B0012294EA2810250CC743F6967
:2049E000600DA3E0A2E092807A647B0012294EA280400302507590020A743102507A743F65
:204A00006970477900A29150020909A2905004E40449F9AA80EAF50EE9F50F780E12196C95
:204A20007C147D877A0A7B02123DE274021216FFEFF50E780E1219707B107C127D00EEFA82
:204A4000790C1229CC74011216FF7F0B02182B74EC121759890A8A0B900225E0643F6003B8
:204A600002536E7E00900224E024CC602E14700302537314700302537A14700302538114CB
:204A8000700302538814700302538F24F8700302539614700302539D02536E7F807E078F92
:204AA000F28FF3EFF4F50C52FD79801239F87A03EEF91239F28A088B09E50C52F390189AD4
:204AC000E064316003EF42FDC3EA9460EB94015006750800750900750C07750D00780C12BE
:204AE000196C7C1E7D027A027B02123C3874021216FF750C02780C12196C7C007D887A0261
:204B00007B02123C3874021216FF85080C85090DE4F50EF50F780C120C099087DB7810129F
:204B200015A1780C7910120E149087D378101215A1780C7910120E14780C1219687CAF7D44
:204B4000867A0A7B02123DE274041216FF900209743AF0E50BF50878081219707B107C12A4
:204B60007D00AA0A790C1229CC74011216FF7F0C02182B7F407E0602529F7F207E05025260
:204B80009F7F107E0402529F7F087E0302529F7F047E0202529F7F027E0102529F7F01020C
:204BA000529F74F412175974FE1216E9E9FE8A08EBFF7B9EEE60027B9D851882851983E48F
:204BC000F0A3F07A0012543C127643506C1255A44067E9C3944140047C3780027C301255F0
:204BE000AB1216D6125447940340DA851882851983C3A3E094045041AC18AD197A02EBF915
:204C0000123D7CE970338518828519831219837C1F7D837A027B02123DE274021216FFEFFE
:204C2000F50978091219707B107C127D00AA08790A1229CC74011216FF0243B5EAF8742577
:204C400028F582E4340222E50A29F8E4350B124E0E851882851983124EBB2274F61217596E
:204C600074FE1216E9E9FFEAFE8B08799EEF6002799D851882851983E4F0A3F0AC18AD199F
:204C80007A02123D828518828519831219837CE37D827A027B02123DE274021216FFE508C7
:204CA000F50978091219707B107C127D00EEFA790A1229CC74011216FF740202586674F498
:204CC00012175974FE1216E9E9FFEAFE8B088C09851882851983E4F0A3F07A00EAF8742739
:204CE00028F582E4340212764340030255A11255A450030255A1E9C3944140047C378002A5
:204D00007C301255AB1216D6125447940440CD851882851983E0496009E0F47003A3E0F4F5
:204D20007002807D799AEB600BEF60047998802879998024EF600E851882851983124E6E6E
:204D400090189D800E799C851882851983124E6E90189BEAF0A3EBF0AC18AD197A02123D6D
:204D60007CE9703DE50860057900123C0E8518828519831219837C5F7D827A027B02123DEA
:204D8000E274021216FFE509F50A780A1219707B107C127D00EEFA790D1229CC74011216E2
:204DA000FF0243B574C629C3940722851882851983E0F50AA3E0F50B7404780A2274F512DE
:204DC000175974FE1216E9E9FE8A09EB8C08799A600BEE60047998800979998005EE700286
:204DE000799C851882851983E4F0A3F0EEAC18AD197A026021123D82125676600F85188245
:204E0000851983E0F47003A3E0F4702E85188285198374E0801F123D82125676600F851827
:204E200082851983E0F47003A3E0F4700D85188285198374E1F0A374FFF0851882851983C9
:204E40001219837C6D7D827A027B02123DE274021216FFE508F50A780A1219707B107C12D3
:204E60007D00AA09790D1229CC74011216FF74021216FF024F30851882851983E0F8A3E020
:204E8000F9E8492274EA12175974FC1216E98915EBFF74A22A1243A57C00EC125786FD74DB
:204EA000D02DC39417400302577C74C62DC39407500302577CEDC394414005750837800381
:204EC000750830750900750A00750B00851882851983780C1215A17404780C1214D58D1088
:204EE000F511F512F513780C79101214F4780C790812152D850C08850D09850E0A850F0BAD
:204F000085188285198378081215B00CECC3940840888518828519831215D7E8494A4B6077
:204F20005B9087CF78081215A18518828519837808120B746046AC18AD197A04EEF9123DB3
:204F40007CE970387900123C0E85188285198312197F7C427D827A027B02123DE274041214
:204F600016FFEFF50878081219707B107C127D00AA1579111229CC74011216FF74041216F3
:204F8000FF7F0E02182B12543DF583E02274EF12175974FC1216E98910EAFEEBFF741512B7
:204FA000173578081215A185188285198378081215B0AC18AD197A0474A22EF9123D82852B
:204FC00018828519831215D7E8494A4B60159087CF780C1215A1851882851983780C120BCA
:204FE00074700B85188285198378081215B085188285198312197F7C337D827A027B021288
:205000003DE274041216FFEFF50878081219707B107C127D00AA1079111229CC740112164D
:20502000FF02447674F6121759E9FEEAFFEE60348F08750900780812196C7C1E7D027A02B6
:205040007B02123C3874021216FF75080078081219707B107C127D007A00EFF91229CC74A5
:20506000011216FF80031216FF7F0202182B74F6121759E9FEEAFF90189AE0C39433405997
:20508000900225E0643F6051750802750900780812196C7C007D887A027B02123C3874029B
:2050A0001216FF750808780812196C7C3C7D847A047B02123C3874021216FFEFF5087808EA
:2050C0001219707B107C127D00EEFA790A1229CC74011216FF790080027901808C74EE129C
:2050E000175974F51216E98910EAFE701E90021E127624500790021EE0545FF090021F120E
:205100007624500790021FE0545FF090021EE064417006A3E06454603AEE60348908750959
:2051200000780812196C7C1E7D027A027B02123C3874021216FF75080078081219707B1000
:205140007C127D007A00A9101229CC74011216FF0275927F00EE702C741E29F8E43402F996
:20516000E824FEF582E934FFF583E0640D7015E824FFF582E934FFF583E0640A70067F01EA
:20518000151015107C1C7D0079007A027B02123C50750A00750B887402651070307508020F
:2051A000750900780812196CAC0AAD0B7A027B02123C3874021216FFEFF5087808121970C9
:2051C0007B107C127D00EEFA7902027581E510C39408EE503A6035851008750900780812D0
:2051E000196C7C1E7D027A027B02123C3874021216FF75080078081219707B107C127D00C7
:205200007A00A9101229CC74011216FF02759270357C03ECF8741E28F8E43402F9E8FAE917
:20522000FB8A828B83E0FD74F92D12762D5007745F5DF51180028D118A828B83E511F00C74
:20524000ECC3940740CD7508FF750984750CAF750D85740865106003026F68EE700F900216
:20526000251276245007900225E0545FF0750E88750F86900221E024BF6066147003025D95
:2052800014147003025DDE1470030260BE1470030263111470030263381470030263BD14B1
:2052A00070030263EF14700302645F24FC70030265531470030266F524FE70030268062481
:2052C000FE70030269A4147003026B71147003026D7D147003026EE4147003026F0F026F23
:2052E0005E750807750900780812196C7CB77D847A1E7B02123C4A74021216FFE9603390AD
:205300000225E0F8743F68601674D028C39417400302759274C628C394075003027592EFCC
:20532000F5087808121970EEFD7C307B927A46026D75750808780812196C7C727D847A1EEA
:205340007B02123C4A74021216FFE97508077808603312196C7C1E7D027A027B02123C38EC
:2053600074021216FF750802780812196CAC0AAD0B7A027B02123C3874021216FF12766385
:205380007930026A2312196C7CA77D847A1E7B02123C4A74021216FFE96011EFF50878080A
:2053A000121970EEFD7C307B95026D73780812196C7CC77D847A1E7B02123C4A7402121623
:2053C000FFE96011EFF5087808121970EEFD7C307BBC026CB2750808780812196C7C457DA5
:2053E000847A1E7B02123C4A74021216FFE96038750807780812196C7C1E7D027A027B02B1
:20540000123C3874021216FF750802780812196CAC0AAD0B7A027B02123C3874021216FF49
:205420001276637932026A23780812196C7C217D847A1E7B02123C4A74021216FFE96038C7
:20544000750807780812196C7C1E7D027A027B02123C3874021216FF750802780812196CE6
:20546000AC0AAD0B7A027B02123C3874021216FF1276637933026A23780812196C7C187D54
:20548000847A1E7B02123C4A74021216FFE96038750807780812196C7C1E7D027A027B0210
:2054A000123C3874021216FF750802780812196CAC0AAD0B7A027B02123C3874021216FFA9
:2054C0001276637934026A23750806780812196C7C817D867A1E7B02123C4A74021216FFC1
:2054E000E9600AEFFAEEF9122990027592750808780812196C7C067D847A1E7B02123C4AE9
:2055000074021216FFE97003026F5EEFFBEEFA7900025DD8750807750900780812196C7CAC
:205520007F7D857A1E7B02123C4A74021216FFE96020EFFAEEF91229C0E97003027592EF18
:20554000F5087808121970EEFD7C347B817A38026D75780812196C7C8F7D857A1E7B0212BB
:205560003C4A74021216FFE96021900225E0F9743F697012123B90E9F508780812196C7C1A
:205580002B7D8302716B7A03026EAE780812196C7CBF7D857A1E7B02123C4A74021216FFC9
:2055A000E96011EFF5087808121970EEFD7C307BA0026CB2750808780812196C7C9A7D8306
:2055C0007A1E7B02123C4A74021216FFE97003026F5EEFFBEEFA790112299C0275927508AD
:2055E00006750900780812196C7C8F7D867A1E7B02123C4A74021216FFE96071851882855A
:205600001983740AF0900224E0F9743F697016A3E0643F7010900F1212761E12196C7C132C
:205620007D8302662A74D029C3940A4003027592900225127612400302759275F00AE9A425
:205640002824F0851882851983127B6F123D7CE96003027592851882851983E0900F12F0F1
:2056600012761812196C7C5B7D8302662A750808780812196C7CB57D837A1E7B02123C4A10
:2056800074021216FFE97808605A12196C7C1E7D027A027B02123C3874021216FF750802FF
:2056A000780812196CAC0AAD0B7A027B02123C3874021216FFEFF50878081219707B107C3B
:2056C000127D00EEFA79081229CC74011216FF7A017901123B96900E5DE06430600302750E
:2056E00092026AC812196C7CBE7D837A1E7B02123C4A74021216FFE96006123B54027592D0
:20570000780812196C7CC77D837A1E7B02123C4A74021216FFE96007EFFC7B000266EB7567
:205720000804780812196C7C1E7D877A217B02123C4A74021216FFE97003025FE6900E5AC0
:20574000E064037003027592750808780812196C7C1E7D027A027B02123C3874021216FFB5
:20576000750802780812196CAC0AAD0B7A027B02123C3874021216FF900225E0FC744C6C4A
:20578000701D900E5EE060337C007ABA7B0E900EC0E0F9123B9CE9600302756F027562ECBD
:2057A00024D0F8E434FFF9C31275AF400E900E88E0FAC3E89AE91275AF4008900209744E9D
:2057C00002756E74D02C900EB9F0900E5EE41276571216D61275CC123B9CE970069002093A
:2057E0007445F002756F750807780812196C7C777D857A1E7B02123C4A74021216FFE960F7
:2058000010EFF5087808121970EEFD7C337BB28026780812196C7C6F7D857A1E7B02123C9D
:205820004A74021216FFE96013EFF5087808121970EEFD7C377BB37A39026D757808121910
:205840006C7C677D857A1E7B02123C4A74021216FFE96013EFF5087808121970EEFD7C30B3
:205860007BB47A34026D75780812196C7C4F7D857A1E7B02123C4A74021216FFE96013EFEE
:20588000F5087808121970EEFD7C367BB57A36026D75780812196C7C477D857A1E7B02128C
:2058A0003C4A74021216FFE97003026F5EEFF5087808121970EEFD7C317BAD026CB2750836
:2058C00005750900780812196C7C9D7D867A217B02123C4A74021216FFE9700302615F9017
:2058E0000E5DE064306010900E5AE064036008900E5BE064047003027592900E5AE06401B8
:205900007003027592750808780812196C7C1E7D027A027B02123C3874021216FF750802BB
:20592000780812196CAC0AAD0B7A027B02123C3874021216FF12766E1219707B107C127D9F
:2059400000EEFA79081229CC74011216FF900EC1E4F0EFA2E0400302630674300263057566
:205960000807780812196C7C3F7D857A1E7B02123C4A74021216FFE96056900225E024D0D0
:20598000C39403400302759212767A12197075083178081219707B30740212174F7A01796E
:2059A0009312297E74021216FF851882851983E064316003027592900225E0851882851989
:2059C00083127B69123D7CE96003027592026A7E750805780812196C7CA97D867A217B026B
:2059E000123C4A74021216FFE9700302626F900E5DE064306010900E5AE064036008900E1F
:205A00005BE064047003027592900E5AE064017003027592750808780812196C7C1E7D02F9
:205A20007A027B02123C3874021216FF750802780812196CAC0AAD0B7A027B02123C387453
:205A4000021216FF12766E1219707B107C127D00EEFA79081229CC74011216FF900EC17417
:205A600001F0EFA2E040030263067431026305780812196C7CF77D867A217B02123C4A7456
:205A8000021216FFE97003026F5E900E5DE064306010900E5AE064036008900E5BE06404EB
:205AA0007003027592900E5AE064017003027592750808780812196C7C1E7D027A027B0203
:205AC000123C3874021216FF750802780812196CAC0AAD0B7A027B02123C3874021216FF83
:205AE00012766E1219707B107C127D00EEFA79081229CC74011216FF900EC17402F0EFA21D
:205B0000E050037432F090879712197F7A20026D35750808750900780812196C7C2A7D8465
:205B20007A1E7B02123C4A74021216FFE97003026F5E123B42026EB47508077509007808BB
:205B400012196C7C2F7D857A1E7B02123C4A74021216FFE9601EEFFAEEF91229C0E9700329
:205B6000027592EFF5087808121970EEFD7C307B8B026CB2780812196C7CDF7D847A1E7BD2
:205B800002123C4A74021216FFE960057A00026457780812196C7C567D867A1E7B02123CFA
:205BA0004A74021216FFE97003026F5EEFF5087808121970EEFD7C307BAE0268C875080756
:205BC000750900780812196C7CD77D847A1E7B02123C4A74021216FFE97003026F5EEFF583
:205BE000087808121970EEFD7C317BB1026CB2750807750900780812196C7CCF7D847A1EA1
:205C00007B02123C4A74021216FFE9602D75080F780812196C7C037D827A027B02123C38BC
:205C200074021216FFEFF50878081219707B107C127D00EEFA790F027581780812196C7C2F
:205C4000BF7D847A1E7B02123C4A74021216FFE97003026F5E7A02900225E0F9026EAE7570
:205C60000807750900780812196C7CAF7D847A1E7B02123C4A74021216FFE96011EFF508C4
:205C80007808121970EEFD7C307B89026CB2780812196C7C9F7D847A1E7B02123C4A7402D8
:205CA0001216FFE96011EFF5087808121970EEFD7C307B93026CB2750808780812196C7C7F
:205CC000847D847A1E7B02123C4A74021216FFE9600C9087CB12197FEFFB7A00806D780843
:205CE00012196C7C8D7D847A1E7B02123C4A74021216FFE9600C9087C712197FEFFB7A0177
:205D00008049780812196C7C967D847A1E7B02123C4A74021216FFE9600C9087C312197F6D
:205D2000EFFB7A028025780812196C7C7B7D847A1E7B02123C4A74021216FFE97003026F32
:205D40005E9087BF12197FEFFB7A03EEF91229B4026D3F750806750900780812196C7C5E88
:205D60007D867A1E7B02123C4A74021216FFE9700302664B85188285198374C5F0900224A8
:205D8000E0FD743F6D7035A3E0643F702F7508C578081219707508FF78081219707B0074B9
:205DA0000212174F7A01799412297E74021216FF12761812196C7C077D83806E74D02DC3AF
:205DC0009417400302759274C62DC394075003027592900225E0FC74D02CC39417400302F5
:205DE000759274C62CC394075003027592EDC3944140047A3780027A30ECC3944140047896
:205E00003780027830EDC39AC454F02CC398851882851983127B63123D7CE96003027592F8
:205E200012761812196C7CFB7D827A027B02123DE274021216FFEFF50878081219707B105C
:205E40007C127D00EEFA7909027581750807780812196C7CC77D857A1E7B02123C4A7402D2
:205E60001216FFE96041EFF5087808121970EEFD7C327B887A33793012295A74011216FF47
:205E8000900225E0F8743F68700302759274D028C39404400302759290189AE068700302CA
:205EA0007592E8F0027592750808780812196C7C607D847A1E7B02123C4A74021216FFE94E
:205EC000600AEFFC7B01EEFA79018023780812196C7C577D847A1E7B02123C4A74021216B6
:205EE000FFE97003026F5EEFFC7B01EEFA79001229A8027592750808750900780812196CAA
:205F00007C4E7D847A1E7B02123C4A74021216FFE9750807780870030267B312196C7C1EBF
:205F20007D027A027B02123C3874021216FF750802780812196CAC0AAD0B7A027B02123C7B
:205F40003874021216FF900209743AF07C0A7D027A0D79BA123D8290020AE0C3942050233D
:205F6000750806780812196CAC0EAD0F7A0A7B02123C3874021216FF7C0A7D027A0D79BA2E
:205F8000123D7CEFA2E07A027B025006123C32EA8005123C32EA04F9E9C3941D4002791CEC
:205FA000EFF50878081219707B107C127D00EEFA02758112196C7CE77D847A1E7B02123C06
:205FC0004A74021216FFE96011EFF5087808121970EEFD7C317B87026CB2780812196C7C2C
:205FE000EF7D847A1E7B02123C4A74021216FFE97003026F5EEFF5087808121970EEFD7CCE
:20600000307BB0026CB2750A06750B00780A12196C7C967D867A1E7B02123C4A7402121687
:20602000FFE9601E90189AE06431700C900224E0C394344003027592EFFAEEF912298A02C3
:206040007592750A07780A12196CAC08AD097A1E7B02123C4A74021216FFE96009EFFBEEBC
:20606000FA7901026DFB750807750900780812196C7C077D857A1E7B02123C4A7402121659
:20608000FFE96011EFF5087808121970EEFD7C317B97026CB2780812196C7C0F7D857A1E9A
:2060A0007B02123C4A74021216FFE96020EFFAEEF91229C0E97003027592EFF50878081217
:2060C0001970EEFD7C307B847A32026D75780812196C7C177D857A1E7B02123C4A74021230
:2060E00016FFE9601C900E5BE064046003027592EFF5087808121970EEFD7C317B8E026C63
:20610000B2780812196C7C1F7D857A1E7B02123C4A74021216FFE97003026F5E8518828500
:206120001983743212768212197075083378081219707B30740212174F7A01798A12297EDD
:2061400074021216FF900225E0F8743F68700C12761812196C7C727D83803F74D028C394D5
:20616000044003027592851882851983E0686020E8127B5D123D7CE96003027592851882B6
:20618000851983E024D0F9123092E9600302759212761812196C7C907D837A027B02123D5D
:2061A000E2026EDC750807750900780812196C7C277D857A1E7B02123C4A74021216FFE9C0
:2061C0006011EFF5087808121970EEFD7C317BAB026CB2750808780812196C7C337D847AA3
:2061E0001E7B02123C4A74021216FFE97508077808603612196C7C1E7D027A027B02123C55
:206200003874021216FF750802780812196CAC0AAD0B7A027B02123C3874021216FF127601
:2062200063793112297202759212196C7C377D857A1E7B02123C4A74021216FFE96024EFA9
:20624000FAEEF91229C0E97003027592EFF5087808121970EEFD7C307B837A3279301229D1
:206260005A8060750808780812196C7C0F7D847A1E7B02123C4A74021216FFE96055750857
:2062800008780812196C7C1E7D027A027B02123C3874021216FF750802780812196CAC0A5E
:2062A000AD0B7A027B02123C3874021216FFEFF50878081219707B107C127D00EEFA790804
:2062C0001229CC74011216FF90879712197F7A02026D35780812196C7CFD7D837A1E7B02FE
:2062E000123C4A74021216FFE9605AEFFAEEF91229C0E97003027592780812196C7C1E7D68
:20630000027A027B02123C3874021216FF750802780812196CAC0AAD0B7A027B02123C38DC
:2063200074021216FFEFF50878081219707B107C127D00EEFA79081229CC74011216FF1205
:2063400029D2027592780812196C7CF47D837A1E7B02123C4A74021216FFE97003026F5E3D
:20636000900E5AE064036003027592123BFC027592750807750900780812196C7C577D8532
:206380007A1E7B02123C4A74021216FFE96011EFF5087808121970EEFD7C307B8C026CB294
:2063A000780812196C7C5F7D857A1E7B02123C4A74021216FFE96015EFF50878081219703A
:2063C000EEFD7C337B9B7A397931026D77750808780812196C7CEB7D837A1E7B02123C4A1A
:2063E00074021216FFE96034900E5AE064037003027592908763740712174F74041215FCC0
:20640000750802780812196C740912174F7A247B02123A0A74021216FF026A7E780812194E
:206420006C7CD97D837A1E7B02123C4A74021216FFE96048900E5AE0640370030275929075
:206440000E5BE064046003027592900E5DE0643060030275927C087D007AD07B831229D8E8
:206460007AF47B0112294E7A00900E55E0F9123D287901123D22123A52027592750807785E
:206480000812196C7C877D857A1E7B02123C4A74021216FFE96020EFFAEEF91229C0E97081
:2064A00003027592EFF5087808121970EEFD7C307B827A31026D75750808780812196C7C8E
:2064C000AC7D837A1E7B02123C4A74021216FFE96075900E5DE064316003027592900E5A34
:2064E000E06003027592780812196C7C1E7D027A027B02123C3874021216FF750802780805
:2065000012196CAC0AAD0B7A027B02123C3874021216FFEFF50878081219707B107C127DBD
:2065200000EEFA79081229CC74011216FF90879712197F7A017B00900200E0F9123DA6742D
:20654000041216FF027592750807780812196C7C977D857A1E7B02123C4A74021216FFE924
:206560007003026F5EEFF5087808121970EEFD7C337B967A33793012295A027584750807BD
:20658000750900780812196C7C9F7D857A1E7B02123C4A74021216FFE9600AEFFAEEF912CA
:2065A0002960027592780812196C7CA77D857A1E7B02123C4A74021216FFE96020EFF5086E
:2065C0007808121970EEFD7C307B857A33793012295A74011216FF123B0C0275927808128E
:2065E000196CAC0CAD0D7A1E7B02123C4A74021216FFE9600CEFFBEEFA79001229660275A2
:2066000092780812196C7CB77D857A1E7B02123C4A74021216FFE97003026F5E900225E090
:20662000F9743F696003026EAC90624BE0D2E0F09061A9E0D2E0F079001239F87A03790E2B
:206640001239F28A0C8B0D90624BE0C2E0F09061A9E0C2E0F0E4F50EF50F780C120C0990EE
:20666000879F78081215A1780C7908120E14780C1219687C517D827A027B02123DE27404EE
:206680001216FF900209E0642070037430F0A3E0642070037430F0EFF50878081219707B3D
:2066A000107C127D00EEFA790E0275817A01123C1A750808780812196C7C1E7D027A027BC9
:2066C00002123C3874021216FF750802780812196CAC0AAD0B7A027B02123C387402121674
:2066E000FF02756F750808750900780812196C7C697D847A1E7B02123C4A74021216FFE982
:20670000605CEFFC7B00EEFA79011229A88056750806750900780812196CAC0EAD0F7A0232
:206720007B02123C3874021216FF750805780812196C7CEB7D867A087B02123C38740212A9
:2067400016FFEFF50878081219707B107C127D00EEFA790B1229CC74011216FF80077A086F
:20676000EEF91229BA027592750E07750F00780E12196CAC08AD097A1E7B02123C4A74027C
:206780001216FFE96011740D6510600302758BEFFBEEFA7901802D75080775090078081290
:2067A000196CAC0CAD0D7A1E7B02123C4A74021216FFE96015740D6510600302758BEFFBF5
:2067C000EEFA790012296C027592780812196C7CD67D857A1E7B02123C4A74021216FFE90A
:2067E000600F740F6510600302758BEFFB7A008073780812196C7CDE7D857A1E7B02123CA0
:206800004A74021216FFE9600F740F6510600302758BEFFB7A01804C780812196C7CE67DB5
:20682000857A1E7B02123C4A74021216FFE9600F740F6510600302758BEFFB7A0280257851
:206840000812196C7CEE7D857A1E7B02123C4A74021216FFE96015740F6510600302758B28
:20686000EFFB7A03EEF91229AE027592780812196C7CF67D857A1E7B02123C4A7402121602
:20688000FFE96011740A6510600302758BEFFBEEFA79018027780812196C7CFE7D857A1E29
:2068A0007B02123C4A74021216FFE96015740A6510600302758BEFFBEEFA79001229960252
:2068C0007592780812196C7C067D867A1E7B02123C4A74021216FFE9700302718C740A658D
:2068E00010600302758B7508007A0012543C127643400302758B1255A4500302758BE9C36E
:20690000944140047C3780027C30740478081216D612759CF508E99400F5090AEAC394039E
