:020000040000FA
:2000000002073E020803FFFFFFFFFF02080BFFFFFFFFFF020813FFFFFFFFFF02081BFFFF46
:20002000FFFFFF020823FFFFFFFFFF02082BFFFFFFFFFF020833FFFFFFFFFF02083BFFFFF0
:20004000FFFFFF020843FFFFFFFFFF02084BFFFFFFFFFF020853FFFFFFFFFF02085BFFFF50
:20006000FFFFFF020863FFFFFFFFFF02086BFFFFFFFFFF020873FFFFFFFFFF02087BFFFFB0
:20008000FFFFFF020883FFFFFFFFFF02088B74F71205E474FC1206F57508047509007808E4
:2000A00012071E740212075AAC82AD837A907B0079011204E874021206C4851882E0F8A3D9
:2000C000E0F9E8496021851882851983E0F47003A3E0F46012740212075AE0687003A3E0FE
:2000E00069700479018002790074041206C47F0202064A74F51205E474FF1206F58002E43D
:20010000F07C017D00851882851983AA82AB8379001204418B09EA45097003020246900270
:2001200083E0600F14601E1460431470030201B002023C851882851983E064FE70C39002E3
:2001400083740180BB851882851983E0C394FC90028350AB7402F0900281E4F0900280F09A
:20016000851882851983E02403900282F0851882851983E0F8900280E068F0851882851915
:2001800083E0C0E0900281E0F8748128F58274013400F583D0E0F0900281E004F0F89002AB
:2001A00082E06860030201019002837403020100E4F0900280E0F8851882851983E06860D9
:2001C00003020101900182E0541F640D6003020101120252750800900181E02403F50A7E61
:2001E00000601A78807901FF88828983A3E0620888828983A3A882A9831FEF70EBC008854C
:200200000A0874812508F58274013400F583D0E0F0900183E064837007A3E07003050A0E0D
:2002200090018074FEF0E50A2402FCE43400FD7A807B01790012045DEEF9800CC2AF75C9A1
:20024000AB75C95B80FE790074011206C47F0402064A74F51205E474FC1206F5900185E066
:20026000FA900184E0FB8B08EAF8E4C8F9EB2400E93402F5097F017E00900183E014600FD9
:2002800014604514607E1470030203B70203B6EBF8E5095401F9E8497011880A85090B7445
:2002A00009780A12072FA90A1205CD750A108E0B780A12071E7C867D01AA08AB091205698D
:2002C00074021206C40203B77F43EA900186F0EB900185F0750A40880B780A12071E7C875E
:2002E0007D01EBF50AE5095401F50B7402780A12070BAA0AAB0B7409780812072FA90812C5
:2003000004E880BC7508048809780812071E740212075AAC82AD837A907B0079011204E8A8
:2003200074021206C4740212075AE0F8A3E0F9851882851983E0687003A3E069605B8518EF
:2003400082851983E0F8A3E0F9740212075AE8F0A3E9F085188285198374FFF0A3F08F089C
:20036000780812071E740212075AAC82AD837A247B0212056974021206C47508047808127F
:20038000071E740212075AAC82AD837A907B0079011204E874021206C4851882851983E082
:2003A000F8A3E0F9740212075AE0687003A3E06960057E0780010EEF900181F0900183E0DB
:2003C000D2E7F0EEA3F0740402024A74F81205E475080075F88075FB8043F10243F4C053EC
:2003E000FF3F43FF4075FAD875FC0B75FB0275F8C08036A2F95028C2F990028CE0F89002CF
:200400008EE028FAA3E034008A82F583E0F5F990028CE004F00890028DE0687002E4F0A2FA
:20042000FA50061200F3E9420890028DE070C4E50860ECA2F840E8C2AF75C9AB75C95B8093
:20044000FEC082C083A2FA500BE5F98A828B83F07A0180027A007B00D083D08222C082C07F
:200460008390028EEAF0A3EBF0EC90028DF090028C7401F0C2F98A828B83E0F5F9ECFAED8D
:20048000FB80D553BEFBE59DA2E650FAE5C654804449F5C6E59E547F644970F853C67FE5FD
:2004A0009EA2E740FA53C680E59E547F70FA43BE049062707408F07402F5D575D484120090
:2004C0008EE96401700D020800C2AF75C9AB75C95B80FE794E1206DEE960F81203CBC2AFF9
:2004E00075C9AB75C95B80FE74F51205E48908740B12075AE0FEA3E0FF740F5508F50A7561
:200500000B00740B780A12070BEA2400F8EB3480F9E82400E9350BF9E5C7FBA2AFE433F5DB
:2005200009C2AFE508C4540FFAE5C754F84AF5C7EE4F602888828983E08C828D83F0888262
:200540008983A3A882A9838C828D83A3AC82AD83EE24FF1EEF34FFFFEE4F70D88BC7E50962
:20056000A2E092AF7F0402064A74F71205E4740912075AE0F508A3E0F509ED900284F0EC50
:20058000A3F0A37462F0A37473F0A3E0541FF0E508333354FCA3F07406780812072FE5089A
:2005A000900288F090028A7412F0A37442F053D1FE75D601EA906271F0EBA3F0906270E0EB
:2005C000D2E1F0E0A2E740FB7F0202064AC082C083E9C333906272F0906270E0D2E0F0D095
:2005E00083D082222518C582C0E0E51934FFC583C0E0E518C3958224F910AF088583198566
:2006000082188008858319858218D2AFCEF0A3E520F0A37808E608F0A3DEFAEFF0A3E5813D
:2006200024FBF8E608F0A3E608F0A30808E608F0A3E608F0A315811581D0E0FED0E0F815F8
:20064000811581E8C0E0EEC0E022851983851882E0A3FEE0A3F5207808E0A3F608DFFAE038
:20066000A3FFE0A3C0E0E0A3C0E0E0A3C0E0E0A3C0E010AF0885821885831980088582189E
:20068000858319D2AFD083D08222120769B900030206A3E4900180781179028002F0A3D822
:2006A000FCD9FA1204831207642518F58210AF08F518400215198008F51840021519D2AFD7
:2006C00085198322C0D0251810AF08F518500205198008F51850020519D2AFD0D022E9F89D
:2006E00075B60FE5B4A2E750FAE8C395BB5003790122790022251810AF08F518400215194E
:200700008008F51840021519D2AF22700422600D18C6C333C608C633C6D5E0F41822740274
:200720008000C0E0F4041206A9D0E012074D22600C08C6C313C618C613C6D5E0F42275D00B
:200740000075813F75188075190102068ACAC0E0E6F0A308DAFAD0E0FA222518F582E435DE
:2007600019F5832200000080FB790122FFFFFFFFFFFFFFFFFFFFFFFFFFFFFFFFFFFFFFFFC3
:20078000FFFFFFFFFFFFFFFFFFFFFFFFFFFFFFFFFFFFFFFFFFFFFFFFFFFFFFFFFFFFFFFF79
:2007A000FFFFFFFFFFFFFFFFFFFFFFFFFFFFFFFFFFFFFFFFFFFFFFFFFFFFFFFFFFFFFFFF59
:2007C000FFFFFFFFFFFFFFFFFFFFFFFFFFFFFFFFFFFFFFFFFFFFFFFFFFFFFFFFFFFFFFFF39
:2007E000FFFFFFFFFFFFFFFFFFFFFFFFFFFFFFFFFFFFFFFFFFFFFFFFFFFFFFFFFFFFFFFF19
:20080000020B31021EFFFFFFFFFFFFFFFFFFFFFFFFFFFFFFFFFFFFFFFFFFFFFFFFFFFFFF95
:20082000FFFFFFFFFFFFFFFFFFFFFF021ACFFFFFFFFFFFFFFFFFFFFFFFFFFFFFFFFFFFFFEA
:20084000FFFFFF021ACCFFFFFFFFFFFFFFFFFFFFFFFFFF021F72FFFFFFFFFFFFFFFFFFFF37
:20086000FFFFFFFFFFFFFFFFFFFFFF021B28FFFFFFFFFFFFFFFFFFFFFFFFFF021AEBFFFF46
:20088000FFFFFF021DB301FFFFFFFFFFFFFFFFFF680168013001013FE0FFE1FF30E1FFE09F
:2008A000FF16484D536F6674000292860300007886029E860300008310027C1003000098F2
:2008C000020288860300009902028A860100008410BD1DA299E625588CD94201630D12BF60
:2008E0009FD9D9AAFDBD9B2198A849E145F3D8D169FB7B7CCE6AB344BEB54BD624E9C6EA61
:20090000223030300201061AFF4C00021574278BDAB64445208F0C720EAF059935000101A2
:2009200002C50E09484D536F667400000000000000020A00071600B0000000000302E0FFEB
:20094000FFFF100020005802FF01FF008E2BA02BCA2B942BFF0000B400002800280028307D
:2009600075A000A000A000A00000080008E001F000100010001000100010001000500050A1
:2009800000500010001000D0070000000000000F00307507001000010081FF0000FF0E2D8A
:2009A0002C2D142DFF02020A0A025000A0000000E8030292860100007286029E860100006F
:2009C00087110286860100003705029E8601000088110284860100004D05029E86010000EE
:2009E0008911028C860300004F05029E860100008A11029A860300005005029E860100008F
:200A00008B11029C860100008C11FFFF0100FF200292860100006F86029E86010000F11121
:200A200002988600000000000288860300003106703470347034703470347034703470342C
:200A4000703470347034703470348636A4368036C437DC37BE373031323334353637383906
:200A600041424344454600286E756C6C20706F696E74657229003F3F3F000000807F0000F8
:200A8000803FF9021550B743BA510000204100E7DB2E0000A04008000000E5C754F84401BC
:200AA000F5C779012200000080FB120A9AB90003020B1BE479217808B800028004F709D8B5
:200AC000FCE479297802B800028004F709D8FCE49002407837790F8002F0A3D8FCD9FA78E7
:200AE0001A9008867A01BA00028007E493A3F608DAF9901076AA82AB83900894780779037E
:200B00008015E493A3AC82AD838A828B83F0A3AA82AB838C828D83D8E9D9E7758222758311
:200B2000FC7404120B437582A575830A7400120B4375D00075813F751840751902759F0084
:200B4000020AAAC09FF59FE473D09F22D083D082C09FE493C0E0740193C0E0740293F59FA4
:200B600022E066701008A3E066700A08A3E066700408A3E06622C008C3E096F50808A3E021
:200B800096420808A3E096420808A3E0964208A2D265D033E5087001D3D00822C3E7960850
:200BA00009E7960809E7960809E79622C3E09608A3E09608A3E09608A3E09622C008C3E048
:200BC00096F50808A3E096420808A3E096420808A3E09645087001D3D00822080808E630D2
:200BE000E711121497120BF3080808C64480C618181822181818E9799EC608CAC608CBC61F
:200C000008CCC6C370207996CACBCC7019798ECBCC70137986CC700EF9802ACA33CACB331C
:200C2000CBCC33CC331930E7F2CCCBCA3350147004EA30E00DE4CA3ACACB3BCBCC3CCC50AF
:200C40000209C3E913C6CC182313C6CB18C6CA18C6F922120C9320F01430E72B74FFFCFB37
:200C6000FA747F8022E4FCFBFA7480801AB48008BC00F2BB00EF800F50EBF9E4C39AFAE40C
:200C80009BFBE49CFCE499C6CC18C6CB18C6CA18C6F922E4C9C608CAC608CBC6D333030834
:200CA000CCC63392F0C3947F402E94184019C9B90704CACBCC225025C309CA33CACB33CBC3
:200CC000CC33CC33D9F422F4600DC9CCC313CB13CBCA13CAD9F6CC22E4FCFBFA2214FCFB4C
:200CE000FA22E6C33318461846184622E7C33319471947194722181818E6084608700AE6BD
:200D000008C3337005E633F4220822191919E7094709700AE709C3337005E733F42209224C
:200D2000E6084608C3134608336002E633F422E7094709C3134709336002E733F422120D45
:200D4000206025120D2F6020120CE27003020CEC080808E76670101819E766700A1819E7BE
:200D60006670041819E76622F422120D20601C120D2F6017120CE27007120CEC7001D3227C
:200D8000C0D0120CEC7006D0D0B322C32233D0D0501430E0F6C3E7960809E7960809E79650
:200DA0000809E796B32220E0D5E6970809E6970809E6970809E697B322120D20601B120D26
:200DC0002F6016120CE27007120CEC600CB322C0D0120CEC7005D0D022C32233D0D05013C0
:200DE00030E0EBC3E7960809E7960809E7960809E7962220E0E4E6970809E6970809E6976F
:200E00000809E6972200120D20604F120D2F6012E7548066F6120CF67011120CEC703B090A
:200E20000909F4F618F618F618F622120D0B7015120CE208080860EAE6447FF61876801894
:200E4000E4F618F622120CE26016120CEC7012E4F608F608F608E65480F609090918181895
:200E600022EAC0E0EBC0E0ECC0E0EDC0E0E687F0A4FBACF008E687F0A42CFCE435F0FA183E
:200E800009E687F0A42C4B60027401CA35F0FCE433FB09E687F0D2F7A42CCB35F0FC1908F1
:200EA000E687F0A42BCC35F0FBE433FD0819E687F0D2E7A42C4ACB35F0CD3400FC09E68752
:200EC000F0D2E7A42DCC35F0FDE433FA0918E687F0D2F7A42CCD35F0CA3400FC08E687F031
:200EE000D2E7D2F7A42ACC35F07A7E20E70B0ACB33CBCD33CDCC33CC33CB3350147004ED46
:200F000030E00ED2F1E4CD3DCDCC3CCC3B5005DA05C2F1EB547FC63308E63392F0FBE733D0
:200F200009E733C39A502D2B70190C0D4C4D70151806E608C333700D20F10AA2F013F6E4B0
:200F400018800B4024E4F630F002768018F618F618F68024D33B14501074FFA2F013F61822
:200F60007680E418F618F6800FA2F013F618E63303F618ECF618EDF6D0E0FDD0E0FCD0E029
:200F8000FBD0E0FA22120D2F6046120D20603DE9687008F618F618F618F622748067F7124B
:200FA0000FB9090909748067F722120D20601D120D2F7005191919801A120CF6701F120DB4
:200FC0000BC37003E6673319191940071818182208080874FFF618F618F618F622120D0B5D
:200FE0006017120CEC702192F0120CE27019501720F014080808090909E7F61819E7F61813
:2010000019E7F61819E7F622120CE260E6E869701F0808E62480F608E436F618547FB47FBE
:201020000CE654806007F6E418F618F622181822E9C6CC08C6CD08C6CE08C6CFC0E0E8C082
:20104000E0EAC0E0EBC0E009E9F809E7FA09E7FBE6F918E6F8C3EC98ED99EE9AEBC2E7F529
:20106000F0EFC2E795F0500E600CEBCFFBEACEFAE9CDF9E8CCF8EAA2E7D2E7FAEB33FB1385
:20108000F5F0EEA2E7D2E7FEEF33FFC5F013A2E730E601B313C5F0C3C0E0C0F07F00C39B49
:2010A000FB605B9418600C401AD0E023F9D0E0F80211888AF0E9486003D2F0E4AFF0FAF9B3
:2010C000F8803BEB30E40D89F0EA6003D2F0E4AFF0F9CAF8EB30E30D88F0EF6002D2F0AF46
:2010E000F0E4CAC9F8EB54076014FBC3EA13FAE913F9E813F8EF135002D2E0FFDBEDD0E0BD
:20110000C0E030E739C3E49FFFF5F0EC98FC42F0ED99FD42F0EE9AFE42F0D0E0F9D0E0F845
:20112000E5F0607AE923F9EE20E742D8028067C3EF33FFEC33FCED33FDEE33FE80EAEC284A
:20114000FCED39FDEE3AFED0E023F9D0E0F84002801BC3EE13FEED13FDEC13FCEF135002EB
:20116000D2E0FF08B800067F7F74FF802EEF3350178CF020F00260100CBC000C0DBD0008AC
:201180000EBE000408E860DFE933E813FFEE2313FE4F4D4C8008E95480FFE4FEFDFCEE33F0
:2011A000EF33F47004FCFD7E80D0E0FBD0E0FAD0E0F8D0E0CFC618CEC618CDC618CCC6F972
:2011C00022120D20700418181822120D2F700D74FFF61819F61819F61819F622E7548066E4
:2011E000F6120CE2700F120CEC70F014F608F608F608F680D1120CEC700CF608F608768043
:2012000008E6447F80EC120D0E700C120CF960BFE65480F6E480BB120CF9700519191980AC
:20122000A5E869700C763F18768018F618F6E8F922E6CDC0E018ECC0E0E633CD33CDD31397
:20124000F6E719FCE7191933CC33C3947F400ECD9D502408E65480F6E418F6800FF4043DE1
:2012600014501408E6447FF6187680E418F618F6D0E0FCD0E0FD22CCD313CCFD18E4C6CBBE
:20128000C0E018E4C6CAC0E00808ED08C633E613F618E433C675F003C3CA97CA09CB97CB14
:2012A000199C40047D08802EBD000302136A16B6FF050606081618C3CA33CACB33CB33CA61
:2012C00027CA09CB37CB193CC37D08803E187D0820E75CC633C6CA33CACB33CB33DDF1D5C7
:2012E000F0EB30E77BCA97CA09CB974ACB199C406F4B7025E620E0218066187D08C3CA97E4
:20130000CA09CB97CB199CD3C633C6CA33CACB33CB3350C9DDE7D5F0E1D3E4C636C608C6F9
:2013200036C608C636C608C636C61818188031C3CA97CA09CB97CB199CB34097C633C6CA38
:2013400033CACB33CB33DD34D5F02EC6A2E0C640C8CA27CA09CB37194A70BECB3CB480B92F
:201360000808E63308E633601F181818D0E0FAD0E0FBD0E0FCD0E0FD22187D08CA27CA092B
:20138000CB37CB193CD3808013F618E4B67F11F618B6FF0EF618C60470D20808768080CAD2
:2013A000F618F618F680C5080808EAC0E0EBC0E086F0E7A4FA180986F0E7A42AFA180986C1
:2013C000F0E7A42AFA180986F0E7A42AFA1986F0E7A4FBE5F02AFA190886F0E7A42BFBE5ED
:2013E000F03AFA190886F0E7A42BFBE5F03AFA18180986F0E7A4C5F02BFBE43AFA1908E743
:20140000C5F0C6A426F6E5F03BFBE43AFA1886F0E7A4F6E5F00826F6E43B08F6E43A08F62D
:20142000D0E0FBD0E0FA22E4CFC0E0E4CEC0E0E4CDC0E0E4CCC0E075F020C3E633F608E6AA
:2014400033F608E633F608E633F6181818EC33FCED33FDEE33FEEF33FFC3EC9709ED970999
:20146000EE9709EF97191919400FFFEC97FC09ED97FD09EE97FE191906D5F0BEECF709ED96
:20148000F709EEF709EFF7191919D0E0FCD0E0FDD0E0FED0E0FF22181818E4C396F608E4EE
:2014A00096F608E496F608E496F6226016080808C6C313C618C613C618C613C618C613C679
:2014C000D5E0EA227009080808226016181818C6C333C608C633C608C633C608C633C6D52E
:2014E000E0EA22E627F60809E637F60809E637F60809E637F622E026F608A3E036F608A311
:20150000E036F608A3E036F622E026F008A3E036F008A3E036F008A3E036F022C3E697F685
:201520000809E697F60809E697F60809E697F622C3E096F008A3E096F008A3E096F008A307
:20154000E096F022E657F60809E657F60809E657F60809E657F622E056F608A3E056F608D7
:20156000A3E056F608A3E056F622E056F008A3E056F008A3E056F008A3E056F022E066F6AC
:2015800008A3E066F608A3E066F608A3E066F622E0F608A3E0F608A3E0F608A3E0F622E613
:2015A000F008A3E6F008A3E6F008A3E6F022E0FAA3E0FBA3E0FCA3E0FD22EAF0A3EBF0A322
:2015C000ECF0A3EDF022CAC0E0E6F0A308DAFAD0E0FA22CAC0E0E0A3C582CCC582C583CDA6
:2015E000C583F0A3C582CCC582C583CDC583DAE6D0E0CA22C3E498F8E499F912163580264D
:20160000C3E49AFAE49BFBE920E7E9121635E498F8E499F922C3E498F8E499F9121635E4E5
:2016200098F8E499F9C3E49AFAE49BFB22EB20E7CFE920E7E0B90010BB0008E88AF084F8D2
:20164000AAF022E4FBC8FA22EB70227B10C833C8C933C9335007C39AC3DBF280069A500193
:201660002ADBEAC833F4C8C933F4C9FA2275F008E4C833C8C933C933C99AC99B5004C92AD5
:20168000C93BD5F0ECFBC833F4C8E4C9FA22600D08C6A2E713C618C613C6D5E0F322600C90
:2016A00008C6C313C618C613C6D5E0F422700422600D18C6C333C608C633C6D5E0F41822F7
:2016C000251810AF08F518400215198008F51840021519D2AF22C0D0251810AF08F51850F0
:2016E0000205198008F51850020519D2AFD0D0222518F58210AF08F518400215198008F50D
:201700001840021519D2AF851983222518F582E43519F58322E4732518C582C0E0E5193450
:20172000FFC583C0E0E518C3958224F810AF088583198582188008858319858218D2AFCEB1
:20174000F0A3E520F0A37808E608F0A3DEFAEFF0A3E58124FAF8E608F0A3E608F0A3E60897
:20176000F0A30808E608F0A3E608F0A315811581D0E0FED0E0F8158115811581E8C0E0EE0A
:20178000C0E0222518C582C0E0E51934FFC583C0E0E518C3958224F910AF08858319858267
:2017A000188008858319858218D2AFCEF0A3E520F0A37808E608F0A3DEFAEFF0A3E58124EA
:2017C000FBF8E608F0A3E608F0A30808E608F0A3E608F0A315811581D0E0FED0E0F81581EA
:2017E0001581E8C0E0EEC0E022851983851882E0A3FEE0A3F5207808E0A3F608DFFAE0A365
:20180000FFE0A3C0E0E0A3C0E0E0A3C0E0E0A3C0E0E0A3C0E010AF0885821885831980088B
:20182000858218858319D2AFD083D082020B49851983851882E0A3FEE0A3F5207808E0A390
:20184000F608DFFAE0A3FFE0A3C0E0E0A3C0E0E0A3C0E0E0A3C0E010AF088582188583199C
:201860008008858218858319D2AFD083D08222C0D02518C582C0E0E51934FFC583C0E0E5A6
:2018800018C3958224F310AF088583198582188008858319858218D2AFC8F0A3E9F0A3EA2E
:2018A000F0A3EBF0A37908E709F0A3D8FAECF0A3EDF0A3EEF0A3EFF0A3D0E0F0A3D0E0F05C
:2018C000A3D0E0F0A3E520F0A3E5F0F0A322851983851882E0C0E0A3E0F9A3E0FAA3E0FBC9
:2018E000A37808E0F608A3DFFAE0FCA3E0FDA3E0FEA3E0FFA3E0C0E0A3E0C0E0A3E0F5D07E
:20190000A3E0F520A3E0A3F5F010AF088583198582188008858319858218D2AFD082D0832F
:20192000D0E0F8D0E03274048006740280027401C0E0F4041216F0D0E01215C6227404804B
:201940000474028000CCC0E0EDC0E0E518C39CCCAD1950011D10AF068C188D1980068C18FF
:201960008D19D2AF1215D3D0E0FDD0E0FC22D083D082E9C0E0E493A3C386F0C5F095F0F917
:2019800008E493A386F0C5F095F0700BE493A3C3994005E9048002A3E475F002A42582F5A2
:2019A00082E5F03583F583D0E0F9E493A3C0E0E493C0E022D083D082CCC0E0E493A3600673
:2019C0001219DE1470FAE493A360061219FD1470FAD0E0FCE493A3C0E0E493C0E022C0E01B
:2019E000E493A3D39C5010E493A3C39C400AD0E0D0E0D0E00219D1A3A3A3D0E022C0E0E400
:201A000093A36C7009D0E0D0E0D0E00219D1A3A3D0E022D083D082ECC0E0EDC0E0E493A3BF
:201A2000FCE493A3FDED4C600D121A5FEC24FFFCED34FFFD80EFE493A3FCE493A3FDED4C65
:201A4000600D121A9EEC24FFFCED34FFFD80EFD0E0FDD0E0FCE493A3C0E0E493C0E022C0AC
:201A6000E0C3E49396087401939618400FE49366700808740193661870007019A3A3C3E4E0
:201A80009396087401939618A3A3400DD0E0D0E0D0E0021A4FA3A3A3A3A3A3D0E022C0E00D
:201AA000C0F088F0E4936670080874019366187000A8F0A3A3700BD0F0D0E0D0E0D0E00280
:201AC0001A4FA3A3D0F0D0E022FFFFFFC2C032C0E0C0D0E8C0E0E5A8D2AFC2C7751A00A294
:201AE000E792AFD0E0F8D0D0D0E032C0E074F212186FA2AFE433FED2AFE58AA2E3501A753B
:201B00008AF790859712193D7A107B00900297E0F91228B274041216D6758A00C2EBEEA28B
:201B2000E092AF7F010218CEC0E074F212186FA2AFE433FED2AFE589601A7589009085A7F4
:201B400012193D7A807B00900297E0F91228B274041216D6758900C2C580C374F512178367
:201B6000EAFEEBFFEE2434F8EF3400F988088909EE2435F582EF3400F583E0F8EE2437F5A8
:201B800082EF3400F583E0F50AEC850AF0A4FCAAF0850AF0EDA42AFDE82CF8E43DF97A25A8
:201BA0007B00121635EA850882850983F05407F87401B800028004C333D8FCC0E0E01313DD
:201BC00013541FF8EE28F8EF3400F9E8245DF582E93400F583D0E0F8E0586008EE2434F565
:201BE00082EF801EEE2436F582EF3400F583E0F5F0EA84A8F0EE28F8EF3400F9E82438F54E
:201C000082E93400F583E0F97F0402182F74F5121783EAFEEBFFEE2434F582EF3400F583C9
:201C2000E0C0E0EE2435F582EF3400F583D0E0F08E828F83A3A3A3A3A3A3A3C082C0838E81
:201C4000828F83A3A3A3A3A3E0F8A3E0F9D083D082E0C398F508A3E099F509EE2480F5826D
:201C6000EF3400F583E064017047EE2481F582EF3400F583E0FCA3E0FD8E828F83A3A3A3C1
:201C8000A3A3A3A3E0FAA3E0FBC3E89AE99B4003021D35C3EA9CEB9D40177C6E7D0AEEFA7F
:201CA000EFFB1233B6EE2480F582EF3400F583E4F0EE2434F8EF3400F9E8FCE9FDEE24355C
:201CC000F582EF3400F583E0F8EE2437F582EF3400F583E0F50AE508850AF0A4F508AAF039
:201CE000850AF0E509A42AF509E82508F8E43509F97A257B00121635EA8C828D83F05407B9
:201D0000F87401B800028004C333D8FCC0E0E0131313541FF8EE28F8EF3400F9E8245DF5A2
:201D200082E93400F583D0E0F8E0586015EE2434F582EF802BC3E89CE99D5003021C9A0206
:201D40001C93EE2436F582EF3400F583E0F5F0EA84A8F0EE28F8EF3400F9E82438F582E9E1
:201D60003400F583E0F91225DA021C08C082C083851882851983E0F8A3E0F9C3EA9CEB9DBD
:201D8000500BC3EC98ED99401279018010C3EA98EB9940F5C3EC98ED9950EE7900D083D01A
:201DA0008222EAC39CFAEB9DFB22FFFF8521878522C622C0E0C0D0E8C0E0E9C0E0EAC0E012
:201DC000EBC0E0ECC0E0EDC0E0C008C009C00AC00BC082C083C0F0759B00906182E0A2E619
:201DE0004003021E91E591A2E64003021E917591BF900727E06405700812355A12356680EB
:201E0000031235607521001235D2E9900728F079001235B41232DE7A017B00900726E0F9AF
:201E2000122834907803E064426003021EDA900AF9E014F06003021EDAC2AF121E3E00781B
:201E40002AD0E0F618D0E0F6E59F5407F9700590860B80039085F77808121590E9C4C0E073
:201E60007829E65508F50808E65509F509740B780812169ED0E02508F8906270E0A2E74092
:201E8000F8E8C333906272F0906270E0D2E0F08049E0A2E55024E591A2E5501E7591DF90B0
:201EA0000727E0640D7013900749E004F064287002E4F07A00E0F912366E906181E0A2E3BA
:201EC0005009E5E9A2E3500375E9F7A3E0A2E75009E591A2E7500375917FD0F0D083D0820D
:201EE000D00BD00AD009D008D0E0FDD0E0FCD0E0FBD0E0FAD0E0F9D0E0F8D0D0D0E032C03B
:201F0000E0C0D0C082C083906183E0A2E05009E5BFA2E0500375BFFEE0A2E15009E5BFA2F0
:201F2000E1500375BFFDE0A2E25009E5BFA2E2500375BFFBE0A2E35009E5BFA2E350037526
:201F4000BFF7E0A2E45009E5BFA2E4500375BFEFE0A2E55009E5BFA2E5500375BFDFE0A299
:201F6000E65009E5BFA2E6500375BFBFD083D0828088C0E0C0D0E8C0E0E9C0E0EAC0E0EB4D
:201F8000C0E0ECC0E0EDC0E0C0F0E5A7A2E6500FE5A1A2E6500953A7BF75A1BF121FD7E583
:201FA000A7A2E5500CE5A1A2E5500653A7DF75A1DFE5A7A2E15009E5A1A2E1500375A1FD8F
:201FC000E5A7A2E2500CE5A1A2E2500653A7FB75A1FBD0F0021EE874F81217837521019028
:201FE0000727E0640670151234E88A828B83A3A3A3A3A3A3E0FAA3E0FB123548A2AFE4337B
:20200000FED2AF90072DE0640170187A207B00900726E0F91228BE7A207B00900726E0F962
:2020200012283A906182E0D2E6F0900AF8E0602185C622801690072CE064017008E5C654BC
:20204000F84405F5C653BEFC121DAC7401652160E4EEA2E092AF7F0102182FFF8E238F2480
:20206000858228858327851882851983E0CEA3E0CF852882852783EBC9EAC8EDCBECCA751B
:20208000F010C3E833C8E933C9EA33CAEB33CBC3EA9EF526EB9FF525B35004AB25AA26EC48
:2020A00033CCED33CDD5F0DAAE23AF242274EB12178374FA1216C08A088B098C148D159076
:2020C0000727E024F7C39405500690862F02220F1234E88A0A8B0BAE0AAF0BEE4F70030231
:2020E000220CAC08AD09851882851983AA82AB831235788E828F83A3A3780812159090863A
:202100004F7808121557851882851983780C12159090864F780C1215577808790C120B9CD2
:20212000501F7808790C12151C9085DB7808120BBC4047850810850911850A12850B138018
:2021400041850C10850D11850E12850F137810790812151C9085DB7810120BBC501C751020
:20216000007511007512007513017810790C12151C781079081214E3800890862F78101200
:202180001590740978101214C49085D77808121590781079081214278E828F83A3A3A3A384
:2021A000A3A3E0F8A3E0F97AD07B0312163588088909E4F50AF50B781079081214E37404D1
:2021C00012170BE0F8A3E0F97AD07B03121635E8FA8A08E4F50978107908120B9C5007786B
:2021E00010790812151C900727E06408600AE064066005E06405701C9085D37810120BBCCA
:2022000050129085CF78101214F680089085FB7810121590851482851583781012159F7403
:20222000061216D67F0E02182F74F712178312358A900AF6E064017010906245E4F0A3F0E9
:2022400053F4F343FE0C5390F3123536E5C654804449F5C6E59E547F644970F89061857488
:202260000FF0900AF4E0F47002A3E0604E900AF5E0600814601B14602E8040750801750996
:2022800000900AF4E078081216ADE508F45280802A750801750900900AF4E078081216AD5F
:2022A000E508F452908014750801750900900AF4E078081216ADE508F452A079007F020239
:2022C000182F74F7121783E9FE9038C4E493F46008E493F91232CC800953C680E59E547F62
:2022E00070FA12353C900AF6E0640170031232F6900AF4E0F47002A3E0604B900AF5E0609E
:202300000814601A14602C803D750801750900900AF4E078081216ADE50842808028750837
:2023200001750900900AF4E078081216ADE50842908013750801750900900AF4E07808120D
:2023400016ADE50842A012358A1234E88A088B09A808A909E8496015E5E170FCE82414F577
:2023600082E93400F583E0F46003E0F5E174016E700A7A01900726E0F912288E0222BD74CE
:20238000F11217838A088B098C0A8D0B740F12170B780C12159090864F78081215579086E1
:2023A0004F780C1215577808790C120B9C50157808790C12151C9085DB7808120BBC4015C3
:2023C00079018013780C790812151C9085DB780C120BBC40EB79007F0802182F74ED12175D
:2023E000838A088B098C0A8D0B741312170B780C12159090864F780812155790864F780CC4
:20240000121557780C7908120B9C40117808790C12151CAA08AB09AC0AAD0B8022751000EC
:202420007511007512007513017810790C12151C781079081214E3AA10AB11AC12AD137F31
:202440000C02182F90864F78081215908A828B83780812156A7F0402182F74F51217838CF3
:20246000828D8378081215908A828B837808121530EA2404F8EB3400F98C828D83A3A3A379
:20248000A3E0FCA3E0FD88828983C3E09CF0A3E09DF088828983C3E09420A3E0944E4022B4
:2024A0009085AB78081215908A828B8378081215098A828B83A3A3A3A3E02420F0A3E034EA
:2024C0004EF0808074F5121783E9FE900A84E0FAA3E0FBEEC333F8E433F974DF28F58274FA
:2024E0008039F583E02AF508A3E03BF509780812192A90863F1215AE12205C74021216D6E7
:202500008A088B098C0A8D0B741078081214ABAA08AB097F0402182F74F11217838A0C8B2E
:202520000D8C0E8D0F740F12170BE0FAA3E0FB741112170BE0F508A3E0F509741312170B77
:20254000E0FEA3E0FF780812192AEA2401F508EB3400F509E4F50AF50B780C79081213A769
:2025600090859F7808121590780C79081213A7AA0CAB0DAC0EAD0F12205C74021216D68B2E
:2025800009EA450960047A0180027A00EC2AFCED3400FDECF8EDF97A717B021216358808D0
:2025A0008909E4F50AF50B8E828F83780812159FECF8EDF97A717B021216358A088B097415
:2025C0000578081216AD8E828F83A3A3A3A3E508F0A3E509F07F0802182FC082C083E990C7
:2025E0006000F0D083D08222120B4CC83800120B4CE03800120B4C673A00120B4C103B001C
:20260000120B4CB83C00120B4CFF3C00120B4CBA3D00120B4CD33E00120B4CE94200120B2E
:202620004C204300120B4C774300120B4CF24500120B4C034700120B4C904700120B4CD1FB
:202640004700120B4CD54800120B4C774900120B4C764A00120B4C0E4B00120B4C97600039
:20266000120B4CEF6000120B4CBD6300120B4CCBB402120B4C3FB502120B4C27B602120B6B
:202680004C63B602120B4C9CB602120B4CC1B702120B4C2BB802120B4C5AB802120B4CD728
:2026A000B802120B4C13BA02120B4C3ABA02120B4C59BB02120B4C10BD02120B4C90BD025A
:2026C000120B4CADBD02120B4CFEC002120B4C7AC102120B4CC0C102120B4CC3C202120B5D
:2026E0004CD9C202120B4CF9C202120B4C7CC402120B4C88FE03120B4C98FE03120B4CAA19
:20270000FE03120B4CE2FE03120B4CCFFF03120B4CB6E304120B4CABE404120B4C67E50477
:20272000120B4CF5E504120B4C2CE604120B4CABAC01120B4C90AD01120B4CE6AD01120B51
:202740004C27AE01120B4C7DAE01120B4CBDAE01120B4C8AAF01120B4C04B001120B4C299A
:20276000B101120B4CD1B101120B4C02B201120B4C0FB201120B4CE0B601120B4C05BA0149
:20278000120B4C6EBA01120B4C66BC01120B4C46C501120B4C96C501120B4C15C601120B7F
:2027A0004C86C601120B4C94C601120B4CBEC601120B4C63C801120B4CE0C801120B4C734B
:2027C000CD01120B4CA7CD01120B4CA5C804120B4C10CA04120B4CBCCA04120B4CC4AA045E
:2027E000120B4CCEAA04120B4C0FAB04120B4C58AB04120B4C92AB04120B4CE8AB04120B96
:202800004C09AC04120B4C31AC04120B4C85AC04120B4CAEAC04120B4CB8AC04120B4C26A4
:20282000AD04120B4CB6AD04120B4C11AE04120B4C3FAE04120B4CC7AE04120B4C06AF048D
:20284000120B4C3BAF04120B4C4DAF04120B4C6CAF04120B4C75AF04120B4C3CB004120B29
:202860004C1CF604120B4C7E7F00120B4CA0EB04120B4CD6EB04120B4C0AEC04120B4C5747
:20288000ED04120B4C00FA04120B4C16FA04120B4C20FA04120B4C6AFA04120B4CBCBF0423
:2028A000120B4CCFBF04120B4C90C004120B4CCFC004120B4CECC004120B4C25C104120BDB
:2028C0004C72C104120B4CA4C104120B4CDBC104120B4CE4C304120B4C1FFB04120B4C0294
:2028E000F804120B4C13F804120B4CB3F804120B4CDD7F00120B4C1AF504120B4C9FF5040A
:20290000120B4C03F604120B4CF87F00120B4C83E904120B4CF6EA04120B4C57EB04120B7F
:202920004C9DEB04120B4C7BFC04120B4C91FC04120B4CABFC04120B4CBEF804120B4CCA77
:20294000F804120B4CD8F804120B4CFDF804120B4CEDCC04120B4C60CD04120B4C52CE048F
:20296000120B4CBFCE04120B4C24D004120B4CA7D004120B4CB0D004120B4CC3D004120B0E
:202980004CDFD004120B4CE4D004120B4CE7D004120B4CFDF004120B4C4FF104120B4CC2C1
:2029A000F104120B4C2FF204120B4CA67C00120B4CD07C00120B4C9F7D00120B4C7B7E006D
:2029C000120B4C0C7F00120B4C8C8804120B4C588904120B4C998904120B4CD38904120BBF
:2029E0004C318A04120B4C858A04120B4CE38A04120B4C798B04120B4C818C04120B4C0B17
:202A00008E04120B4CA98E04120B4C108F04120B4C238F04120B4C179004120B4CA0F20442
:202A2000120B4CB6F204120B4CE3F204120B4C13F304120B4C34F304120B4C65F304120B56
:202A40004CB6F304120B4CCDF304120B4C4AEF04120B4C61EF04120B4C90EF04120B4CC9CF
:202A6000EF04120B4CF1EF04120B4C1FF004120B4C36F004120B4C4DF004120B4C63F0049D
:202A8000120B4C8AF004120B4C9DF004120B4CB3F004120B4CC6F004120B4CEBF004120BBD
:202AA0004CE4D303120B4CE3D403120B4C0DD503120B4C62D503120B4C83D503120B4C9C33
:202AC000D503120B4C9ED503120B4CBFD503120B4CC2D603120B4C7FD703120B4C4CD803E9
:202AE000120B4CBFD803120B4CC2D803120B4C48D903120B4C8BD903120B4CDDD903120B31
:202B00004C14DA03120B4C9ADA03120B4C23DB03120B4C6CDB03120B4C79DB03120B4C7CD6
:202B2000DB03120B4CDADB03120B4CF2DB03120B4C6CDC03120B4C6FDC03120B4C92DC0318
:202B4000120B4C95DC03120B4C3CDD03120B4C4FDD03120B4C67DD03120B4C97DD03120BCE
:202B60004CA4DD03120B4CA7DD03120B4C13DE03120B4C01DF03120B4CB7DF03120B4CDDA4
:202B8000F403120B4CBDF503120B4C3DF603120B4C5DF603120B4C9BF603120B4CEEF60375
:202BA000120B4C56F703120B4CE7F703120B4CB2F803120B4CC1FB03120B4C2DFD03120B21
:202BC0004C50FD03120B4CE5D404120B4C79D604120B4CD8D604120B4C37D704120B4C4533
:202BE000D704120B4C6ED704120B4CA7B504120B4CCFB504120B4CFDB504120B4C34B60418
:202C0000120B4C9CB604120B4CE5B604120B4C30B704120B4C6EB704120B4CABB704120B1B
:202C20004CD9B704120B4C80B804120B4C8AB804120B4C97B804120B4CCAB804120B4C8CC0
:202C4000B904120B4C98B904120B4CB0B904120B4CBAB904120B4C38BA04120B4C13F7046D
:202C6000120B4C21F704120B4C39F704120B4C51F704120B4C69F704120B4CE98E03120BB0
:202C80004C878F03120B4CFF8F03120B4C149103120B4C4E9103120B4CF79103120B4CCC50
:202CA0009203120B4C309403120B4C879403120B4C0E9503120B4CF59503120B4C4296037F
:202CC000120B4CD09603120B4CF49603120B4CC99803120B4C0A9903120B4C2C9903120B02
:202CE0004CAD9903120B4C979A03120B4C5D9B03120B4C929D03120B4C899704120B4C5B52
:202D00009804120B4C049904120B4C479904120B4CD49904120B4C609A04120B4C419B0436
:202D2000120B4C709B04120B4C6C9C04120B4CB49C04120B4CB69D04120B4CFA9D04120B08
:202D40004C209E04120B4C96FA04120B4CC2D804120B4CD8D804120B4CFED804120B4C2672
:202D6000DA04120B4C30DA04120B4C89DB04120B4C89DC04120B4C93DC04120B4CC9BA048F
:202D8000120B4CD6BB04120B4C0ABC04120B4C4CBC04120B4C06BE04120B4CE0EC01120B09
:202DA0004C5EED01120B4C76ED01120B4CA9ED01120B4CB4ED01120B4C9EEE01120B4C3A0A
:202DC000EF01120B4C3EF101120B4CF5F201120B4C71F301120B4C4EF401120B4C7CF701C2
:202DE000120B4C1AF801120B4C77F901120B4CEAFA01120B4C93FB01120B4CDCFB01120BD9
:202E00004C13FC01120B4CB8FC01120B4C36FD01120B4C63E502120B4CB8E502120B4CFD7A
:202E2000E602120B4C0DE702120B4C30E702120B4C7BE702120B4C20E802120B4C16E9021F
:202E4000120B4CE0E902120B4C58EB02120B4C9AEB02120B4C38EC02120B4C85EC02120B18
:202E60004CABEC02120B4C99EE02120B4C9EEE02120B4C7FF002120B4CD3F002120B4C35DE
:202E8000F102120B4C5DF102120B4C01F202120B4CC3F202120B4CF4F202120B4CF7F20263
:202EA000120B4C3FF302120B4C81F302120B4CE8F302120B4C24E704120B4C37E704120B30
:202EC0004C40E704120B4C59E704120B4CA4E704120B4C7FE804120B4C0EE904120B4C59DC
:202EE000E904120B4CF16300120B4C016400120B4C646400120B4CA96400120B4C5965008C
:202F0000120B4C326600120B4C5B6600120B4C8B6600120B4C9F6800120B4C7B6A00120B51
:202F20004C5B6C00120B4C936D00120B4C0C7000120B4CF87000120B4C3E7200120B4C4B92
:202F40007300120B4C8D7300120B4CC57300120B4CDF7300120B4C477400120B4CE1780053
:202F6000120B4C827900120B4CD67900120B4CFD7900120B4C3B7A00120B4C5A7A00120BDE
:202F80004CAE7A00120B4CB67B00120B4C3F7C00120B4C22E003120B4C2CE003120B4CEFC1
:202FA000E003120B4C3EE103120B4C62E103120B4CACE103120B4CE4E103120B4C0CE20370
:202FC000120B4C36E303120B4C62E303120B4C9FE303120B4CDBE303120B4C62E403120BD4
:202FE0004CA9E403120B4CF6E503120B4C0AE603120B4CD5E603120B4C0FE703120B4C4E12
:20300000E703120B4C90E703120B4CD1E703120B4C35E803120B4CA6E803120B4CE2E80306
:20302000120B4C25E903120B4C6CE903120B4CA9E903120B4CE6E903120B4C2FEA03120B7A
:203040004C59EA03120B4C7EEA03120B4CF0D004120B4CBAD104120B4CA6D204120B4C1C7B
:20306000D304120B4C5ED304120B4C8BD404120B4C008003120B4C298003120B4C428003E0
:20308000120B4C878103120B4C658203120B4C848203120B4C118303120B4C548303120B97
:2030A0004C8C8403120B4CF88403120B4CEE8603120B4C7C8903120B4C0F8A03120B4CE327
:2030C0008A03120B4C868B03120B4C708C03120B4CDC8D03120B4C728E03120B4CE4F304F9
:2030E000120B4C4DF404120B4CA1F404120B4CC8F404120B4CF9F404120B4C50C404120BFF
:203100004CBDC404120B4C08C504120B4CFDC504120B4CF9C604120B4CE3C704120B4C00C9
:203120008004120B4C428004120B4C1C8104120B4CF58104120B4CF08204120B4CCF830451
:20314000120B4C3B8404120B4C1D8504120B4C888504120B4CEF8504120B4CF28504120BD8
:203160004C1D8604120B4C8E8604120B4C218704120B4C8A8704120B4C9F8704120B4CE765
:203180008704120B4C008804120B4C658804120B4C688804120B4C3AE004120B4C76E004AE
:2031A000120B4CB4E004120B4C7EE104120B4CF1E104120B4C2CE204120B4C6AE204120BB2
:2031C0004C9AE204120B4CC1E204120B4C2CE304120B4C6EE304120B4CB7CD01120B4CFF83
:2031E000CF01120B4CA3D201120B4C7AD301120B4CC5D301120B4C10D401120B4C2BD401B0
:20320000120B4C77D401120B4CB1D401120B4CD4D401120B4C5BD501120B4C2FD601120BD2
:203220004CDDD801120B4C87DA01120B4CD7DA01120B4C1CDC01120B4C72DC01120B4C6AB9
:20324000DD01120B4C22DF01120B4CD8DF01120B4C72E001120B4CB8E501120B4CD6E5011C
:20326000120B4C1DE601120B4C47E801120B4C45EA01120B4CE4EA01120B4CAAEB01120B5B
:203280004CD5EB01120B4C00EC01120B4C76EC01120B4CBEEC01120B4CEAFD01120B4C8AA7
:2032A000FF01120B4C87C703120B4CB2C703120B4C85CE03120B4CA9D003120B4C64D20329
:2032C000120B4CC1D303120B4CA18601120B4C328701120B4C5F8701120B4CA58701120B37
:2032E0004CB28701120B4CE88801120B4C468901120B4C6B8901120B4C028B01120B4C5720
:203300008B01120B4CCC8B01120B4CFB8C01120B4C5B8E01120B4C5D8F01120B4CC6900106
:20332000120B4C169101120B4C819201120B4CEB9401120B4CC79501120B4CE09501120B54
:203340004C3D9601120B4C5C9601120B4C7B9601120B4C7E9601120B4C049801120B4CF990
:203360009801120B4CF59901120B4CDC9A01120B4C0F9B01120B4C7F9B01120B4CF19B014E
:20338000120B4C6B9C01120B4CB59C01120B4C909D01120B4C5A9E01120B4C619F01120B81
:2033A0004C40A001120B4CCBA001120B4C39A101120B4CADA101120B4CD6A101120B4C9530
:2033C000A201120B4CA4A501120B4CEDA501120B4C30A601120B4CB3A601120B4C57A70130
:2033E000120B4CE8A701120B4C0DA801120B4C57A801120B4C7FA801120B4CC4A801120BC8
:203400004C3FA901120B4C99A901120B4CEDAA01120B4CAAAB01120B4C7DAC01120B4C29E6
:20342000AC03120B4C79AC03120B4C85AC03120B4C62AD03120B4C92AD03120B4CCAAD03A6
:20344000120B4C49AE03120B4C81AE03120B4CD3AE03120B4C10AF03120B4C35B103120BE7
:203460004C61B303120B4C5CB503120B4C37B703120B4CF07F00120B4C13A504120B4C317B
:20348000A904120B4C81AA04120B4CD1D502120B4CA3DC02120B4CA9DC02120B4C59DF0259
:2034A000120B4C6AB004120B4C16B104120B4CE4B104120B4C0EB204120B4C5CB404120B88
:2034C0004C008002120B4C4A8002120B4C3E8F02120B4CBF9002120B4CB79102120B4C16C5
:2034E0009802120B4C119902120B4C4E9902120B4C719902120B4CB39902120B4CBC9902DF
:20350000120B4CC69902120B4CB29A02120B4CA69B02120B4C3F9C02120B4C8E9E02120B84
:203520004C06A902120B4C0CA902120B4C10B002120B4C9DDC04120B4C33DD04120B4C492E
:20354000DD04120B4CC3DD04120B4C19DE04120B4C57DE04120B4CB4DE04120B4C31DF04FB
:20356000120B4C3ADF04120B4C46DF04120B4C59DF04120B4C95DF04120B4CABDF04120B99
:203580004C0AE004120B4C959E04120B4CA29E04120B4CBC9E04120B4CFB9E04120B4C3935
:2035A0009F04120B4C9E9F04120B4CB39F04120B4CBE9F04120B4CCB9F04120B4CE29F0470
:2035C000120B4CF09F04120B4CFF9F04120B4C14A004120B4C29A004120B4C34A004120B2F
:2035E0004C40A004120B4C4DA004120B4C5CA004120B4C67A004120B4C8CA004120B4C352D
:20360000A104120B4C45A104120B4C5AA104120B4C6FA104120B4C89A104120B4CA4A10484
:20362000120B4CC1A104120B4CCCA104120B4C88A204120B4C74A304120B4C90A304120B09
:203640004CA7A304120B4CB1A304120B4CC5A304120B4CE4A304120B4C45A404120B4C4B3C
:20366000A404120B4C51A404120B4C57A404120B4C63A404120B4C96A404120B4CA6EA03C1
:20368000120B4CD2EA03120B4CB6EB03120B4C50EE03120B4C66EF03120B4C83F003120B8E
:2036A0004C26F103120B4CCCF103120B4CFDB903120B4C7FBA03120B4C28BB03120B4C708C
:2036C000BC03120B4C7EBE03120B4C64BF03120B4C99BF03120B4CBBBF03120B4C64C003BA
:2036E000120B4C34C203120B4C5DC203120B4CD5C203120B4C07C303120B4C14C303120B44
:203700004C5FC303120B4C83C303120B4CD4C503120B4CDEC603120B4C3AC703120B4CA1FA
:203720009D03120B4CB29E03120B4C969F03120B4CA09F03120B4CAA9F03120B4CCC9F0355
:20374000120B4CD89F03120B4C7CA103120B4CA9A103120B4CBFA203120B4C14A303120B3A
:203760004C63A403120B4C38A503120B4C94A503120B4CFFA503120B4C34A603120B4C77CF
:20378000A603120B4C41A903120B4C59A903120B4CEAA903120B4CF8A903120B4C45AA0355
:2037A000120B4C53AA03120B4CBFAA03120B4C3AAB03120B4C91AB03120B4CB2F402120BA4
:2037C0004CD4F402120B4CE5F602120B4CA4F902120B4CCEFA02120B4C8CFB02120B4C787F
:2037E000FC02120B4C91ED04120B4CB6ED04120B4C2CEE04120B4C6C9004120B4C7590046E
:20380000120B4C7E9004120B4C569104120B4C079304120B4C379304120B4C629304120B1C
:203820004C929304120B4CBD9304120B4CF19304120B4C1D9404120B4C609404120B4C8BF2
:203840009404120B4CD29404120B4C279504120B4C699504120B4CC39504120B4CEE9504B4
:20386000120B4C3D9604120B4C6D9604120B4C989604120B4CC69604120B4CE99604120B2B
:203880004CA5FB04120B4CD1FB04120B4CFEFB04120B4C08FC04120B4C18FC04120B4CD06E
:2038A000FF02120B4C60F904120B4C8AF904120B4CE0FF01120B4C82C502120B4CA0CA0281
:2038C00031B1E1FFFFFFFFFF8003000000EAF8EBF9E824FF1AE934FFFBE84970ED020B49C1
:2038E00074F712171774E21216C0E9FE9002697412F0A3E4F0EE900240F075FB02123A4C56
:2039000012192E750831780812192E7B30740212170BAC82AD837A017982123B0A1216D649
:20392000851882851983E06431700343FB04123A5212192E750832780812192E7B3074027D
:2039400012170BAC82AD837A017984123B0A1216D6851882851983E06431700543FB188008
:2039600008E06432700343FB38740112170B7401123A4B12192E750838780812192E7B3099
:20398000740212170BAC82AD837A017981123B0A1216D6851882851983E024D0C0E074022B
:2039A00012170BD0E0123A4B12192E750831780812192E7B30740212170BAC82AD837A017E
:2039C000798B123B0A1216D6851882851983E024D0C0E0740312170BD0E0F0740412170BE3
:2039E0007430F0A3E4F0740B12170B7480F0A3E4F0741312170B7480F0A3E4F074061217F5
:203A00000B7406F0741712170B7401F0741C12170B7412F0A37426F0740112170BAA82AB26
:203A2000837901122972901076123A5212192E750831780812192E7B307C767D107A01792A
:203A400080123B0A1216D6741E8014F08518828519837430F0F50878082212265A740212EE
:203A600016D67F010217E974F212171774FF1216C0890AEAFF8B09EDFE851882851983ECB0
:203A8000F0F50B780B12192EEFF50B780B12192EAB0A740212170BAC82AD837A01A9091293
:203AA0003B0A1216D6123B01700C123AF212192A7CCE7D81802AE8C3950A4031EFC398402F
:203AC0002C851882851983E068600BE8126383A9091260247017123AF212192A7CE27D8129
:203AE0001248AA1216D6EEFA790812265A7401024788851882851983E0F50C750D00780C5C
:203B00002290025CE0F8743F682212261874022274F4121717890890025CE0F874D028C36A
:203B200094155065888285820A750B00E824D0603614605A14605C14605E146064146066F8
:203B400014606814606F146073147003023C2124F86070147003023BFB147003023C27142E
:203B60007003023C57802212302C7A00790112302090025CE0F50A780A12192A1248A61221
:203B800016D6AA08790812265A7F040217E9123C8D80D9123C8780D412302C7A00790080B1
:203BA000CD123C8D80F7123C8780F212302C790012302680BC12302C791380F412302C79BF
:203BC0002780ED780A12192A1248A61216D6AA08790812265A7A107B271225E87E001230AC
:203BE0002CEEFA79011230207A207B4E1225E80EEEC3942840E812302C808E780A12192A5D
:203C00001248A61216D6123CAD123C96123CA170FB123C93123CA170FB123C93123CA170F2
:203C2000FB12302C023B71780A12192A1248A61216D6123CAD7A13123C98123CA170FB12BE
:203C40003C8D123C98123CA170FB123C8D123C98123CA160CC80F9780A12192A1248A6121D
:203C600016D6123CAD7A27123C98123CA170FB123C87123C98123CA170FB123C87123C98AC
:203C8000123CA1609C80F912302C7A272212302C7A132212302C7A00790112302075090A26
:203CA000227A107B271225E81509E50922AA08790812265A12302C2274F712171774FC12E7
:203CC00016C0EAFE9085FB1215AE8518828519831215BA851882851983AA82AB8312261E30
:203CE00085188285198312193D7C477D811242BC1216D6EEFA790D12265A7404023A5F74C6
:203D0000F012171774FC1216C0E9FFEAFE9085FB1215AE8518828519831215BA7A00123D7C
:203D2000AF3400F583E0FB74D02BC3940A507D8518828519837808121590908633780C125A
:203D400015907808790C1213A7EB24D0F50CE434FFF50D3395E0F50EF50F7808790C12141A
:203D6000E3851882851983780812159F0AEAC3940640ABEF851882851983AC82AD837A0493
:203D8000600979A81260247023800779A1126024701A85188285198312193D7C617D81121A
:203DA00042BC1216D6EEFA790D12265A02436D8A08745C2508F58274022274F61217177499
:203DC000FA1216C0E9FFEAFE7C147D0079007A557B021227F8EF24D0600E14604D14605B4D
:203DE0001460621460698072851882851983AC82AD8375838575822674061215D385188253
:203E0000851983AA82AB831227BC750806750900780812192A740212170BAC82AD837A5585
:203E20007B021245EC1216D68030750806750900780812192A7C067D0380E37C557D027A0F
:203E40000679BD80127C557D027A0679BE80087C557D027A0679BF122A147C008C82A882F9
:203E6000C3E498FA95E0FB745A2AF58274023BF583E0FDC4540FF508C3940A50047A308021
:203E8000027A37E8C333F8E433F9744128F8740239F9123EC3F0740F5DF508C3940A500477
:203EA0007A3080027A37123EC3A3F00CECC3940640AAEEFA791412265A74061216D67F0240
:203EC0000217E9EA250888828983A3A3A3A3A3A3A3A32274EC12171774E11216C0EAFEEBC9
:203EE000FFEE4F70030242797C147D0079007A417B021227F87C147D0079007A557B021283
:203F000027F88E088F099002AAE0640360030241CB740265087001EF70527C027D007A41A5
:203F20007B027901122978E50824FEF508E50934FFF509E508450970E1900241E064417058
:203F400021A3E06454701B9002ADE06431700D9002ABE0640870059002AAE4F01227680298
:203F600042797A01790212265A0242799010E5E06431600302417D740E65087001EF600372
:203F800002417D7E007F00740EC39EFCE49FFD74412EFA7402124290C3EE940EEF940040B8
:203FA000E6750A07750B00780A12192A7C5E7D847A417B02125FF41216D6E97003024176B3
:203FC00075080775090080097830E0C398F0124283C3E5089EE5099F50241242A4F874D029
:203FE00028C39417400302427974C628C394075003024279E8C3944140CE783780CC900240
:204000004CE0F8600A740468600574056870127E00A3E06003024279A3E060030242798026
:20402000027E029002A7E070030242799085FB1215AE8518828519831215BA7508077509AD
:20404000008518828519837810121590740478101214C41242A4F50CE4F50DF50EF50F7899
:2040600010790C1214E3851882851983781012159F124283C3E508940BE509940040C285E5
:20408000188285198312193D7CB67D841242BC1216D67A00790712265A9002A7E0F87406A5
:2040A00012170BE8F0A3E4F0EE2406C0E0740812170BD0E0F0740912170BE4126071C0E05D
:2040C000740A12170BD0E0F0740112170BE0C0E0740B12170BD0E0F0740212170BE0C0E0E8
:2040E000740C12170BD0E0F0740312170BE0C0E0740D12170BD0E0F090024CE0C0E0740E0C
:2041000012170BD0E0F090024DE0F508750900740478081216ADA3E0F8E50828F8E509341A
:2041200000F9740412170BE8F0A3E9F0740412170BE0C0E0740F12170BD0E0F07405121761
:204140000BE0C0E0741012170BD0E0F0741D12170BE4F0741E12170BE4F0900240E0F9742A
:204160000612170BAC82AD83901122E0FAA3E0FB122DAA0242797A01EEF912265A12297E39
:204180001242B25006AE08AF0980047E147F00EEFCEFFD7A6C7B027901122978EA90026B73
:2041A000F079007C697D027A007B00122E5290026BE0F8C3E50898F508E5099400F509E52C
:2041C00008450970BB122984024279900377E06401702979001228881229481242B25006E0
:2041E000AE08AF0980047E147F001242C670EC7C077D007ACE7B84122666807DC3EE94021D
:20420000EF94004074C3EE9413EF940040161242B25006AE08AF0980047E147F001242C6BD
:2042200070EC80557E007F008012E508C39EFCE5099FFD74552EFA7402124290C3EE950851
:20424000EF950940E5901076E0643170257E007F00801674552EF58274023FF583E0C2E7D5
:20426000F0EE24010EEF3400FFC3EE9508EF950940E17A00EEF9122654741F1216D67F0C06
:204280000217E9E5082401F508E5093400F509223FFB79011229788A0A8B0BEE250AFEEF30
:2042A000350BFF2274412508F58274023509F583E022C3E5089415E5099400227A417B02E1
:2042C0001238A8740422EEFCEFFD7A557B0279011229788A0A8B0BC3E508950AF508E5099F
:2042E000950BF509E50845092274F3121717ECFEEDFF8B0A740D12170BE0F50B740E121771
:204300000BE0F50C122A148E828F83E0F8C3950A4006E50BC3985003E50CF07F050217E9BA
:2043200074F0121717EAFEEBFFE9600AEEFCEFFD7A0479A88008EEFCEFFD7A0479A1122A0D
:20434000148E828F83780C121590E50C450D450E450F600A90863F780C120BBC500D908574
:20436000FB1215AE8E828F831215BA800574041216D67F080217E974F0121717E9FE9002C9
:204380005CE0F890025BE064327013A3E024D0C3940A4014743F6860030245E1800A743003
:2043A00068600574316870EC750807750900780812192A1245E41216D6750802780812198D
:2043C0002A7C757D861245E81216D6900248743AF090025CE0F890025BE024CF604414606C
:2043E000511470030244DD1470030244F814700302450E14700302452414700302453A1413
:20440000700302455014700302456624FA70030245AB24FE700302457D147003024594021E
:2044200045E1EEFD7C307B867A3179301225F40245E1743F68700CA291504C900249743131
:204440000244D5E8C3943250457A407B00900240E0F91228C4EAF8EBF9ECFAEDFBE8494A4E
:204460004B600C7A407B00900240E0F91228BE900360E4F090025CE0A2E092917A647B001A
:204480001225E8A29140B49002497430804774CF28900360F07A407B00900240E0F9122828
:2044A000C4EA4B4C4D7027900360E0F508E4F50AF50B908643780C1215907808790C121362
:2044C000A778081219267A401260581216D690025CE0900249F0EEFA79090245DE743F689F
:2044E000600DA3E0A2E092907A647B001225E8A290500302443B808F743F68600DA3E0A2EE
:20450000E092877A647B001225E8A28780E3743F68600DA3E0A2E092867A647B001225E881
:20452000A28680CD743F68600DA3E0A2E092857A647B001225E8A28580B7743F68600DA361
:20454000E0A2E092847A647B001225E8A28480A1743F68600DA3E0A2E092837A647B001217
:2045600025E8A283808B743F68600DA3E0A2E092827A647B001225E8A2820244F1743F686F
:20458000600DA3E0A2E092817A647B001225E8A2810244F1743F68600DA3E0A2E092807AAB
:2045A000647B001225E8A2800244F1743F6870317900A29150020909A2905004E40449F928
:2045C000E580F508E9F509780812192A7C7A7D857A497B021248AE1216D6EEFA790C1226DA
:2045E0005A0243727C557D027A417B021227E074022274F0121717E9FE90025CE0643F6015
:204600000302470090025BE024CC601914601D14602114602514602914602D24F86030145B
:204620006034024700750A807F07802F750A407F068028750A207F058021750A107F048027
:204640001A750A087F038013750A047F02800C750A027F018005750A017F00850AF2850A7F
:20466000F3E50AF4F50B52FD79801228E87A03EFF91228E28A088B09E50B52F390107EE020
:2046800064316004E50A42FDC3EA9460EB94015006750800750900750A07750B00780A12E7
:2046A000192A1245E41216D6750A02780A12192A7C757D861245E81216D6E4F50A78081280
:2046C0000BF690863B780C1215907808790C120E05908637780C1215907808790C120E0571
:2046E00078081219267C627D857A497B021242C01216D6900248743AF0EEFA790C12265A40
:2047000002437274F212171774FE1216C0EAFE7F9EE960011F851882851983E4F0A3F0FCD1
:204720008C08123DB11248B4505C74C62508C394074053E508C3944140047A3780027A302D
:204740001248C31216AD124885940340D3851882851983C3A3E09404502C85188285198304
:20476000AC82AD837A02EF126023701A8518828519831219417C867D811248AA1216D6EEB5
:20478000FA790A12265A74021216D67F060217E974F712171774FE1216C0E9FFEAFE799E23
:2047A000EF600119851882851983E4F0A3F0851882851983AC82AD837A02124B0012194106
:2047C0007C9E7D811248AA1216D6EEFA790A023A5A74F212171774FE1216C0E9FFEAFE8B63
:2047E0000AEB600DEF6005750B988010750B99800BEF6005750B9A8003750B9C8518828506
:204800001983E4F0A3F0FC8C08745E2508F58274021248B4506C74C62508C394074063E502
:2048200008C3944140047A3780027A301248C31216AD124885940440CE851882851983E020
:2048400049603FE0F47003A3E0F46036851882851983AC82AD837A02A90B1260247023E540
:204860000A600579001227B68518828519831219417C397D811248AA1216D6EEFA790D1280
:20488000265A024786E50C2508F8E50D3400F9E8C39AF8E99400F9851882851983E8F0A326
:2048A000E9F00CECC3227CE27D817A417B021238A87402223400F583E0F50874D02508C367
:2048C000941722851882851983E0F50CA3E0F50D7404780C2274F712171774FE1216C0E959
:2048E000FFEAFEEB600BEF60047998800D79998009EF6004799A8002799C851882851983B2
:20490000E4F0A3F0EF851882851983AC82AD837A02601E12496C600F851882851983E0F45F
:204920007003A3E0F4702B85188285198374E0801C12496C600F851882851983E0F4700305
:20494000A3E0F4700D85188285198374E1F0A374FFF08518828519831219417C1D7D811283
:2049600048AA1216D6EEFA790D023A5A124B04E0F8A3E0F9E8492274EB12171774FC121604
:20498000C08914EAFF74A22FFE9085FB1215AE8518828519831215BA7A00123DAF12602975
:2049A0004003024A6C74C629C394075003024A6CE9C3944140059085BF80039085B77808C7
:2049C000121590851882851983780C1215907404780C1214C48910F511F512F513780C7914
:2049E000101214E3780C790812151C850C08850D09850E0A850F0B85188285198378081214
:204A0000159F0AEAC3940840918518828519837808121590E5084509450A450B604E851822
:204A200082851983C082C0839085AB7808121590D083D0827808120B616031851882851966
:204A400083AC82AD837A04EE126023701F79001227B685188285198312193D7C0E7D81123B
:204A600042BC1216D6AA14791112265A74041216D67F0D0217E974F012171774FC1216C060
:204A8000E9FEEAFF741412170B7808121590851882851983780812159F851882851983ACE1
:204AA00082AD837A0474A22FF9124B00780C121590E50C450D450E450F601D8518828519CC
:204AC00083C082C0839085AB780C121590D083D082780C120B61700B8518828519837808F1
:204AE00012159F85188285198312193D7CFF7D801242BC1216D6EEFA791112265A02436D0C
:204B0000124B0422122A148518828519832274F012171774F41216C0E9FFEAFE900255E0D5
:204B20006441704CA3E0645470467C147D0079007A417B021227F8750A75750B8674026F55
:204B40007033750802750900780812192A7C7E7D86125FF01216D6E96016780812192AACA4
:204B60000AAD0B1245E81216D6EEFA790212265A740C02436FEFC3940840F575086575092A
:204B800083750E16750F8474086F6003025B61750CDD750D84900258E024BF606614700387
:204BA000024DF6147003024EA214700302510E1470030252CA1470030253101470030253E2
:204BC000531470030253771470030253AB24FC70030254631470030255C224FE70030256CF
:204BE0008424FE70030257C31470030258D9147003025A2A147003025B0F147003025B2FB3
:204C0000024B70750807750900780812192A7CBD7D83125FF01216D6E9602B123B01601630
:204C200074D028C394174003024B7074C628C394075003024B70EEFD7C307B927A467930BD
:204C40001225F4024B70750808780812192A7C107D82125FF01216D6E97508077808602BB0
:204C600012192A1245E41216D6750802780812192AAC0AAD0B1245E81216D6900248743A1F
:204C8000F0EEFA793012260C024B7012192A7CDE7D83125FF01216D6E9600AEEFD7C307B1F
:204CA000957A338099780812192A7C367D84125FF01216D6E9600BEEFD7C307BBC7A3102E3
:204CC0004C3E750808780812192A7C467D82125FF01216D6E9602C750807780812192A12F0
:204CE00045E41216D6750802780812192AAC0AAD0B1245E81216D6900248743AF0EEFA79B5
:204D0000328082780812192A7C587D82125FF01216D6E9602D750807780812192A1245E44E
:204D20001216D6750802780812192AAC0AAD0B1245E81216D6900248743AF0EEFA79330268
:204D40004C85780812192A7C0C7D83125FF01216D6E97508077808602812192A1245E412AF
:204D600016D6750802780812192AAC0AAD0B1245E81216D6900248743AF0EEFA7934024CED
:204D80008512192A7C5E7D84125FF01216D6E96009EEFD7C307BA9024CBD750806780812D2
:204DA000192A7CD67D84125FF01216D6E96008EEF912262A024B70750808780812192A7CD1
:204DC000CD7D82125FF01216D6E9600AEEFA7900122636024B70750807780812192A7CBE36
:204DE0007D84125FF01216D6E97003024B70EEFD7C307B9B80A175080775090078081219BF
:204E00002A7C5D7D83125FF01216D6E9600BEEFD7C307B817A38024C3E780812192A7C1D9D
:204E20007D83125FF01216D6E96009EEFD7C307B80024CBD750808780812192A7CEC7D8164
:204E4000125FF01216D6E9601C122732E9F508780812192A7CAA7D811248AA1216D6EEFA5A
:204E6000790A024B6D750807780812192A7C457D83125FF01216D6E96009EEFD7C307BA078
:204E8000024CBD750808780812192A7C077D82125FF01216D6E97003024B70EEFA7901024F
:204EA0004DD0750806750900780812192A7CE47D84125FF01216D6E9607D85188285198339
:204EC000740AF090025B123B047020A3E0643F701A90035E12606B12192A7C927D8112485D
:204EE000AA1216D6EEFA790902507674D028C3940A4003024B7090025CE0F974D029C39480
:204F00000A4003024B7075F00AE8A42924F08518828519831263AAE96003024B70851882C8
:204F2000851983E090035E126071F508780812192A7CC27D8180A7750808780812192A7C91
:204F40002B7D82125FF01216D6E97808604312192A1245E41216D6750802780812192AAC2E
:204F60000AAD0B1245E81216D6EEFA790812265A7A0179011227389002ADE06430600302B9
:204F800050799085A712193D1260561216D602507912192A7C347D82125FF01216D6E960E7
:204FA000061226FC025079780812192A7C3D7D82125FF01216D6E9600C7B00EEFA790012BD
:204FC0002642025079750804780812192A7C847D857A587B02125FF41216D6E970030250E6
:204FE000799002AAE064037003024B70750808780812192A1245E41216D6750802780812E1
:20500000192AAC0AAD0B1245E81216D690025CE0FC744C6C70289002AEE060157C007A0683
:205020007B0390030C12604F700D90024874458005900248744EF0EEFA7908024B6DEC243E
:20504000D0F8E434FFF9C3125FFE40E59002D4E0FA125FFA50DB74D02C900305F09002AE13
:20506000E412607A1216AD12603670069002487445F0EEFA790812265A7508077509007875
:205080000812192A7C2E7D84125FF01216D6E9600BEEFD7C337BB27A39024C3E78081219A4
:2050A0002A7C267D84125FF01216D6E96008EEFD7C377BB380E1780812192A7C1E7D8412C4
:2050C0005FF01216D6E9600BEEFD7C307BB47A34024C3E780812192A7CF67D83125FF01275
:2050E00016D6E9600BEEFD7C367BB57A36024C3E780812192A7CE67D83125FF01216D6E9E8
:205100007003024B70EEFD7C317BAD024CBD750805750900780812192A7C327D857A587BC2
:2051200002125FF41216D6E9606B9002ADE064307003024B709002AAE064037003024B70C0
:205140009002ABE064047003024B709002AAE064017003024B70750808780812192A124538
:20516000E41216D6750802780812192AAC0AAD0B1245E81216D6126086E4F09085A712199B
:205180003D7A207B00900240E0F91228B274041216D6024B70750807780812192A7CD67DCB
:2051A00083125FF01216D6E9700302523890025CE024D0C394034003024B70740112170B60
:2051C000123A5212192E750831780812192E7B30740312170BAC82AD837A017993123B0ABF
:2051E0001216D6740112170BE064316003024B7090025CE0C0E0740112170BD0E01263A196
:20520000E96003024B70750808780812192A1245E41216D6750802780812192AAC0AAD0B30
:205220001245E81216D6EEFA790812265A9085A712193D7A02025183750804780812192A6A
:205240007C897D857A587B02125FF41216D6E96009EEFD7C307BAC02509775080578081288
:20526000192A7C387D857A587B02125FF41216D6E97003024B709002ADE064307003024BF7
:20528000709002AAE064037003024B709002ABE064047003024B709002AAE0640170030240
:2052A0004B70750808780812192A1245E41216D6750802780812192AAC0AAD0B1245E8128D
:2052C00016D6126086740102517A750808750900780812192A7CA07D82125FF01216D6E96D
:2052E0007003024B7079001226EA780812192A1245E41216D6750802780812192AAC0AAD1E
:205300000B7A417B021227E074021216D6025037750807750900780812192A7CB57D83121A
:205320005FF01216D6E96009EEFD7C307B8B024CBD780812192A7CAD7D83125FF01216D6C9
:20534000E97003024B7090025CE0F91227C27508088097750807750900780812192A7C9DE6
:205360007D83125FF01216D6E97003024B70EEFD7C307BB1024CBD75080775090078081253
:20538000192A7C3D7D83125FF01216D6E97003024B7075080F780812192A7CCF7D80124599
:2053A000E81216D6EEFA790F024B6D750807750900780812192A7C357D83125FF01216D6F6
:2053C000E96009EEFD7C307B89024CBD780812192A7C2D7D83125FF01216D6E96009EEFDBB
:2053E0007C307B93024CBD750808780812192A7CE87D82125FF01216D6E960109085A312A9
:20540000193D7A00EEF912264E02518D780812192A7CF17D82125FF01216D6E9600A908567
:20542000BB12193D7A0180DC780812192A7CFA7D82125FF01216D6E9600A90859B12193D5E
:205440007A0280C0780812192A7C037D83125FF01216D6E97003024B7090862312193D7AA9
:205460000380A1750806750900780812192A7C007D85125FF01216D6E970030255408518C5
:205480008285198374C5F090025BE0FC743F6C7042A3E0643F703C7508C5780812192E7544
:2054A00008FF780812192E7B00740212170BAC82AD837A017994123B0A1216D612606512C3
:2054C000192A7CB67D811248AA1216D6EEFA7909024B6D74D02CC394174003024B7074C61B
:2054E0002CC394075003024B7090025CE0FD74D02DC394174003024B7074C62DC394075053
:2055000003024B70ECC3944140047A3780027A30EDC394414004783780027830ECC39AC477
:2055200054F02DC398851882851983126398E96003024B7012606512192A7C6E7D8180862F
:20554000750807780812192A7C257D83125FF01216D6E9602FEEFD7C307B887A3279301279
:2055600025F4123B017003024B7074D028C394034003024B7090107EE0687003024B70E850
:20558000F0024B70750808780812192A7CDF7D82125FF01216D6E9600C7B01EEFA79011206
:2055A0002642024B70780812192A7CD67D82125FF01216D6E97003024B707B01EEFA79004B
:2055C00080DD750808750900780812192A7CC47D82125FF01216D6E97508077808606E122B
:2055E000192A1245E41216D6750802780812192AAC0AAD0B1245E81216D6900248743AF0B8
:205600007C497D027A0C79BA122A14900249E024E0C3945F4021750806780812192AAC0C57
:20562000AD0D7A497B021245EC1216D67C497D027A0C79BA122A0E7A417B021227DAEA04AF
:20564000F9C3941540027914EEFA024B6D12192A7C4D7D83125FF01216D6E96009EEFD7C3E
:20566000307B87024CBD780812192A7C557D83125FF01216D6E97003024B70EEFD7C307BBD
:20568000B0024CBD750A06750B00780A12192A7CF97D84125FF01216D6E9601C90107EE03B
:2056A0006431700C90025BE0C394344003024B70EEF9122624024B70750A07780A12192A24
:2056C000125FEC1216D6E9600AEEFA7901122600024B70750807750900780812192A7C6D05
:2056E0007D83125FF01216D6E96009EEFD7C317B97024CBD780812192A7C757D83125FF01D
:205700001216D6E9600BEEFD7C307B847A32024C3E780812192A7C7D7D83125FF01216D63C
:20572000E96009EEFD7C317B8E024CBD780812192A7C857D83125FF01216D6E97003024B8D
:20574000708518828519837432123A5412192E750833780812192E7B30740212170BAC82EE
:20576000AD837A01798A123B0A1216D6123B01701412606512192A7CCE7D817A417B021296
:2057800038A802530874D028C394044003024B70851882851983E068601DE812638FE960CB
:2057A00003024B70851882851983E024D0F912300EE96003024B7012606512192A7CE27DBC
:2057C0008180B8750807750900780812192A7C8D7D83125FF01216D6E96009EEFD7C307B6D
:2057E000AB024CBD780812192A7C957D83125FF01216D6E96009EEFD7C307B90024CBD753A
:205800000808780812192A7CBB7D82125FF01216D6E97508077808602812192A1245E412F7
:2058200016D6750802780812192AAC0AAD0B1245E81216D6900248743AF0EEFA7931024C25
:205840008512192A7CA57D83125FF01216D6E96010EEFD7C307B837A3179301225F402522D
:205860002D750808780812192A7CB27D82125FF01216D6E96003025206780812192A7CA975
:205880007D82125FF01216D6E97808602812192A1245E41216D6750802780812192AAC0A21
:2058A000AD0B1245E81216D6EEFA790812265A122660024B7012192A7C977D82125FF012C9
:2058C00016D6E97003024B709002AAE064036003024B701227A4024B70750807750900780C
:2058E0000812192A7CC57D83125FF01216D6E96009EEFD7C307B8C024CBD75080878081299
:20590000192A7C8E7D82125FF01216D6E9603F9002AAE064037003024B70740812170BAC45
:2059200082AD837583857582C774041215D3750802780812192A740A12170BAC82AD837A2A
:20594000247B021228FA74021216D6025206780812192A7C7C7D82125FF01216D6E96033FD
:205960009002AAE064037003024B709002ABE064046003024B707C087D007A737B821226AC
:20598000667AF47B011225E87901122888122948024B70750807780812192A7CEE7D831247
:2059A0005FF01216D6E96009EEFD7C307B82024CBD750808780812192A7C6A7D82125FF009
:2059C0001216D6E960439002ADE064316003024B709002AAE06003024B70780812192A1246
:2059E00045E41216D6750802780812192AAC0AAD0B1245E81216D6EEFA790812265A908571
:205A0000A712193D7A01025183750807780812192A7CFE7D83125FF01216D6E97003024B4B
:205A200070EEFD7C307B96024CBD750807750900780812192A7C067D84125FF01216D6E9A1
:205A40006008EEF91225FA024B70780812192A7C0E7D84125FF01216D6E96013EEFD7C3057
:205A60007B857A3379301225F41226C6024B70780812192AAC0EAD0F125FF01216D6E960F7
:205A800007EEFA79000256CD750808780812192A7C617D82125FF01216D6E97003024B70CB
:205AA00090624BE0D2E0F09061A9E0D2E0F079001228E87A03790E1228E28A088B09906238
:205AC0004BE0C2E0F09061A9E0C2E0F0E4F50AF50B7808120BF6908593780C121590780824
:205AE000790C120E0578081219267C2B7D811242BC1216D6900248E0642070037430F0A390
:205B0000E0642070037430F0EEFA790E024B6D750808750900780812192A7C4F7D82125FDE
:205B2000F01216D6E97003024B707B0002559B750806750900780812192AAC0CAD0D124552
:205B4000E81216D6750805780812192A7C207D857A477B021245EC1216D6EEFA790B024B32
:205B60006D750C07750D00780C12192A125FEC1216D6E96012740D6F6003024B70EEFA79AE
:205B800001122606024B70750807750900780812192AAC0EAD0F125FF01216D6E9600E7492
:205BA0000D6F6003024B70EEFA790080D4780812192A7C3E7D84125FF01216D6E9601274D6
:205BC0000F6F6003024B707A00EEF9122648024B70780812192A7C467D84125FF01216D692
:205BE000E9600C740F6F6003024B707A0180DA780812192A7C4E7D84125FF01216D6E96021
:205C00000C740F6F6003024B707A0280BC780812192A7C567D84125FF01216D6E9600C74DE
:205C20000F6F6003024B707A03809E780812192A7C157D83125FF01216D6E96012740A6F1E
:205C40006003024B70EEFA7901122630024B70780812192A7C667D84125FF01216D6E9603D
:205C60000E740A6F6003024B70EEFA790080DA780812192A7C6E7D84125FF01216D6E960E6
:205C800028740D6F6003024B7090025CE064306003024B70A3E064786003024B707B00EE62
:205CA000FA790112263C024B70780812192A7C767D84125FF01216D6E96024740D6F600358
:205CC000024B7090025CE064306003024B70A3E064786003024B707B00EEFA790080C4786E
:205CE0000812192A7C7E7D84125FF01216D6E96020740D6F6003024B7090025CE0643060B2
:205D000003024B70A3E064786003024B707B01808E780812192A7C867D84125FF01216D683
:205D2000E96020740D6F6003024B7090025CE064306003024B70A3E064786003024B707B6E
:205D4000018096780812192A7C8E7D84125FF01216D6E97003025DDC780779008F82AA8221
:205D6000801D745528F582740239F583E024E0C3945F4003024B70E8240108E93400F91220
:205D80005FFA40DEEA24F9F508E434FFF509780812192A7C5C7D021245E81216D67C417DD0
:205DA000027A0C79BA1260246003024B70750A07750B00780A12192A7C967D841245E81231
:205DC00016D6780812192A7C5C7D027A487B021245EC1216D6EEFAEFF9024B6D75080578A7
:205DE0000812192A7C0E7D85125FF01216D6E97003025EFF74126F6003024B70780688087D
:205E000074552508F58274021260294003024B7074C629C394075003024B7008E8C39412DA
:205E200040DC740212170BAC82AD8375838575821474061215D3F50C850C82126006F509B8
:205E4000C3943A50047C3080027C37ECC509C39509F50988828983A3A3A3A3A3A3A3E0F503
:205E600008C3943A5004783080027837E508C398540FF8E509C454F048C0E0C3E49AF8950D
:205E8000E0F9740212170BE58228F582E58339F583A3A3A3A3A3D0E0F0050CE50CC3940632
:205EA000409690025AE024CF600914600B14600D024B707508BD80087508BE80037508BF6B
:205EC000740212170BAC82AD837A06A9081260246003024B70750812750900780812192AF1
:205EE0001245E41216D6750802780812192AAC0AAD0B1245E81216D6EEFA7912024B6D78C5
:205F00000812192A7C3E7D85125FF01216D6E97003024B7074126F6003024B709002AAE0BF
:205F200064037003024B70900305E4F09002D404F09002AEE4F090025AE0F87430686005BB
:205F40007431687006E89002D680049002D6E4F0850982126006F508C3943A50047C308018
:205F6000027C37ECC508C39508F50888828983A3A3A3A3A3A3A3E0FCC3943A5004783080E2
:205F8000027837ECC398540FF8E508C454F048C0E0C3E49AF895E0F974DC28F5827402398C
:205FA000F583D0E0F00509E509C3940640A2750808750900780812192A1245E41216D67508
:205FC0000802780812192AAC0AAD0B1245E81216D6900246E0A312607A1216AD1260367003
:205FE0000302502A9002487441025036AC08AD097A557B021227F2740222C3E89AE99400D0
:20600000A2D265D03322AA82EAC333F8E433F9745528F8740239F988828983A3A3A3A3A398
:20602000A3E022F9122A0EE9223400F583E0F974D029C394172274D52508F582740235094A
:20604000F5837C01E5822402FAE5833400FBA3E0F912273EE9227A027B00900240E0F9127B
:2060600028B2740422851882851983E0F508780822F0851882851983E022F0900305E0F55E
:206080000874037808229002487453F0EEFA790812265A90030D2274F6121717E9FFEA60B5
:2060A0002CEF90026BF08F08750900780812192A7C417D027A6C7B021245EC1216D6790095
:2060C0007C697D027A007B00122E52801F901076E06431700A7800800108E8C39F40FA8F1D
:2060E00008AC087D007A417B02122666023EBE74F612171774F51216C09085FB1215AE743F
:206100000712170B1215BA740712170BAC82AD837A0479A8122A0E740712170BAC82AD8360
:206120007A0479A1126367750806750900780812192A7CDD7D841245E81216D67C417D0242
:206140007A0C79BA1263787982126378798312637879841263787985126378798612635D22
:2061600079AF1263787981126378798712637879881263787989126349743212638F126369
:206180007B798B126378798C126357126383798E12637879801263787990126349740A1299
:2061A00063AA12637B7992126378799312634312170B1263B312170BAC82AD837A02799AA9
:2061C00012634312170B74E11263B512170BAC82AD837A02799C12634312170B1263B3120B
:2061E000170BAC82AD837A02799812634312170B74E11263B512170BAC82AD837A02799907
:20620000126378799512634974C512639812637B79A0122A0E9085A31215AE740312170BF4
:206220001215BA740312170BAC82AD837A0479A2122A0E9085BB1215AE740312170B12151A
:20624000BA740312170BAC82AD837A0479A3122A0E90859B1215AE740312170B1215BA7412
:206260000312170BAC82AD837A0479A4122A0E9086231215AE740312170B1215BA74031281
:20628000170BAC82AD837A0479A512634974301263A112637B799612637879BC12635D79FE
:2062A000BD12633979BE12633979BF12637879A9126357126383799712634312170BE4F0B3
:2062C000A3F00412170BAC82AD837A02799D12634312170BAC82AD837A02799E12637879C0
:2062E000AB12637879AC126378799B12637879B012637879B1126349743312638379B21219
:206300006349743712638379B312637879B4126349743612638379B512635712638379AD70
:20632000122A0E79001226EA9085A712193D1260561216D6740B023EBB122A0E7C417D028E
:206340007A0622122A0E74012212634D22122A0E8518828519832212634D743122126367C5
:206360007C417D027A0622122A0E7C147D0079007A417B021227F822122A0E8518828519DD
:2063800083743012638722F0AC82AD837A0122126387798A122A0E221263877994122A0E0F
:2063A0002212638779BB122A0E221263877991122A0E2274E0F0A374FFF074012274F7124F
:2063C000171778007900801A8A828B83E0F5F9A3AA82AB83A2EA50FCC2EAE8240108E93469
:2063E00000F9C3E89CE99DA2D265D03340DA023A62C082C083E99011F0F0D083D082020BA2
:206400004974F6121717E99005F1F07C317D067AFF7BFF122F6C7A008A08750900740278E2
:20642000081216AD74F22508F874053509126450A3F00AEAC3940340DF7905122EFA90052A
:20644000F1E0F9122E1C7A847B2F12319A0279D1F98882898374FF12645DE4F022F0A31255
:20646000785EA32274F41217178A088B09EB548060309005F1E0F912281C8A0A8B0BAE0ACD
:20648000AF0BEE4F60138E828F83E064B07003122F0CEEFAEFFB12280AAA08E5096480FB27
:2064A00080047A007B0002662D74F212171774FC1216C0EAFEEBFF741212170B1278A7EE25
:2064C0004F700302654C740212170BEEF0A3EF126888ECF0A3ED126888AA82AB83122E160D
:2064E000E9F50A706AE508450960648E828F83127888EE4F60567A067B001228768A0C8BE8
:206500000DA80CA90DE8497005750A13804188828983E412645DEEF0A3EF1278B8E508F0AF
:20652000A3E509F09005FF1266279005FF7005127345801B1273338003EAFCEBFD8C828D95
:206540008312662770F38C828D8380E3750A02A90A74041216D6027A9B74F2121717890A3B
:20656000E975F045A4FEAFF09005FEE4F09005F4126627602812287C79008908750900747E
:206580000278081216AD74F42508F58274053509F583E4F0A3F009E9C3940340DDEEFAEFC2
:2065A000FB1228768A088B09EA45096075EEFCEFFD79001227F87D008D0C750D00740278F7
:2065C0000C1216AD74F4250CF87405350DF9E50AF5F0EDA475F017A4FAABF0E5082AFAE585
:2065E000093BFB88828983EAF0A3EBF07E00801BEE75F017A4FAABF088828983E02AFCA373
:20660000E03B8C82F583E4F0A3F00EEEC3950A40DF0DEDC3940340A0E50A9005FEF07900D6
:2066200080027913027A9B126FD7EA4B227F040217E974F41217177900EAA2E0501B75088C
:2066400074750985780812192A7C047D007AF27B11122EF474021216D680D2C082C08390EA
:2066600005FF1278A249601C88828983A3A3E06A7003A3E06B8882898370E7A3A3A3A31213
:206680006FD380047A007B000263FA74EE12171774FC1216C0EAFEEBFF851882851983E4F0
:2066A000F0A3F0EE2402127325EE2405127865EE2404F50EEF126C32E024FE603924FC60C0
:2066C0004624FE605224FE605E24FE700302679E24FE700302680224FE700302681124FEF1
:2066E000700302682024FC700302682F24FE700302683E02687B9006187417F0A3E4126825
:2067000090122A5002687B851882851983AC82AD83122F1202684B851882851983AC82ADB7
:2067200083122F1802684B850C08850D09740212170BAC82AD83850882850983126FD31206
:206740002E3A8A0C8B0DAC0CAD0DEC4D603BE4F50CF50D780C12192A750C18750D06780CF8
:2067600012192A750C19750D06780C12192A740812170B121941127BA51216D6E9F50C7023
:206780000B126FC9122A68800F750C0185088285098312687E127345850C0802684E740246
:2067A00012170BAC82AD83850C82850D83126D85603C850C82850D83A3A312194175101808
:2067C000751106781012192A751019751106781012192A740812170B121941127BA51216D3
:2067E000D6E9F509700B126FC9122A6E800F750901850C82850D8312687E127345850908DF
:20680000804C851882851983AC82AD83122F1E803A851882851983AC82AD83122F24802B47
:20682000851882851983AC82AD83122F2A801C851882851983AC82AD83122F30800D85187A
:2068400082851983AC82AD83122F36E9F508E50860298E828F83A3E06414601F850E82852E
:206860000F83E0900618126888127B7D900619127345E508A3126890122A4A027234127B1E
:206880008185188285198322F085188285198322F07C187D06850A82850B83126FD72274AA
:2068A000EE12171774FC1216C08A0A8B0B8C0E8D0FEA2405F508EB3400F5097C157D00793E
:2068C000007A187B061227F8E5082402F50CE5091278688518828519838582108583117898
:2068E0001012192A850882850983A3A3A3A3126D7C12192AE5082405F510E5093400F511F4
:20690000781012192A850C82850D831270EA122E3474061216D68A108B11AE10AF11E50A77
